{
  "_format": "hh-sol-artifact-1",
  "contractName": "AssetTraceabilityV2",
  "sourceName": "contracts/AssetTraceabilityV2.sol",
  "abi": [
    {
      "inputs": [
        {
          "internalType": "uint256",
          "name": "id",
          "type": "uint256"
        }
      ],
      "name": "InvalidCaller",
      "type": "error"
    },
    {
      "inputs": [
        {
          "internalType": "uint256",
          "name": "expectedAmount",
          "type": "uint256"
        },
        {
          "internalType": "uint256",
          "name": "gotAmount",
          "type": "uint256"
        }
      ],
      "name": "NotMatchingAmount",
      "type": "error"
    },
    {
      "inputs": [
        {
          "internalType": "uint256",
          "name": "length1",
          "type": "uint256"
        },
        {
          "internalType": "uint256",
          "name": "length2",
          "type": "uint256"
        }
      ],
      "name": "NotMatchingArrays",
      "type": "error"
    },
    {
      "inputs": [
        {
          "internalType": "uint256",
          "name": "id",
          "type": "uint256"
        }
      ],
      "name": "TokenAlreadyUsed",
      "type": "error"
    },
    {
      "anonymous": false,
      "inputs": [
        {
          "indexed": true,
          "internalType": "address",
          "name": "owner",
          "type": "address"
        },
        {
          "indexed": true,
          "internalType": "address",
          "name": "approved",
          "type": "address"
        },
        {
          "indexed": true,
          "internalType": "uint256",
          "name": "tokenId",
          "type": "uint256"
        }
      ],
      "name": "Approval",
      "type": "event"
    },
    {
      "anonymous": false,
      "inputs": [
        {
          "indexed": true,
          "internalType": "address",
          "name": "owner",
          "type": "address"
        },
        {
          "indexed": true,
          "internalType": "address",
          "name": "operator",
          "type": "address"
        },
        {
          "indexed": false,
          "internalType": "bool",
          "name": "approved",
          "type": "bool"
        }
      ],
      "name": "ApprovalForAll",
      "type": "event"
    },
    {
      "anonymous": false,
      "inputs": [
        {
          "indexed": false,
          "internalType": "uint256",
          "name": "_fromTokenId",
          "type": "uint256"
        },
        {
          "indexed": false,
          "internalType": "uint256",
          "name": "_toTokenId",
          "type": "uint256"
        }
      ],
      "name": "BatchMetadataUpdate",
      "type": "event"
    },
    {
      "anonymous": false,
      "inputs": [
        {
          "indexed": false,
          "internalType": "uint8",
          "name": "version",
          "type": "uint8"
        }
      ],
      "name": "Initialized",
      "type": "event"
    },
    {
      "anonymous": false,
      "inputs": [
        {
          "indexed": false,
          "internalType": "uint256",
          "name": "_tokenId",
          "type": "uint256"
        }
      ],
      "name": "MetadataUpdate",
      "type": "event"
    },
    {
      "anonymous": false,
      "inputs": [
        {
          "indexed": true,
          "internalType": "address",
          "name": "previousOwner",
          "type": "address"
        },
        {
          "indexed": true,
          "internalType": "address",
          "name": "newOwner",
          "type": "address"
        }
      ],
      "name": "OwnershipTransferred",
      "type": "event"
    },
    {
      "anonymous": false,
      "inputs": [
        {
          "indexed": true,
          "internalType": "address",
          "name": "from",
          "type": "address"
        },
        {
          "indexed": true,
          "internalType": "address",
          "name": "to",
          "type": "address"
        },
        {
          "indexed": true,
          "internalType": "uint256",
          "name": "tokenId",
          "type": "uint256"
        }
      ],
      "name": "Transfer",
      "type": "event"
    },
    {
      "inputs": [
        {
          "internalType": "uint256",
          "name": "id",
          "type": "uint256"
        },
        {
          "internalType": "uint256[]",
          "name": "toMerge",
          "type": "uint256[]"
        }
      ],
      "name": "add",
      "outputs": [],
      "stateMutability": "nonpayable",
      "type": "function"
    },
    {
      "inputs": [
        {
          "internalType": "address",
          "name": "to",
          "type": "address"
        },
        {
          "internalType": "uint256",
          "name": "tokenId",
          "type": "uint256"
        }
      ],
      "name": "approve",
      "outputs": [],
      "stateMutability": "nonpayable",
      "type": "function"
    },
    {
      "inputs": [
        {
          "internalType": "address",
          "name": "owner",
          "type": "address"
        }
      ],
      "name": "balanceOf",
      "outputs": [
        {
          "internalType": "uint256",
          "name": "",
          "type": "uint256"
        }
      ],
      "stateMutability": "view",
      "type": "function"
    },
    {
      "inputs": [
        {
          "internalType": "uint256",
          "name": "tokenId",
          "type": "uint256"
        }
      ],
      "name": "burn",
      "outputs": [],
      "stateMutability": "nonpayable",
      "type": "function"
    },
    {
      "inputs": [
        {
          "internalType": "uint256",
          "name": "id",
          "type": "uint256"
        },
        {
          "internalType": "string",
          "name": "_uri",
          "type": "string"
        }
      ],
      "name": "editMetadata",
      "outputs": [],
      "stateMutability": "nonpayable",
      "type": "function"
    },
    {
      "inputs": [
        {
          "internalType": "uint256",
          "name": "tokenId",
          "type": "uint256"
        }
      ],
      "name": "getApproved",
      "outputs": [
        {
          "internalType": "address",
          "name": "",
          "type": "address"
        }
      ],
      "stateMutability": "view",
      "type": "function"
    },
    {
      "inputs": [
        {
          "internalType": "uint256",
          "name": "tokenId",
          "type": "uint256"
        }
      ],
      "name": "getAsset",
      "outputs": [
        {
          "components": [
            {
              "internalType": "uint256",
              "name": "amount",
              "type": "uint256"
            },
            {
              "internalType": "uint256",
              "name": "_type",
              "type": "uint256"
            },
            {
              "internalType": "uint256",
              "name": "groupId",
              "type": "uint256"
            },
            {
              "internalType": "uint256",
              "name": "tokenId",
              "type": "uint256"
            },
            {
              "internalType": "address",
              "name": "owner",
              "type": "address"
            },
            {
              "internalType": "uint256[]",
              "name": "parents",
              "type": "uint256[]"
            },
            {
              "internalType": "uint256[]",
              "name": "children",
              "type": "uint256[]"
            },
            {
              "components": [
                {
                  "internalType": "address",
                  "name": "author",
                  "type": "address"
                },
                {
                  "internalType": "enum AssetTraceability.OperationType",
                  "name": "reason",
                  "type": "uint8"
                },
                {
                  "internalType": "uint256",
                  "name": "timestamp",
                  "type": "uint256"
                }
              ],
              "internalType": "struct AssetTraceability.LogItem[]",
              "name": "changes",
              "type": "tuple[]"
            },
            {
              "internalType": "string",
              "name": "uri",
              "type": "string"
            }
          ],
          "internalType": "struct AssetTraceability.AssetResult",
          "name": "",
          "type": "tuple"
        }
      ],
      "stateMutability": "view",
      "type": "function"
    },
    {
      "inputs": [],
      "name": "getBaseURI",
      "outputs": [
        {
          "internalType": "string",
          "name": "",
          "type": "string"
        }
      ],
      "stateMutability": "pure",
      "type": "function"
    },
    {
      "inputs": [
        {
          "internalType": "uint256",
          "name": "_groupId",
          "type": "uint256"
        }
      ],
      "name": "getGroup",
      "outputs": [
        {
          "components": [
            {
              "internalType": "uint256",
              "name": "amount",
              "type": "uint256"
            },
            {
              "internalType": "uint256",
              "name": "_type",
              "type": "uint256"
            },
            {
              "internalType": "uint256",
              "name": "groupId",
              "type": "uint256"
            },
            {
              "internalType": "uint256",
              "name": "tokenId",
              "type": "uint256"
            },
            {
              "internalType": "address",
              "name": "owner",
              "type": "address"
            },
            {
              "internalType": "uint256[]",
              "name": "parents",
              "type": "uint256[]"
            },
            {
              "internalType": "uint256[]",
              "name": "children",
              "type": "uint256[]"
            },
            {
              "components": [
                {
                  "internalType": "address",
                  "name": "author",
                  "type": "address"
                },
                {
                  "internalType": "enum AssetTraceability.OperationType",
                  "name": "reason",
                  "type": "uint8"
                },
                {
                  "internalType": "uint256",
                  "name": "timestamp",
                  "type": "uint256"
                }
              ],
              "internalType": "struct AssetTraceability.LogItem[]",
              "name": "changes",
              "type": "tuple[]"
            },
            {
              "internalType": "string",
              "name": "uri",
              "type": "string"
            }
          ],
          "internalType": "struct AssetTraceability.AssetResult[]",
          "name": "",
          "type": "tuple[]"
        }
      ],
      "stateMutability": "view",
      "type": "function"
    },
    {
      "inputs": [],
      "name": "initialize",
      "outputs": [],
      "stateMutability": "nonpayable",
      "type": "function"
    },
    {
      "inputs": [
        {
          "internalType": "address",
          "name": "owner",
          "type": "address"
        },
        {
          "internalType": "address",
          "name": "operator",
          "type": "address"
        }
      ],
      "name": "isApprovedForAll",
      "outputs": [
        {
          "internalType": "bool",
          "name": "",
          "type": "bool"
        }
      ],
      "stateMutability": "view",
      "type": "function"
    },
    {
      "inputs": [],
      "name": "name",
      "outputs": [
        {
          "internalType": "string",
          "name": "",
          "type": "string"
        }
      ],
      "stateMutability": "view",
      "type": "function"
    },
    {
      "inputs": [],
      "name": "owner",
      "outputs": [
        {
          "internalType": "address",
          "name": "",
          "type": "address"
        }
      ],
      "stateMutability": "view",
      "type": "function"
    },
    {
      "inputs": [
        {
          "internalType": "uint256",
          "name": "tokenId",
          "type": "uint256"
        }
      ],
      "name": "ownerOf",
      "outputs": [
        {
          "internalType": "address",
          "name": "",
          "type": "address"
        }
      ],
      "stateMutability": "view",
      "type": "function"
    },
    {
      "inputs": [
        {
          "internalType": "address",
          "name": "_to",
          "type": "address"
        },
        {
          "internalType": "string",
          "name": "_uri",
          "type": "string"
        },
        {
          "internalType": "uint256",
          "name": "_amount",
          "type": "uint256"
        },
        {
          "internalType": "uint256",
          "name": "_type",
          "type": "uint256"
        },
        {
          "internalType": "uint256",
          "name": "_groupId",
          "type": "uint256"
        }
      ],
      "name": "register",
      "outputs": [],
      "stateMutability": "nonpayable",
      "type": "function"
    },
    {
      "inputs": [],
      "name": "renounceOwnership",
      "outputs": [],
      "stateMutability": "nonpayable",
      "type": "function"
    },
    {
      "inputs": [
        {
          "internalType": "address",
          "name": "from",
          "type": "address"
        },
        {
          "internalType": "address",
          "name": "to",
          "type": "address"
        },
        {
          "internalType": "uint256",
          "name": "tokenId",
          "type": "uint256"
        }
      ],
      "name": "safeTransferFrom",
      "outputs": [],
      "stateMutability": "nonpayable",
      "type": "function"
    },
    {
      "inputs": [
        {
          "internalType": "address",
          "name": "from",
          "type": "address"
        },
        {
          "internalType": "address",
          "name": "to",
          "type": "address"
        },
        {
          "internalType": "uint256",
          "name": "tokenId",
          "type": "uint256"
        },
        {
          "internalType": "bytes",
          "name": "data",
          "type": "bytes"
        }
      ],
      "name": "safeTransferFrom",
      "outputs": [],
      "stateMutability": "nonpayable",
      "type": "function"
    },
    {
      "inputs": [
        {
          "internalType": "address",
          "name": "operator",
          "type": "address"
        },
        {
          "internalType": "bool",
          "name": "approved",
          "type": "bool"
        }
      ],
      "name": "setApprovalForAll",
      "outputs": [],
      "stateMutability": "nonpayable",
      "type": "function"
    },
    {
      "inputs": [
        {
          "internalType": "string",
          "name": "_baseuri",
          "type": "string"
        }
      ],
      "name": "setBaseURI",
      "outputs": [],
      "stateMutability": "nonpayable",
      "type": "function"
    },
    {
      "inputs": [
        {
          "internalType": "uint256",
          "name": "id",
          "type": "uint256"
        },
        {
          "internalType": "uint256",
          "name": "_type",
          "type": "uint256"
        },
        {
          "internalType": "uint256",
          "name": "_groupId",
          "type": "uint256"
        },
        {
          "internalType": "uint256[]",
          "name": "amounts",
          "type": "uint256[]"
        },
        {
          "internalType": "string[]",
          "name": "uris",
          "type": "string[]"
        }
      ],
      "name": "splitDifferent",
      "outputs": [],
      "stateMutability": "nonpayable",
      "type": "function"
    },
    {
      "inputs": [
        {
          "internalType": "uint256",
          "name": "id",
          "type": "uint256"
        },
        {
          "internalType": "uint256",
          "name": "_type",
          "type": "uint256"
        },
        {
          "internalType": "uint256",
          "name": "_groupId",
          "type": "uint256"
        },
        {
          "internalType": "uint256",
          "name": "amount",
          "type": "uint256"
        },
        {
          "internalType": "string",
          "name": "uri",
          "type": "string"
        }
      ],
      "name": "splitSame",
      "outputs": [],
      "stateMutability": "nonpayable",
      "type": "function"
    },
    {
      "inputs": [
        {
          "internalType": "bytes4",
          "name": "interfaceId",
          "type": "bytes4"
        }
      ],
      "name": "supportsInterface",
      "outputs": [
        {
          "internalType": "bool",
          "name": "",
          "type": "bool"
        }
      ],
      "stateMutability": "view",
      "type": "function"
    },
    {
      "inputs": [],
      "name": "symbol",
      "outputs": [
        {
          "internalType": "string",
          "name": "",
          "type": "string"
        }
      ],
      "stateMutability": "view",
      "type": "function"
    },
    {
      "inputs": [
        {
          "internalType": "uint256",
          "name": "index",
          "type": "uint256"
        }
      ],
      "name": "tokenByIndex",
      "outputs": [
        {
          "internalType": "uint256",
          "name": "",
          "type": "uint256"
        }
      ],
      "stateMutability": "view",
      "type": "function"
    },
    {
      "inputs": [
        {
          "internalType": "address",
          "name": "owner",
          "type": "address"
        },
        {
          "internalType": "uint256",
          "name": "index",
          "type": "uint256"
        }
      ],
      "name": "tokenOfOwnerByIndex",
      "outputs": [
        {
          "internalType": "uint256",
          "name": "",
          "type": "uint256"
        }
      ],
      "stateMutability": "view",
      "type": "function"
    },
    {
      "inputs": [
        {
          "internalType": "uint256",
          "name": "tokenId",
          "type": "uint256"
        }
      ],
      "name": "tokenURI",
      "outputs": [
        {
          "internalType": "string",
          "name": "",
          "type": "string"
        }
      ],
      "stateMutability": "view",
      "type": "function"
    },
    {
      "inputs": [],
      "name": "totalSupply",
      "outputs": [
        {
          "internalType": "uint256",
          "name": "",
          "type": "uint256"
        }
      ],
      "stateMutability": "view",
      "type": "function"
    },
    {
      "inputs": [
        {
          "internalType": "address",
          "name": "from",
          "type": "address"
        },
        {
          "internalType": "address",
          "name": "to",
          "type": "address"
        },
        {
          "internalType": "uint256",
          "name": "tokenId",
          "type": "uint256"
        }
      ],
      "name": "transferFrom",
      "outputs": [],
      "stateMutability": "nonpayable",
      "type": "function"
    },
    {
      "inputs": [
        {
          "internalType": "address",
          "name": "newOwner",
          "type": "address"
        }
      ],
      "name": "transferOwnership",
      "outputs": [],
      "stateMutability": "nonpayable",
      "type": "function"
    },
    {
      "inputs": [
        {
          "internalType": "uint256",
          "name": "id",
          "type": "uint256"
        },
        {
          "internalType": "uint256",
          "name": "_amount",
          "type": "uint256"
        },
        {
          "internalType": "uint256",
          "name": "_type",
          "type": "uint256"
        },
        {
          "internalType": "uint256",
          "name": "_groupId",
          "type": "uint256"
        },
        {
          "internalType": "string",
          "name": "_uri",
          "type": "string"
        }
      ],
      "name": "transform",
      "outputs": [],
      "stateMutability": "nonpayable",
      "type": "function"
    },
    {
      "inputs": [
        {
          "internalType": "address",
          "name": "_to",
          "type": "address"
        },
        {
          "internalType": "uint256",
          "name": "_type",
          "type": "uint256"
        },
        {
          "internalType": "uint256",
          "name": "_groupId",
          "type": "uint256"
        },
        {
          "internalType": "uint256[]",
          "name": "merged",
          "type": "uint256[]"
        },
        {
          "internalType": "string",
          "name": "_uri",
          "type": "string"
        }
      ],
      "name": "union",
      "outputs": [],
      "stateMutability": "nonpayable",
      "type": "function"
    }
  ],
  "bytecode": "0x608060405234801561001057600080fd5b50613a60806100206000396000f3fe608060405234801561001057600080fd5b506004361061020d576000357c010000000000000000000000000000000000000000000000000000000090048063715018a61161012c578063b88d4fde116100bf578063e428e0101161008e578063e428e01014610467578063e985e9c51461047a578063eac8f5b8146104b6578063f2fde38b146104d657600080fd5b8063b88d4fde1461040e578063c152f72814610421578063c87b56dd14610434578063ceb606541461044757600080fd5b80638da5cb5b116100fb5780638da5cb5b146103ce57806395d89b41146103e0578063a22cb465146103e8578063a231bdf8146103fb57600080fd5b8063715018a61461039857806377f83471146103a05780638129fc1c146103b357806383219a8a146103bb57600080fd5b806342842e0e116101a45780636352211e116101735780636352211e1461032657806365260be41461033957806370a082311461034c578063714c53981461035f57600080fd5b806342842e0e146102da57806342966c68146102ed5780634f6ccce71461030057806355f804b31461031357600080fd5b806318160ddd116101e057806318160ddd1461028f57806323b872dd146102a15780632f745c59146102b45780633bd74985146102c757600080fd5b806301ffc9a71461021257806306fdde031461023a578063081812fc1461024f578063095ea7b31461027a575b600080fd5b610225610220366004612e2b565b6104e9565b60405190151581526020015b60405180910390f35b6102426104fa565b6040516102319190612e98565b61026261025d366004612eab565b61058c565b604051600160a060020a039091168152602001610231565b61028d610288366004612ee0565b6105b3565b005b6099545b604051908152602001610231565b61028d6102af366004612f0a565b6106ef565b6102936102c2366004612ee0565b610715565b61028d6102d5366004612fd3565b6107c0565b61028d6102e8366004612f0a565b610960565b61028d6102fb366004612eab565b610990565b61029361030e366004612eab565b6109a7565b61028d610321366004613116565b610a4e565b610262610334366004612eab565b610a63565b61028d61034736600461314b565b610acb565b61029361035a366004613197565b610c54565b60408051808201909152600281527f76320000000000000000000000000000000000000000000000000000000000006020820152610242565b61028d610cf1565b61028d6103ae3660046131b2565b610d05565b61028d610ef7565b61028d6103c936600461322c565b6110c4565b61012d54600160a060020a0316610262565b61024261110e565b61028d6103f636600461326b565b61111d565b61028d6104093660046132a7565b611128565b61028d61041c366004613310565b61113f565b61028d61042f36600461338c565b611160565b610242610442366004612eab565b6112b8565b61045a610455366004612eab565b6112c3565b6040516102319190613577565b61028d61047536600461338c565b611420565b6102256104883660046135d8565b600160a060020a039182166000908152606a6020908152604080832093909416825291909152205460ff1690565b6104c96104c4366004612eab565b6114de565b604051610231919061360b565b61028d6104e4366004613197565b6114ef565b60006104f48261157f565b92915050565b6060606580546105099061361e565b80601f01602080910402602001604051908101604052809291908181526020018280546105359061361e565b80156105825780601f1061055757610100808354040283529160200191610582565b820191906000526020600020905b81548152906001019060200180831161056557829003601f168201915b5050505050905090565b6000610597826115bd565b50600090815260696020526040902054600160a060020a031690565b60006105be82610a63565b905080600160a060020a031683600160a060020a03160361064f5760405160e560020a62461bcd02815260206004820152602160248201527f4552433732313a20617070726f76616c20746f2063757272656e74206f776e6560448201527f720000000000000000000000000000000000000000000000000000000000000060648201526084015b60405180910390fd5b33600160a060020a038216148061066b575061066b8133610488565b6106e05760405160e560020a62461bcd02815260206004820152603d60248201527f4552433732313a20617070726f76652063616c6c6572206973206e6f7420746f60448201527f6b656e206f776e6572206f7220617070726f76656420666f7220616c6c0000006064820152608401610646565b6106ea8383611624565b505050565b806106f98161169f565b610704826005611739565b61070f848484611825565b50505050565b600061072083610c54565b82106107975760405160e560020a62461bcd02815260206004820152602b60248201527f455243373231456e756d657261626c653a206f776e657220696e646578206f7560448201527f74206f6620626f756e64730000000000000000000000000000000000000000006064820152608401610646565b50600160a060020a03919091166000908152609760209081526040808320938352929052205490565b6000805b84811015610884576107ed8686838181106107e1576107e161365b565b9050602002013561169f565b600161016360008888858181106108065761080661365b565b90506020020135815260200190815260200160002060000160006101000a81548160ff021916908315150217905550610163600087878481811061084c5761084c61365b565b9050602002013581526020019081526020016000206001015482610870919061368d565b91508061087c816136a0565b9150506107c4565b5060006108ce8985858080601f0160208091040260200160405190810160405280939291908181526020018383808284376000920191909152508792508d91508c90506003611858565b6000818152610163602052604090209091506108ee906004018787612d2a565b5060005b858110156109545761016360008888848181106109115761091161365b565b602090810292909201358352508181019290925260400160009081206005018054600181018255908252919020018290558061094c816136a0565b9150506108f2565b50505050505050505050565b8061096a8161169f565b610975826005611739565b61070f8484846040518060200160405280600081525061191c565b8061099a8161169f565b6109a382611951565b5050565b60006109b260995490565b8210610a295760405160e560020a62461bcd02815260206004820152602c60248201527f455243373231456e756d657261626c653a20676c6f62616c20696e646578206f60448201527f7574206f6620626f756e647300000000000000000000000000000000000000006064820152608401610646565b60998281548110610a3c57610a3c61365b565b90600052602060002001549050919050565b610a56611982565b61015f6109a382826136ff565b600081815260676020526040812054600160a060020a0316806104f45760405160e560020a62461bcd02815260206004820152601860248201527f4552433732313a20696e76616c696420746f6b656e20494400000000000000006044820152606401610646565b82610ad58161169f565b60008481526101636020526040812060010154905b83811015610c2a57610b078585838181106107e1576107e161365b565b60016101636000878785818110610b2057610b2061365b565b90506020020135815260200190815260200160002060000160006101000a81548160ff0219169083151502179055506101636000868684818110610b6657610b6661365b565b9050602002013581526020019081526020016000206001015482610b8a919061368d565b91506101636000868684818110610ba357610ba361365b565b6020908102929092013583525081810192909252604090810160009081206005018054600181018255908252838220018990558881526101639092529020600401858583818110610bf657610bf661365b565b8354600181018555600094855260209485902091909402929092013591909201555080610c22816136a0565b915050610aea565b506000858152610163602052604090206001908101829055610c4d908690611739565b5050505050565b6000600160a060020a038216610cd55760405160e560020a62461bcd02815260206004820152602960248201527f4552433732313a2061646472657373207a65726f206973206e6f74206120766160448201527f6c6964206f776e657200000000000000000000000000000000000000000000006064820152608401610646565b50600160a060020a031660009081526068602052604090205490565b610cf9611982565b610d0360006119e0565b565b86610d0f8161169f565b838214610d52576040517f69e657b40000000000000000000000000000000000000000000000000000000081526004810185905260248101839052604401610646565b6000610d5d89610a63565b90506000805b86811015610e6657878782818110610d7d57610d7d61365b565b9050602002013582610d8f919061368d565b91506000610e1484888885818110610da957610da961365b565b9050602002810190610dbb91906137c5565b8080601f0160208091040260200160405190810160405280939291908181526020018383808284376000920191909152508e92508d9150879050818110610e0457610e0461365b565b905060200201358e8e6002611858565b60008d8152610163602090815260408083206005018054600181810183559185528385200185905593835282206004018054938401815582529020018c90555080610e5e816136a0565b915050610d63565b5060008a815261016360205260409020600101548114610ed15760008a81526101636020526040908190206001015490517ff572090d000000000000000000000000000000000000000000000000000000008152600481019190915260248101829052604401610646565b5050506000968752505061016360205250506040909220805460ff191660011790555050565b600054610100900460ff1615808015610f175750600054600160ff909116105b80610f315750303b158015610f31575060005460ff166001145b610fa65760405160e560020a62461bcd02815260206004820152602e60248201527f496e697469616c697a61626c653a20636f6e747261637420697320616c72656160448201527f647920696e697469616c697a65640000000000000000000000000000000000006064820152608401610646565b6000805460ff191660011790558015610fc9576000805461ff0019166101001790555b61103d6040518060400160405280601181526020017f417373657454726163656162696c6974790000000000000000000000000000008152506040518060400160405280600281526020017f4154000000000000000000000000000000000000000000000000000000000000815250611a40565b611045611a74565b61104d611a74565b611055611a74565b61105d611a9e565b60408051602081019091526000815261015f9061107a90826136ff565b5080156110c1576000805461ff0019169055604051600181527f7f26b83ff96e1f2b6a682f133852f6798a09c465da95921460cefb38474024989060200160405180910390a15b50565b826110ce8161169f565b61070f8484848080601f016020809104026020016040519081016040528093929190818152602001838380828437600092019190915250611ad092505050565b6060606680546105099061361e565b6109a3338383611bad565b61113785858585856000611858565b505050505050565b816111498161169f565b611154836005611739565b610c4d8585858561191c565b8561116a8161169f565b600061117588610a63565b600089815261016360205260409020600101549091505b80156112935760006111db8387878080601f0160208091040260200160405190810160405280939291908181526020018383808284376000920191909152508c92508e91508d90506002611858565b60008b815261016360209081526040808320600501805460018181018355918552838520018590558484529083206004018054918201815583529120018b905590508682106112355761122e878361380c565b915061128d565b60008a81526101636020526040902060010154611252838261380c565b6040517ff572090d00000000000000000000000000000000000000000000000000000000815260048101929092526024820152604401610646565b5061118c565b5050506000958652505061016360205250506040909120805460ff1916600117905550565b60606104f482611c7e565b60008181526101626020908152604080832080548251818502810185019093528083526060949383018282801561131957602002820191906000526020600020905b815481526020019060010190808311611305575b505050505090506000815111156113e8576000815167ffffffffffffffff81111561134657611346613067565b60405190808252806020026020018201604052801561137f57816020015b61136c612d75565b8152602001906001900390816113645790505b50905060005b82518110156113e0576113b08382815181106113a3576113a361365b565b6020026020010151611d81565b8282815181106113c2576113c261365b565b602002602001018190525080806113d8906136a0565b915050611385565b509392505050565b60408051600080825260208201909252906113e0565b611406612d75565b8152602001906001900390816113fe579050509392505050565b8561142a8161169f565b600087815261016360205260408120805460ff1916600117905561149361145089610a63565b85858080601f0160208091040260200160405190810160405280939291908181526020018383808284376000920191909152508c92508b91508a90506004611858565b600081815261016360209081526040808320600401805460018181018355918552838520018d90559b8352822060050180549b8c018155825290209098019790975550505050505050565b6114e6612d75565b6104f482611d81565b6114f7611982565b600160a060020a0381166115765760405160e560020a62461bcd02815260206004820152602660248201527f4f776e61626c653a206e6577206f776e657220697320746865207a65726f206160448201527f64647265737300000000000000000000000000000000000000000000000000006064820152608401610646565b6110c1816119e0565b6000600160e060020a031982167f490649060000000000000000000000000000000000000000000000000000000014806104f457506104f48261208c565b600081815260676020526040902054600160a060020a03166110c15760405160e560020a62461bcd02815260206004820152601860248201527f4552433732313a20696e76616c696420746f6b656e20494400000000000000006044820152606401610646565b6000818152606960205260409020805473ffffffffffffffffffffffffffffffffffffffff1916600160a060020a038416908117909155819061166682610a63565b600160a060020a03167f8c5be1e5ebec7d5bd14f71427d1e84f3dd0314c0f7b2291e5b200ac8c7c3b92560405160405180910390a45050565b6116a8816115bd565b6116b3335b826120ca565b6116ec576040517f03ea3c1c00000000000000000000000000000000000000000000000000000000815260048101829052602401610646565b6000818152610163602052604090205460ff16156110c1576040517fccd934e100000000000000000000000000000000000000000000000000000000815260048101829052602401610646565b6000828152610163602052604090819020815160608101909252600601908033600160a060020a0316815260200183600581111561177957611779613431565b815242602091820152825460018101845560009384529281902082516002909402018054600160a060020a0390941673ffffffffffffffffffffffffffffffffffffffff19851681178255918301519293909291839174ffffffffffffffffffffffffffffffffffffffffff1916177401000000000000000000000000000000000000000083600581111561181057611810613431565b02179055506040820151816001015550505050565b61182e336116ad565b61184d5760405160e560020a62461bcd0281526004016106469061381f565b6106ea838383612148565b6000806118656101605490565b905061187661016080546001019055565b61188088826122e8565b61188a8188611ad0565b600081815261016360205260409020805460ff1916815560018101879055600281018690556003018490556118bf8184611739565b84156118e857600085815261016160209081526040822080546001810182559083529120018190555b831561191157600084815261016260209081526040822080546001810182559083529120018190555b979650505050505050565b61192633836120ca565b6119455760405160e560020a62461bcd0281526004016106469061381f565b61070f84848484612302565b61195a336116ad565b6119795760405160e560020a62461bcd0281526004016106469061381f565b6110c181612338565b61012d54600160a060020a03163314610d035760405160e560020a62461bcd02815260206004820181905260248201527f4f776e61626c653a2063616c6c6572206973206e6f7420746865206f776e65726044820152606401610646565b61012d8054600160a060020a0383811673ffffffffffffffffffffffffffffffffffffffff19831681179093556040519116919082907f8be0079c531659141344cd1fd0a4f28419497f9722a3daafe3b4186f6b6457e090600090a35050565b600054610100900460ff16611a6a5760405160e560020a62461bcd0281526004016106469061387c565b6109a38282612341565b600054610100900460ff16610d035760405160e560020a62461bcd0281526004016106469061387c565b600054610100900460ff16611ac85760405160e560020a62461bcd0281526004016106469061387c565b610d03612384565b600082815260676020526040902054600160a060020a0316611b5d5760405160e560020a62461bcd02815260206004820152602e60248201527f45524337323155524953746f726167653a2055524920736574206f66206e6f6e60448201527f6578697374656e7420746f6b656e0000000000000000000000000000000000006064820152608401610646565b600082815260c960205260409020611b7582826136ff565b506040518281527ff8e1a15aba9398e019f0b49df1a4fde98ee17ae345cb5f6b5e2c27f5033e8ce79060200160405180910390a15050565b81600160a060020a031683600160a060020a031603611c115760405160e560020a62461bcd02815260206004820152601960248201527f4552433732313a20617070726f766520746f2063616c6c6572000000000000006044820152606401610646565b600160a060020a038381166000818152606a6020908152604080832094871680845294825291829020805460ff191686151590811790915591519182527f17307eab39ab6107e8899845ad3d59bd9653f200f220920489ca2b5937696c31910160405180910390a3505050565b6060611c89826115bd565b600082815260c9602052604081208054611ca29061361e565b80601f0160208091040260200160405190810160405280929190818152602001828054611cce9061361e565b8015611d1b5780601f10611cf057610100808354040283529160200191611d1b565b820191906000526020600020905b815481529060010190602001808311611cfe57829003601f168201915b505050505090506000611d2c6123b7565b90508051600003611d3e575092915050565b815115611d70578082604051602001611d589291906138d9565b60405160208183030381529060405292505050919050565b611d79846123c7565b949350505050565b611d89612d75565b600082815261016360209081526040808320815160e081018352815460ff161515815260018201548185015260028201548184015260038201546060820152600482018054845181870281018701909552808552919492936080860193909290830182828015611e1857602002820191906000526020600020905b815481526020019060010190808311611e04575b5050505050815260200160058201805480602002602001604051908101604052809291908181526020018280548015611e7057602002820191906000526020600020905b815481526020019060010190808311611e5c575b5050505050815260200160068201805480602002602001604051908101604052809291908181526020016000905b82821015611f335760008481526020908190206040805160608101909152600285029091018054600160a060020a0381168352919290919083019074010000000000000000000000000000000000000000900460ff166005811115611f0557611f05613431565b6005811115611f1657611f16613431565b815260200160018201548152505081526020019060010190611e9e565b50505091525050602081015190915015611fbe57604051806101200160405280826020015181526020018260400151815260200182606001518152602001848152602001611f8085610a63565b600160a060020a03168152602001826080015181526020018260a0015181526020018260c001518152602001611fb585611c7e565b90529392505050565b604051806101200160405280600081526020016000815260200160008152602001600081526020016000600160a060020a03168152602001826080015181526020018260a001518152602001600067ffffffffffffffff81111561202457612024613067565b60405190808252806020026020018201604052801561206f57816020015b60408051606081018252600080825260208083018290529282015282526000199092019101816120425790505b508152604080516020818101909252600081529101529392505050565b6000600160e060020a031982167f780e9d630000000000000000000000000000000000000000000000000000000014806104f457506104f48261242e565b6000806120d683610a63565b905080600160a060020a031684600160a060020a0316148061211d5750600160a060020a038082166000908152606a602090815260408083209388168352929052205460ff165b80611d79575083600160a060020a03166121368461058c565b600160a060020a031614949350505050565b82600160a060020a031661215b82610a63565b600160a060020a0316146121845760405160e560020a62461bcd02815260040161064690613908565b600160a060020a0382166122025760405160e560020a62461bcd028152602060048201526024808201527f4552433732313a207472616e7366657220746f20746865207a65726f2061646460448201527f72657373000000000000000000000000000000000000000000000000000000006064820152608401610646565b61220f83838360016124c9565b82600160a060020a031661222282610a63565b600160a060020a03161461224b5760405160e560020a62461bcd02815260040161064690613908565b6000818152606960209081526040808320805473ffffffffffffffffffffffffffffffffffffffff19908116909155600160a060020a0387811680865260688552838620805460001901905590871680865283862080546001019055868652606790945282852080549092168417909155905184937fddf252ad1be2c89b69c2b068fc378daa952ba7f163c4a11628f55a4df523b3ef91a4505050565b6109a38282604051806020016040528060008152506124d5565b61230d848484612148565b6123198484848461250b565b61070f5760405160e560020a62461bcd02815260040161064690613965565b6110c181612641565b600054610100900460ff1661236b5760405160e560020a62461bcd0281526004016106469061387c565b606561237783826136ff565b5060666106ea82826136ff565b600054610100900460ff166123ae5760405160e560020a62461bcd0281526004016106469061387c565b610d03336119e0565b606061015f80546105099061361e565b60606123d2826115bd565b60006123dc6123b7565b905060008151116123fc5760405180602001604052806000815250612427565b8061240684612681565b6040516020016124179291906138d9565b6040516020818303038152906040525b9392505050565b6000600160e060020a031982167f80ac58cd0000000000000000000000000000000000000000000000000000000014806124915750600160e060020a031982167f5b5e139f00000000000000000000000000000000000000000000000000000000145b806104f457507f01ffc9a700000000000000000000000000000000000000000000000000000000600160e060020a03198316146104f4565b61070f84848484612721565b6124df8383612859565b6124ec600084848461250b565b6106ea5760405160e560020a62461bcd02815260040161064690613965565b6000600160a060020a0384163b15612636576040517f150b7a02000000000000000000000000000000000000000000000000000000008152600160a060020a0385169063150b7a02906125689033908990889088906004016139c2565b6020604051808303816000875af19250505080156125a3575060408051601f3d908101601f191682019092526125a0918101906139f4565b60015b612603573d8080156125d1576040519150601f19603f3d011682016040523d82523d6000602084013e6125d6565b606091505b5080516000036125fb5760405160e560020a62461bcd02815260040161064690613965565b805181602001fd5b600160e060020a0319167f150b7a0200000000000000000000000000000000000000000000000000000000149050611d79565b506001949350505050565b61264a81612a08565b600081815260c96020526040902080546126639061361e565b1590506110c157600081815260c9602052604081206110c191612dca565b6060600061268e83612ab8565b600101905060008167ffffffffffffffff8111156126ae576126ae613067565b6040519080825280601f01601f1916602001820160405280156126d8576020820181803683370190505b5090508181016020015b600019017f3031323334353637383961626364656600000000000000000000000000000000600a86061a8153600a85049450846126e257509392505050565b600181111561279b5760405160e560020a62461bcd02815260206004820152603560248201527f455243373231456e756d657261626c653a20636f6e736563757469766520747260448201527f616e7366657273206e6f7420737570706f7274656400000000000000000000006064820152608401610646565b81600160a060020a0385166127f7576127f281609980546000838152609a60205260408120829055600182018355919091527f72a152ddfb8e864297c917af52ea6c1c68aead0fee1a62673fcc7e0c94979d000155565b61281a565b83600160a060020a031685600160a060020a03161461281a5761281a8582612b9a565b600160a060020a0384166128365761283181612c37565b610c4d565b84600160a060020a031684600160a060020a031614610c4d57610c4d8482612ce6565b600160a060020a0382166128b25760405160e560020a62461bcd02815260206004820181905260248201527f4552433732313a206d696e7420746f20746865207a65726f20616464726573736044820152606401610646565b600081815260676020526040902054600160a060020a03161561291a5760405160e560020a62461bcd02815260206004820152601c60248201527f4552433732313a20746f6b656e20616c7265616479206d696e746564000000006044820152606401610646565b6129286000838360016124c9565b600081815260676020526040902054600160a060020a0316156129905760405160e560020a62461bcd02815260206004820152601c60248201527f4552433732313a20746f6b656e20616c7265616479206d696e746564000000006044820152606401610646565b600160a060020a0382166000818152606860209081526040808320805460010190558483526067909152808220805473ffffffffffffffffffffffffffffffffffffffff19168417905551839291907fddf252ad1be2c89b69c2b068fc378daa952ba7f163c4a11628f55a4df523b3ef908290a45050565b6000612a1382610a63565b9050612a238160008460016124c9565b612a2c82610a63565b6000838152606960209081526040808320805473ffffffffffffffffffffffffffffffffffffffff19908116909155600160a060020a0385168085526068845282852080546000190190558785526067909352818420805490911690555192935084927fddf252ad1be2c89b69c2b068fc378daa952ba7f163c4a11628f55a4df523b3ef908390a45050565b6000807a184f03e93ff9f4daa797ed6e38ed64bf6a1f0100000000000000008310612b01577a184f03e93ff9f4daa797ed6e38ed64bf6a1f010000000000000000830492506040015b6d04ee2d6d415b85acef81000000008310612b2d576d04ee2d6d415b85acef8100000000830492506020015b662386f26fc100008310612b4b57662386f26fc10000830492506010015b6305f5e1008310612b63576305f5e100830492506008015b6127108310612b7757612710830492506004015b60648310612b89576064830492506002015b600a83106104f45760010192915050565b60006001612ba784610c54565b612bb1919061380c565b600083815260986020526040902054909150808214612c0457600160a060020a03841660009081526097602090815260408083208584528252808320548484528184208190558352609890915290208190555b506000918252609860209081526040808420849055600160a060020a039094168352609781528383209183525290812055565b609954600090612c499060019061380c565b6000838152609a602052604081205460998054939450909284908110612c7157612c7161365b565b906000526020600020015490508060998381548110612c9257612c9261365b565b6000918252602080832090910192909255828152609a90915260408082208490558582528120556099805480612cca57612cca613a11565b6001900381819060005260206000200160009055905550505050565b6000612cf183610c54565b600160a060020a039093166000908152609760209081526040808320868452825280832085905593825260989052919091209190915550565b828054828255906000526020600020908101928215612d65579160200282015b82811115612d65578235825591602001919060010190612d4a565b50612d71929150612e00565b5090565b604051806101200160405280600081526020016000815260200160008152602001600081526020016000600160a060020a03168152602001606081526020016060815260200160608152602001606081525090565b508054612dd69061361e565b6000825580601f10612de6575050565b601f0160209004906000526020600020908101906110c191905b5b80821115612d715760008155600101612e01565b600160e060020a0319811681146110c157600080fd5b600060208284031215612e3d57600080fd5b813561242781612e15565b60005b83811015612e63578181015183820152602001612e4b565b50506000910152565b60008151808452612e84816020860160208601612e48565b601f01601f19169290920160200192915050565b6020815260006124276020830184612e6c565b600060208284031215612ebd57600080fd5b5035919050565b8035600160a060020a0381168114612edb57600080fd5b919050565b60008060408385031215612ef357600080fd5b612efc83612ec4565b946020939093013593505050565b600080600060608486031215612f1f57600080fd5b612f2884612ec4565b9250612f3660208501612ec4565b9150604084013590509250925092565b60008083601f840112612f5857600080fd5b50813567ffffffffffffffff811115612f7057600080fd5b6020830191508360208083028501011115612f8a57600080fd5b9250929050565b60008083601f840112612fa357600080fd5b50813567ffffffffffffffff811115612fbb57600080fd5b602083019150836020828501011115612f8a57600080fd5b600080600080600080600060a0888a031215612fee57600080fd5b612ff788612ec4565b96506020880135955060408801359450606088013567ffffffffffffffff8082111561302257600080fd5b61302e8b838c01612f46565b909650945060808a013591508082111561304757600080fd5b506130548a828b01612f91565b989b979a50959850939692959293505050565b60e060020a634e487b7102600052604160045260246000fd5b600067ffffffffffffffff8084111561309b5761309b613067565b604051601f8501601f19908116603f011681019082821181831017156130c3576130c3613067565b816040528093508581528686860111156130dc57600080fd5b858560208301376000602087830101525050509392505050565b600082601f83011261310757600080fd5b61242783833560208501613080565b60006020828403121561312857600080fd5b813567ffffffffffffffff81111561313f57600080fd5b611d79848285016130f6565b60008060006040848603121561316057600080fd5b83359250602084013567ffffffffffffffff81111561317e57600080fd5b61318a86828701612f46565b9497909650939450505050565b6000602082840312156131a957600080fd5b61242782612ec4565b600080600080600080600060a0888a0312156131cd57600080fd5b873596506020880135955060408801359450606088013567ffffffffffffffff808211156131fa57600080fd5b6132068b838c01612f46565b909650945060808a013591508082111561321f57600080fd5b506130548a828b01612f46565b60008060006040848603121561324157600080fd5b83359250602084013567ffffffffffffffff81111561325f57600080fd5b61318a86828701612f91565b6000806040838503121561327e57600080fd5b61328783612ec4565b91506020830135801515811461329c57600080fd5b809150509250929050565b600080600080600060a086880312156132bf57600080fd5b6132c886612ec4565b9450602086013567ffffffffffffffff8111156132e457600080fd5b6132f0888289016130f6565b959895975050505060408401359360608101359360809091013592509050565b6000806000806080858703121561332657600080fd5b61332f85612ec4565b935061333d60208601612ec4565b925060408501359150606085013567ffffffffffffffff81111561336057600080fd5b8501601f8101871361337157600080fd5b61338087823560208401613080565b91505092959194509250565b60008060008060008060a087890312156133a557600080fd5b86359550602087013594506040870135935060608701359250608087013567ffffffffffffffff8111156133d857600080fd5b6133e489828a01612f91565b979a9699509497509295939492505050565b600081518084526020808501945080840160005b838110156134265781518752958201959082019060010161340a565b509495945050505050565b60e060020a634e487b7102600052602160045260246000fd5b60008151808452602080850194508084016000805b848110156134b9578251600160a060020a03815116895284810151600681106134995760e060020a634e487b710284526021600452602484fd5b89860152604090810151908901526060909701969183019160010161345f565b50959695505050505050565b60006101208251845260208301516020850152604083015160408501526060830151606085015260808301516135066080860182600160a060020a03169052565b5060a08301518160a086015261351e828601826133f6565b91505060c083015184820360c086015261353882826133f6565b91505060e083015184820360e0860152613552828261344a565b915050610100808401518583038287015261356d8382612e6c565b9695505050505050565b600060208083018184528085518083526040860191506040848202870101925083870160005b828110156135cb57603f198886030184526135b98583516134c5565b9450928501929085019060010161359d565b5092979650505050505050565b600080604083850312156135eb57600080fd5b6135f483612ec4565b915061360260208401612ec4565b90509250929050565b60208152600061242760208301846134c5565b60028104600182168061363257607f821691505b6020821081036136555760e060020a634e487b7102600052602260045260246000fd5b50919050565b60e060020a634e487b7102600052603260045260246000fd5b60e060020a634e487b7102600052601160045260246000fd5b808201808211156104f4576104f4613674565b6000600182016136b2576136b2613674565b5060010190565b601f8211156106ea576000818152602081206020601f860104810160208610156136e05750805b6020601f860104820191505b81811015611137578281556001016136ec565b815167ffffffffffffffff81111561371957613719613067565b61372d81613727845461361e565b846136b9565b602080601f831160018114613766576000841561374a5750858301515b60028086026008870290910a6000190419821617865550611137565b600085815260208120601f198616915b8281101561379557888601518255948401946001909101908401613776565b50858210156137b557878501516008601f88160260020a60001904191681555b5050505050600202600101905550565b6000808335601e198436030181126137dc57600080fd5b83018035915067ffffffffffffffff8211156137f757600080fd5b602001915036819003821315612f8a57600080fd5b818103818111156104f4576104f4613674565b6020808252602d908201527f4552433732313a2063616c6c6572206973206e6f7420746f6b656e206f776e6560408201527f72206f7220617070726f76656400000000000000000000000000000000000000606082015260800190565b6020808252602b908201527f496e697469616c697a61626c653a20636f6e7472616374206973206e6f74206960408201527f6e697469616c697a696e67000000000000000000000000000000000000000000606082015260800190565b600083516138eb818460208801612e48565b8351908301906138ff818360208801612e48565b01949350505050565b60208082526025908201527f4552433732313a207472616e736665722066726f6d20696e636f72726563742060408201527f6f776e6572000000000000000000000000000000000000000000000000000000606082015260800190565b60208082526032908201527f4552433732313a207472616e7366657220746f206e6f6e20455243373231526560408201527f63656976657220696d706c656d656e7465720000000000000000000000000000606082015260800190565b6000600160a060020a0380871683528086166020840152508360408301526080606083015261356d6080830184612e6c565b600060208284031215613a0657600080fd5b815161242781612e15565b60e060020a634e487b7102600052603160045260246000fdfea26469706673582212205cdd642ed0d95b57b116f31d3e405baad0858ebd868f6fedc8163af944507ad964736f6c63430008110033",
  "linkReferences": {},
  "deployedLinkReferences": {}
}