{"contracts/AssetTraceabilityV2.sol":{"AssetTraceabilityV2":{"abi":[{"inputs":[{"internalType":"uint256","name":"id","type":"uint256"}],"name":"InvalidCaller","type":"error"},{"inputs":[{"internalType":"uint256","name":"expectedAmount","type":"uint256"},{"internalType":"uint256","name":"gotAmount","type":"uint256"}],"name":"NotMatchingAmount","type":"error"},{"inputs":[{"internalType":"uint256","name":"length1","type":"uint256"},{"internalType":"uint256","name":"length2","type":"uint256"}],"name":"NotMatchingArrays","type":"error"},{"inputs":[{"internalType":"uint256","name":"id","type":"uint256"}],"name":"TokenAlreadyUsed","type":"error"},{"anonymous":false,"inputs":[{"indexed":true,"internalType":"address","name":"owner","type":"address"},{"indexed":true,"internalType":"address","name":"approved","type":"address"},{"indexed":true,"internalType":"uint256","name":"tokenId","type":"uint256"}],"name":"Approval","type":"event"},{"anonymous":false,"inputs":[{"indexed":true,"internalType":"address","name":"owner","type":"address"},{"indexed":true,"internalType":"address","name":"operator","type":"address"},{"indexed":false,"internalType":"bool","name":"approved","type":"bool"}],"name":"ApprovalForAll","type":"event"},{"anonymous":false,"inputs":[{"indexed":false,"internalType":"uint256","name":"_fromTokenId","type":"uint256"},{"indexed":false,"internalType":"uint256","name":"_toTokenId","type":"uint256"}],"name":"BatchMetadataUpdate","type":"event"},{"anonymous":false,"inputs":[{"indexed":false,"internalType":"uint8","name":"version","type":"uint8"}],"name":"Initialized","type":"event"},{"anonymous":false,"inputs":[{"indexed":false,"internalType":"uint256","name":"_tokenId","type":"uint256"}],"name":"MetadataUpdate","type":"event"},{"anonymous":false,"inputs":[{"indexed":true,"internalType":"address","name":"previousOwner","type":"address"},{"indexed":true,"internalType":"address","name":"newOwner","type":"address"}],"name":"OwnershipTransferred","type":"event"},{"anonymous":false,"inputs":[{"indexed":true,"internalType":"address","name":"from","type":"address"},{"indexed":true,"internalType":"address","name":"to","type":"address"},{"indexed":true,"internalType":"uint256","name":"tokenId","type":"uint256"}],"name":"Transfer","type":"event"},{"inputs":[{"internalType":"uint256","name":"id","type":"uint256"},{"internalType":"uint256[]","name":"toMerge","type":"uint256[]"}],"name":"add","outputs":[],"stateMutability":"nonpayable","type":"function"},{"inputs":[{"internalType":"address","name":"to","type":"address"},{"internalType":"uint256","name":"tokenId","type":"uint256"}],"name":"approve","outputs":[],"stateMutability":"nonpayable","type":"function"},{"inputs":[{"internalType":"address","name":"owner","type":"address"}],"name":"balanceOf","outputs":[{"internalType":"uint256","name":"","type":"uint256"}],"stateMutability":"view","type":"function"},{"inputs":[{"internalType":"uint256","name":"tokenId","type":"uint256"}],"name":"burn","outputs":[],"stateMutability":"nonpayable","type":"function"},{"inputs":[{"internalType":"uint256","name":"id","type":"uint256"},{"internalType":"string","name":"_uri","type":"string"}],"name":"editMetadata","outputs":[],"stateMutability":"nonpayable","type":"function"},{"inputs":[{"internalType":"uint256","name":"tokenId","type":"uint256"}],"name":"getApproved","outputs":[{"internalType":"address","name":"","type":"address"}],"stateMutability":"view","type":"function"},{"inputs":[{"internalType":"uint256","name":"tokenId","type":"uint256"}],"name":"getAsset","outputs":[{"components":[{"internalType":"uint256","name":"amount","type":"uint256"},{"internalType":"uint256","name":"_type","type":"uint256"},{"internalType":"uint256","name":"groupId","type":"uint256"},{"internalType":"uint256","name":"tokenId","type":"uint256"},{"internalType":"address","name":"owner","type":"address"},{"internalType":"uint256[]","name":"parents","type":"uint256[]"},{"internalType":"uint256[]","name":"children","type":"uint256[]"},{"components":[{"internalType":"address","name":"author","type":"address"},{"internalType":"enum AssetTraceability.OperationType","name":"reason","type":"uint8"},{"internalType":"uint256","name":"timestamp","type":"uint256"}],"internalType":"struct AssetTraceability.LogItem[]","name":"changes","type":"tuple[]"},{"internalType":"string","name":"uri","type":"string"}],"internalType":"struct AssetTraceability.AssetResult","name":"","type":"tuple"}],"stateMutability":"view","type":"function"},{"inputs":[],"name":"getBaseURI","outputs":[{"internalType":"string","name":"","type":"string"}],"stateMutability":"pure","type":"function"},{"inputs":[{"internalType":"uint256","name":"_groupId","type":"uint256"}],"name":"getGroup","outputs":[{"components":[{"internalType":"uint256","name":"amount","type":"uint256"},{"internalType":"uint256","name":"_type","type":"uint256"},{"internalType":"uint256","name":"groupId","type":"uint256"},{"internalType":"uint256","name":"tokenId","type":"uint256"},{"internalType":"address","name":"owner","type":"address"},{"internalType":"uint256[]","name":"parents","type":"uint256[]"},{"internalType":"uint256[]","name":"children","type":"uint256[]"},{"components":[{"internalType":"address","name":"author","type":"address"},{"internalType":"enum AssetTraceability.OperationType","name":"reason","type":"uint8"},{"internalType":"uint256","name":"timestamp","type":"uint256"}],"internalType":"struct AssetTraceability.LogItem[]","name":"changes","type":"tuple[]"},{"internalType":"string","name":"uri","type":"string"}],"internalType":"struct AssetTraceability.AssetResult[]","name":"","type":"tuple[]"}],"stateMutability":"view","type":"function"},{"inputs":[],"name":"initialize","outputs":[],"stateMutability":"nonpayable","type":"function"},{"inputs":[{"internalType":"address","name":"owner","type":"address"},{"internalType":"address","name":"operator","type":"address"}],"name":"isApprovedForAll","outputs":[{"internalType":"bool","name":"","type":"bool"}],"stateMutability":"view","type":"function"},{"inputs":[],"name":"name","outputs":[{"internalType":"string","name":"","type":"string"}],"stateMutability":"view","type":"function"},{"inputs":[],"name":"owner","outputs":[{"internalType":"address","name":"","type":"address"}],"stateMutability":"view","type":"function"},{"inputs":[{"internalType":"uint256","name":"tokenId","type":"uint256"}],"name":"ownerOf","outputs":[{"internalType":"address","name":"","type":"address"}],"stateMutability":"view","type":"function"},{"inputs":[{"internalType":"address","name":"_to","type":"address"},{"internalType":"string","name":"_uri","type":"string"},{"internalType":"uint256","name":"_amount","type":"uint256"},{"internalType":"uint256","name":"_type","type":"uint256"},{"internalType":"uint256","name":"_groupId","type":"uint256"}],"name":"register","outputs":[],"stateMutability":"nonpayable","type":"function"},{"inputs":[],"name":"renounceOwnership","outputs":[],"stateMutability":"nonpayable","type":"function"},{"inputs":[{"internalType":"address","name":"from","type":"address"},{"internalType":"address","name":"to","type":"address"},{"internalType":"uint256","name":"tokenId","type":"uint256"}],"name":"safeTransferFrom","outputs":[],"stateMutability":"nonpayable","type":"function"},{"inputs":[{"internalType":"address","name":"from","type":"address"},{"internalType":"address","name":"to","type":"address"},{"internalType":"uint256","name":"tokenId","type":"uint256"},{"internalType":"bytes","name":"data","type":"bytes"}],"name":"safeTransferFrom","outputs":[],"stateMutability":"nonpayable","type":"function"},{"inputs":[{"internalType":"address","name":"operator","type":"address"},{"internalType":"bool","name":"approved","type":"bool"}],"name":"setApprovalForAll","outputs":[],"stateMutability":"nonpayable","type":"function"},{"inputs":[{"internalType":"string","name":"_baseuri","type":"string"}],"name":"setBaseURI","outputs":[],"stateMutability":"nonpayable","type":"function"},{"inputs":[{"internalType":"uint256","name":"id","type":"uint256"},{"internalType":"uint256","name":"_type","type":"uint256"},{"internalType":"uint256","name":"_groupId","type":"uint256"},{"internalType":"uint256[]","name":"amounts","type":"uint256[]"},{"internalType":"string[]","name":"uris","type":"string[]"}],"name":"splitDifferent","outputs":[],"stateMutability":"nonpayable","type":"function"},{"inputs":[{"internalType":"uint256","name":"id","type":"uint256"},{"internalType":"uint256","name":"_type","type":"uint256"},{"internalType":"uint256","name":"_groupId","type":"uint256"},{"internalType":"uint256","name":"amount","type":"uint256"},{"internalType":"string","name":"uri","type":"string"}],"name":"splitSame","outputs":[],"stateMutability":"nonpayable","type":"function"},{"inputs":[{"internalType":"bytes4","name":"interfaceId","type":"bytes4"}],"name":"supportsInterface","outputs":[{"internalType":"bool","name":"","type":"bool"}],"stateMutability":"view","type":"function"},{"inputs":[],"name":"symbol","outputs":[{"internalType":"string","name":"","type":"string"}],"stateMutability":"view","type":"function"},{"inputs":[{"internalType":"uint256","name":"index","type":"uint256"}],"name":"tokenByIndex","outputs":[{"internalType":"uint256","name":"","type":"uint256"}],"stateMutability":"view","type":"function"},{"inputs":[{"internalType":"address","name":"owner","type":"address"},{"internalType":"uint256","name":"index","type":"uint256"}],"name":"tokenOfOwnerByIndex","outputs":[{"internalType":"uint256","name":"","type":"uint256"}],"stateMutability":"view","type":"function"},{"inputs":[{"internalType":"uint256","name":"tokenId","type":"uint256"}],"name":"tokenURI","outputs":[{"internalType":"string","name":"","type":"string"}],"stateMutability":"view","type":"function"},{"inputs":[],"name":"totalSupply","outputs":[{"internalType":"uint256","name":"","type":"uint256"}],"stateMutability":"view","type":"function"},{"inputs":[{"internalType":"address","name":"from","type":"address"},{"internalType":"address","name":"to","type":"address"},{"internalType":"uint256","name":"tokenId","type":"uint256"}],"name":"transferFrom","outputs":[],"stateMutability":"nonpayable","type":"function"},{"inputs":[{"internalType":"address","name":"newOwner","type":"address"}],"name":"transferOwnership","outputs":[],"stateMutability":"nonpayable","type":"function"},{"inputs":[{"internalType":"uint256","name":"id","type":"uint256"},{"internalType":"uint256","name":"_amount","type":"uint256"},{"internalType":"uint256","name":"_type","type":"uint256"},{"internalType":"uint256","name":"_groupId","type":"uint256"},{"internalType":"string","name":"_uri","type":"string"}],"name":"transform","outputs":[],"stateMutability":"nonpayable","type":"function"},{"inputs":[{"internalType":"address","name":"_to","type":"address"},{"internalType":"uint256","name":"_type","type":"uint256"},{"internalType":"uint256","name":"_groupId","type":"uint256"},{"internalType":"uint256[]","name":"merged","type":"uint256[]"},{"internalType":"string","name":"_uri","type":"string"}],"name":"union","outputs":[],"stateMutability":"nonpayable","type":"function"}],"evm":{"bytecode":{"linkReferences":{},"object":"608060405234801561001057600080fd5b50613a60806100206000396000f3fe608060405234801561001057600080fd5b506004361061020d576000357c010000000000000000000000000000000000000000000000000000000090048063715018a61161012c578063b88d4fde116100bf578063e428e0101161008e578063e428e01014610467578063e985e9c51461047a578063eac8f5b8146104b6578063f2fde38b146104d657600080fd5b8063b88d4fde1461040e578063c152f72814610421578063c87b56dd14610434578063ceb606541461044757600080fd5b80638da5cb5b116100fb5780638da5cb5b146103ce57806395d89b41146103e0578063a22cb465146103e8578063a231bdf8146103fb57600080fd5b8063715018a61461039857806377f83471146103a05780638129fc1c146103b357806383219a8a146103bb57600080fd5b806342842e0e116101a45780636352211e116101735780636352211e1461032657806365260be41461033957806370a082311461034c578063714c53981461035f57600080fd5b806342842e0e146102da57806342966c68146102ed5780634f6ccce71461030057806355f804b31461031357600080fd5b806318160ddd116101e057806318160ddd1461028f57806323b872dd146102a15780632f745c59146102b45780633bd74985146102c757600080fd5b806301ffc9a71461021257806306fdde031461023a578063081812fc1461024f578063095ea7b31461027a575b600080fd5b610225610220366004612e2b565b6104e9565b60405190151581526020015b60405180910390f35b6102426104fa565b6040516102319190612e98565b61026261025d366004612eab565b61058c565b604051600160a060020a039091168152602001610231565b61028d610288366004612ee0565b6105b3565b005b6099545b604051908152602001610231565b61028d6102af366004612f0a565b6106ef565b6102936102c2366004612ee0565b610715565b61028d6102d5366004612fd3565b6107c0565b61028d6102e8366004612f0a565b610960565b61028d6102fb366004612eab565b610990565b61029361030e366004612eab565b6109a7565b61028d610321366004613116565b610a4e565b610262610334366004612eab565b610a63565b61028d61034736600461314b565b610acb565b61029361035a366004613197565b610c54565b60408051808201909152600281527f76320000000000000000000000000000000000000000000000000000000000006020820152610242565b61028d610cf1565b61028d6103ae3660046131b2565b610d05565b61028d610ef7565b61028d6103c936600461322c565b6110c4565b61012d54600160a060020a0316610262565b61024261110e565b61028d6103f636600461326b565b61111d565b61028d6104093660046132a7565b611128565b61028d61041c366004613310565b61113f565b61028d61042f36600461338c565b611160565b610242610442366004612eab565b6112b8565b61045a610455366004612eab565b6112c3565b6040516102319190613577565b61028d61047536600461338c565b611420565b6102256104883660046135d8565b600160a060020a039182166000908152606a6020908152604080832093909416825291909152205460ff1690565b6104c96104c4366004612eab565b6114de565b604051610231919061360b565b61028d6104e4366004613197565b6114ef565b60006104f48261157f565b92915050565b6060606580546105099061361e565b80601f01602080910402602001604051908101604052809291908181526020018280546105359061361e565b80156105825780601f1061055757610100808354040283529160200191610582565b820191906000526020600020905b81548152906001019060200180831161056557829003601f168201915b5050505050905090565b6000610597826115bd565b50600090815260696020526040902054600160a060020a031690565b60006105be82610a63565b905080600160a060020a031683600160a060020a03160361064f5760405160e560020a62461bcd02815260206004820152602160248201527f4552433732313a20617070726f76616c20746f2063757272656e74206f776e6560448201527f720000000000000000000000000000000000000000000000000000000000000060648201526084015b60405180910390fd5b33600160a060020a038216148061066b575061066b8133610488565b6106e05760405160e560020a62461bcd02815260206004820152603d60248201527f4552433732313a20617070726f76652063616c6c6572206973206e6f7420746f60448201527f6b656e206f776e6572206f7220617070726f76656420666f7220616c6c0000006064820152608401610646565b6106ea8383611624565b505050565b806106f98161169f565b610704826005611739565b61070f848484611825565b50505050565b600061072083610c54565b82106107975760405160e560020a62461bcd02815260206004820152602b60248201527f455243373231456e756d657261626c653a206f776e657220696e646578206f7560448201527f74206f6620626f756e64730000000000000000000000000000000000000000006064820152608401610646565b50600160a060020a03919091166000908152609760209081526040808320938352929052205490565b6000805b84811015610884576107ed8686838181106107e1576107e161365b565b9050602002013561169f565b600161016360008888858181106108065761080661365b565b90506020020135815260200190815260200160002060000160006101000a81548160ff021916908315150217905550610163600087878481811061084c5761084c61365b565b9050602002013581526020019081526020016000206001015482610870919061368d565b91508061087c816136a0565b9150506107c4565b5060006108ce8985858080601f0160208091040260200160405190810160405280939291908181526020018383808284376000920191909152508792508d91508c90506003611858565b6000818152610163602052604090209091506108ee906004018787612d2a565b5060005b858110156109545761016360008888848181106109115761091161365b565b602090810292909201358352508181019290925260400160009081206005018054600181018255908252919020018290558061094c816136a0565b9150506108f2565b50505050505050505050565b8061096a8161169f565b610975826005611739565b61070f8484846040518060200160405280600081525061191c565b8061099a8161169f565b6109a382611951565b5050565b60006109b260995490565b8210610a295760405160e560020a62461bcd02815260206004820152602c60248201527f455243373231456e756d657261626c653a20676c6f62616c20696e646578206f60448201527f7574206f6620626f756e647300000000000000000000000000000000000000006064820152608401610646565b60998281548110610a3c57610a3c61365b565b90600052602060002001549050919050565b610a56611982565b61015f6109a382826136ff565b600081815260676020526040812054600160a060020a0316806104f45760405160e560020a62461bcd02815260206004820152601860248201527f4552433732313a20696e76616c696420746f6b656e20494400000000000000006044820152606401610646565b82610ad58161169f565b60008481526101636020526040812060010154905b83811015610c2a57610b078585838181106107e1576107e161365b565b60016101636000878785818110610b2057610b2061365b565b90506020020135815260200190815260200160002060000160006101000a81548160ff0219169083151502179055506101636000868684818110610b6657610b6661365b565b9050602002013581526020019081526020016000206001015482610b8a919061368d565b91506101636000868684818110610ba357610ba361365b565b6020908102929092013583525081810192909252604090810160009081206005018054600181018255908252838220018990558881526101639092529020600401858583818110610bf657610bf661365b565b8354600181018555600094855260209485902091909402929092013591909201555080610c22816136a0565b915050610aea565b506000858152610163602052604090206001908101829055610c4d908690611739565b5050505050565b6000600160a060020a038216610cd55760405160e560020a62461bcd02815260206004820152602960248201527f4552433732313a2061646472657373207a65726f206973206e6f74206120766160448201527f6c6964206f776e657200000000000000000000000000000000000000000000006064820152608401610646565b50600160a060020a031660009081526068602052604090205490565b610cf9611982565b610d0360006119e0565b565b86610d0f8161169f565b838214610d52576040517f69e657b40000000000000000000000000000000000000000000000000000000081526004810185905260248101839052604401610646565b6000610d5d89610a63565b90506000805b86811015610e6657878782818110610d7d57610d7d61365b565b9050602002013582610d8f919061368d565b91506000610e1484888885818110610da957610da961365b565b9050602002810190610dbb91906137c5565b8080601f0160208091040260200160405190810160405280939291908181526020018383808284376000920191909152508e92508d9150879050818110610e0457610e0461365b565b905060200201358e8e6002611858565b60008d8152610163602090815260408083206005018054600181810183559185528385200185905593835282206004018054938401815582529020018c90555080610e5e816136a0565b915050610d63565b5060008a815261016360205260409020600101548114610ed15760008a81526101636020526040908190206001015490517ff572090d000000000000000000000000000000000000000000000000000000008152600481019190915260248101829052604401610646565b5050506000968752505061016360205250506040909220805460ff191660011790555050565b600054610100900460ff1615808015610f175750600054600160ff909116105b80610f315750303b158015610f31575060005460ff166001145b610fa65760405160e560020a62461bcd02815260206004820152602e60248201527f496e697469616c697a61626c653a20636f6e747261637420697320616c72656160448201527f647920696e697469616c697a65640000000000000000000000000000000000006064820152608401610646565b6000805460ff191660011790558015610fc9576000805461ff0019166101001790555b61103d6040518060400160405280601181526020017f417373657454726163656162696c6974790000000000000000000000000000008152506040518060400160405280600281526020017f4154000000000000000000000000000000000000000000000000000000000000815250611a40565b611045611a74565b61104d611a74565b611055611a74565b61105d611a9e565b60408051602081019091526000815261015f9061107a90826136ff565b5080156110c1576000805461ff0019169055604051600181527f7f26b83ff96e1f2b6a682f133852f6798a09c465da95921460cefb38474024989060200160405180910390a15b50565b826110ce8161169f565b61070f8484848080601f016020809104026020016040519081016040528093929190818152602001838380828437600092019190915250611ad092505050565b6060606680546105099061361e565b6109a3338383611bad565b61113785858585856000611858565b505050505050565b816111498161169f565b611154836005611739565b610c4d8585858561191c565b8561116a8161169f565b600061117588610a63565b600089815261016360205260409020600101549091505b80156112935760006111db8387878080601f0160208091040260200160405190810160405280939291908181526020018383808284376000920191909152508c92508e91508d90506002611858565b60008b815261016360209081526040808320600501805460018181018355918552838520018590558484529083206004018054918201815583529120018b905590508682106112355761122e878361380c565b915061128d565b60008a81526101636020526040902060010154611252838261380c565b6040517ff572090d00000000000000000000000000000000000000000000000000000000815260048101929092526024820152604401610646565b5061118c565b5050506000958652505061016360205250506040909120805460ff1916600117905550565b60606104f482611c7e565b60008181526101626020908152604080832080548251818502810185019093528083526060949383018282801561131957602002820191906000526020600020905b815481526020019060010190808311611305575b505050505090506000815111156113e8576000815167ffffffffffffffff81111561134657611346613067565b60405190808252806020026020018201604052801561137f57816020015b61136c612d75565b8152602001906001900390816113645790505b50905060005b82518110156113e0576113b08382815181106113a3576113a361365b565b6020026020010151611d81565b8282815181106113c2576113c261365b565b602002602001018190525080806113d8906136a0565b915050611385565b509392505050565b60408051600080825260208201909252906113e0565b611406612d75565b8152602001906001900390816113fe579050509392505050565b8561142a8161169f565b600087815261016360205260408120805460ff1916600117905561149361145089610a63565b85858080601f0160208091040260200160405190810160405280939291908181526020018383808284376000920191909152508c92508b91508a90506004611858565b600081815261016360209081526040808320600401805460018181018355918552838520018d90559b8352822060050180549b8c018155825290209098019790975550505050505050565b6114e6612d75565b6104f482611d81565b6114f7611982565b600160a060020a0381166115765760405160e560020a62461bcd02815260206004820152602660248201527f4f776e61626c653a206e6577206f776e657220697320746865207a65726f206160448201527f64647265737300000000000000000000000000000000000000000000000000006064820152608401610646565b6110c1816119e0565b6000600160e060020a031982167f490649060000000000000000000000000000000000000000000000000000000014806104f457506104f48261208c565b600081815260676020526040902054600160a060020a03166110c15760405160e560020a62461bcd02815260206004820152601860248201527f4552433732313a20696e76616c696420746f6b656e20494400000000000000006044820152606401610646565b6000818152606960205260409020805473ffffffffffffffffffffffffffffffffffffffff1916600160a060020a038416908117909155819061166682610a63565b600160a060020a03167f8c5be1e5ebec7d5bd14f71427d1e84f3dd0314c0f7b2291e5b200ac8c7c3b92560405160405180910390a45050565b6116a8816115bd565b6116b3335b826120ca565b6116ec576040517f03ea3c1c00000000000000000000000000000000000000000000000000000000815260048101829052602401610646565b6000818152610163602052604090205460ff16156110c1576040517fccd934e100000000000000000000000000000000000000000000000000000000815260048101829052602401610646565b6000828152610163602052604090819020815160608101909252600601908033600160a060020a0316815260200183600581111561177957611779613431565b815242602091820152825460018101845560009384529281902082516002909402018054600160a060020a0390941673ffffffffffffffffffffffffffffffffffffffff19851681178255918301519293909291839174ffffffffffffffffffffffffffffffffffffffffff1916177401000000000000000000000000000000000000000083600581111561181057611810613431565b02179055506040820151816001015550505050565b61182e336116ad565b61184d5760405160e560020a62461bcd0281526004016106469061381f565b6106ea838383612148565b6000806118656101605490565b905061187661016080546001019055565b61188088826122e8565b61188a8188611ad0565b600081815261016360205260409020805460ff1916815560018101879055600281018690556003018490556118bf8184611739565b84156118e857600085815261016160209081526040822080546001810182559083529120018190555b831561191157600084815261016260209081526040822080546001810182559083529120018190555b979650505050505050565b61192633836120ca565b6119455760405160e560020a62461bcd0281526004016106469061381f565b61070f84848484612302565b61195a336116ad565b6119795760405160e560020a62461bcd0281526004016106469061381f565b6110c181612338565b61012d54600160a060020a03163314610d035760405160e560020a62461bcd02815260206004820181905260248201527f4f776e61626c653a2063616c6c6572206973206e6f7420746865206f776e65726044820152606401610646565b61012d8054600160a060020a0383811673ffffffffffffffffffffffffffffffffffffffff19831681179093556040519116919082907f8be0079c531659141344cd1fd0a4f28419497f9722a3daafe3b4186f6b6457e090600090a35050565b600054610100900460ff16611a6a5760405160e560020a62461bcd0281526004016106469061387c565b6109a38282612341565b600054610100900460ff16610d035760405160e560020a62461bcd0281526004016106469061387c565b600054610100900460ff16611ac85760405160e560020a62461bcd0281526004016106469061387c565b610d03612384565b600082815260676020526040902054600160a060020a0316611b5d5760405160e560020a62461bcd02815260206004820152602e60248201527f45524337323155524953746f726167653a2055524920736574206f66206e6f6e60448201527f6578697374656e7420746f6b656e0000000000000000000000000000000000006064820152608401610646565b600082815260c960205260409020611b7582826136ff565b506040518281527ff8e1a15aba9398e019f0b49df1a4fde98ee17ae345cb5f6b5e2c27f5033e8ce79060200160405180910390a15050565b81600160a060020a031683600160a060020a031603611c115760405160e560020a62461bcd02815260206004820152601960248201527f4552433732313a20617070726f766520746f2063616c6c6572000000000000006044820152606401610646565b600160a060020a038381166000818152606a6020908152604080832094871680845294825291829020805460ff191686151590811790915591519182527f17307eab39ab6107e8899845ad3d59bd9653f200f220920489ca2b5937696c31910160405180910390a3505050565b6060611c89826115bd565b600082815260c9602052604081208054611ca29061361e565b80601f0160208091040260200160405190810160405280929190818152602001828054611cce9061361e565b8015611d1b5780601f10611cf057610100808354040283529160200191611d1b565b820191906000526020600020905b815481529060010190602001808311611cfe57829003601f168201915b505050505090506000611d2c6123b7565b90508051600003611d3e575092915050565b815115611d70578082604051602001611d589291906138d9565b60405160208183030381529060405292505050919050565b611d79846123c7565b949350505050565b611d89612d75565b600082815261016360209081526040808320815160e081018352815460ff161515815260018201548185015260028201548184015260038201546060820152600482018054845181870281018701909552808552919492936080860193909290830182828015611e1857602002820191906000526020600020905b815481526020019060010190808311611e04575b5050505050815260200160058201805480602002602001604051908101604052809291908181526020018280548015611e7057602002820191906000526020600020905b815481526020019060010190808311611e5c575b5050505050815260200160068201805480602002602001604051908101604052809291908181526020016000905b82821015611f335760008481526020908190206040805160608101909152600285029091018054600160a060020a0381168352919290919083019074010000000000000000000000000000000000000000900460ff166005811115611f0557611f05613431565b6005811115611f1657611f16613431565b815260200160018201548152505081526020019060010190611e9e565b50505091525050602081015190915015611fbe57604051806101200160405280826020015181526020018260400151815260200182606001518152602001848152602001611f8085610a63565b600160a060020a03168152602001826080015181526020018260a0015181526020018260c001518152602001611fb585611c7e565b90529392505050565b604051806101200160405280600081526020016000815260200160008152602001600081526020016000600160a060020a03168152602001826080015181526020018260a001518152602001600067ffffffffffffffff81111561202457612024613067565b60405190808252806020026020018201604052801561206f57816020015b60408051606081018252600080825260208083018290529282015282526000199092019101816120425790505b508152604080516020818101909252600081529101529392505050565b6000600160e060020a031982167f780e9d630000000000000000000000000000000000000000000000000000000014806104f457506104f48261242e565b6000806120d683610a63565b905080600160a060020a031684600160a060020a0316148061211d5750600160a060020a038082166000908152606a602090815260408083209388168352929052205460ff165b80611d79575083600160a060020a03166121368461058c565b600160a060020a031614949350505050565b82600160a060020a031661215b82610a63565b600160a060020a0316146121845760405160e560020a62461bcd02815260040161064690613908565b600160a060020a0382166122025760405160e560020a62461bcd028152602060048201526024808201527f4552433732313a207472616e7366657220746f20746865207a65726f2061646460448201527f72657373000000000000000000000000000000000000000000000000000000006064820152608401610646565b61220f83838360016124c9565b82600160a060020a031661222282610a63565b600160a060020a03161461224b5760405160e560020a62461bcd02815260040161064690613908565b6000818152606960209081526040808320805473ffffffffffffffffffffffffffffffffffffffff19908116909155600160a060020a0387811680865260688552838620805460001901905590871680865283862080546001019055868652606790945282852080549092168417909155905184937fddf252ad1be2c89b69c2b068fc378daa952ba7f163c4a11628f55a4df523b3ef91a4505050565b6109a38282604051806020016040528060008152506124d5565b61230d848484612148565b6123198484848461250b565b61070f5760405160e560020a62461bcd02815260040161064690613965565b6110c181612641565b600054610100900460ff1661236b5760405160e560020a62461bcd0281526004016106469061387c565b606561237783826136ff565b5060666106ea82826136ff565b600054610100900460ff166123ae5760405160e560020a62461bcd0281526004016106469061387c565b610d03336119e0565b606061015f80546105099061361e565b60606123d2826115bd565b60006123dc6123b7565b905060008151116123fc5760405180602001604052806000815250612427565b8061240684612681565b6040516020016124179291906138d9565b6040516020818303038152906040525b9392505050565b6000600160e060020a031982167f80ac58cd0000000000000000000000000000000000000000000000000000000014806124915750600160e060020a031982167f5b5e139f00000000000000000000000000000000000000000000000000000000145b806104f457507f01ffc9a700000000000000000000000000000000000000000000000000000000600160e060020a03198316146104f4565b61070f84848484612721565b6124df8383612859565b6124ec600084848461250b565b6106ea5760405160e560020a62461bcd02815260040161064690613965565b6000600160a060020a0384163b15612636576040517f150b7a02000000000000000000000000000000000000000000000000000000008152600160a060020a0385169063150b7a02906125689033908990889088906004016139c2565b6020604051808303816000875af19250505080156125a3575060408051601f3d908101601f191682019092526125a0918101906139f4565b60015b612603573d8080156125d1576040519150601f19603f3d011682016040523d82523d6000602084013e6125d6565b606091505b5080516000036125fb5760405160e560020a62461bcd02815260040161064690613965565b805181602001fd5b600160e060020a0319167f150b7a0200000000000000000000000000000000000000000000000000000000149050611d79565b506001949350505050565b61264a81612a08565b600081815260c96020526040902080546126639061361e565b1590506110c157600081815260c9602052604081206110c191612dca565b6060600061268e83612ab8565b600101905060008167ffffffffffffffff8111156126ae576126ae613067565b6040519080825280601f01601f1916602001820160405280156126d8576020820181803683370190505b5090508181016020015b600019017f3031323334353637383961626364656600000000000000000000000000000000600a86061a8153600a85049450846126e257509392505050565b600181111561279b5760405160e560020a62461bcd02815260206004820152603560248201527f455243373231456e756d657261626c653a20636f6e736563757469766520747260448201527f616e7366657273206e6f7420737570706f7274656400000000000000000000006064820152608401610646565b81600160a060020a0385166127f7576127f281609980546000838152609a60205260408120829055600182018355919091527f72a152ddfb8e864297c917af52ea6c1c68aead0fee1a62673fcc7e0c94979d000155565b61281a565b83600160a060020a031685600160a060020a03161461281a5761281a8582612b9a565b600160a060020a0384166128365761283181612c37565b610c4d565b84600160a060020a031684600160a060020a031614610c4d57610c4d8482612ce6565b600160a060020a0382166128b25760405160e560020a62461bcd02815260206004820181905260248201527f4552433732313a206d696e7420746f20746865207a65726f20616464726573736044820152606401610646565b600081815260676020526040902054600160a060020a03161561291a5760405160e560020a62461bcd02815260206004820152601c60248201527f4552433732313a20746f6b656e20616c7265616479206d696e746564000000006044820152606401610646565b6129286000838360016124c9565b600081815260676020526040902054600160a060020a0316156129905760405160e560020a62461bcd02815260206004820152601c60248201527f4552433732313a20746f6b656e20616c7265616479206d696e746564000000006044820152606401610646565b600160a060020a0382166000818152606860209081526040808320805460010190558483526067909152808220805473ffffffffffffffffffffffffffffffffffffffff19168417905551839291907fddf252ad1be2c89b69c2b068fc378daa952ba7f163c4a11628f55a4df523b3ef908290a45050565b6000612a1382610a63565b9050612a238160008460016124c9565b612a2c82610a63565b6000838152606960209081526040808320805473ffffffffffffffffffffffffffffffffffffffff19908116909155600160a060020a0385168085526068845282852080546000190190558785526067909352818420805490911690555192935084927fddf252ad1be2c89b69c2b068fc378daa952ba7f163c4a11628f55a4df523b3ef908390a45050565b6000807a184f03e93ff9f4daa797ed6e38ed64bf6a1f0100000000000000008310612b01577a184f03e93ff9f4daa797ed6e38ed64bf6a1f010000000000000000830492506040015b6d04ee2d6d415b85acef81000000008310612b2d576d04ee2d6d415b85acef8100000000830492506020015b662386f26fc100008310612b4b57662386f26fc10000830492506010015b6305f5e1008310612b63576305f5e100830492506008015b6127108310612b7757612710830492506004015b60648310612b89576064830492506002015b600a83106104f45760010192915050565b60006001612ba784610c54565b612bb1919061380c565b600083815260986020526040902054909150808214612c0457600160a060020a03841660009081526097602090815260408083208584528252808320548484528184208190558352609890915290208190555b506000918252609860209081526040808420849055600160a060020a039094168352609781528383209183525290812055565b609954600090612c499060019061380c565b6000838152609a602052604081205460998054939450909284908110612c7157612c7161365b565b906000526020600020015490508060998381548110612c9257612c9261365b565b6000918252602080832090910192909255828152609a90915260408082208490558582528120556099805480612cca57612cca613a11565b6001900381819060005260206000200160009055905550505050565b6000612cf183610c54565b600160a060020a039093166000908152609760209081526040808320868452825280832085905593825260989052919091209190915550565b828054828255906000526020600020908101928215612d65579160200282015b82811115612d65578235825591602001919060010190612d4a565b50612d71929150612e00565b5090565b604051806101200160405280600081526020016000815260200160008152602001600081526020016000600160a060020a03168152602001606081526020016060815260200160608152602001606081525090565b508054612dd69061361e565b6000825580601f10612de6575050565b601f0160209004906000526020600020908101906110c191905b5b80821115612d715760008155600101612e01565b600160e060020a0319811681146110c157600080fd5b600060208284031215612e3d57600080fd5b813561242781612e15565b60005b83811015612e63578181015183820152602001612e4b565b50506000910152565b60008151808452612e84816020860160208601612e48565b601f01601f19169290920160200192915050565b6020815260006124276020830184612e6c565b600060208284031215612ebd57600080fd5b5035919050565b8035600160a060020a0381168114612edb57600080fd5b919050565b60008060408385031215612ef357600080fd5b612efc83612ec4565b946020939093013593505050565b600080600060608486031215612f1f57600080fd5b612f2884612ec4565b9250612f3660208501612ec4565b9150604084013590509250925092565b60008083601f840112612f5857600080fd5b50813567ffffffffffffffff811115612f7057600080fd5b6020830191508360208083028501011115612f8a57600080fd5b9250929050565b60008083601f840112612fa357600080fd5b50813567ffffffffffffffff811115612fbb57600080fd5b602083019150836020828501011115612f8a57600080fd5b600080600080600080600060a0888a031215612fee57600080fd5b612ff788612ec4565b96506020880135955060408801359450606088013567ffffffffffffffff8082111561302257600080fd5b61302e8b838c01612f46565b909650945060808a013591508082111561304757600080fd5b506130548a828b01612f91565b989b979a50959850939692959293505050565b60e060020a634e487b7102600052604160045260246000fd5b600067ffffffffffffffff8084111561309b5761309b613067565b604051601f8501601f19908116603f011681019082821181831017156130c3576130c3613067565b816040528093508581528686860111156130dc57600080fd5b858560208301376000602087830101525050509392505050565b600082601f83011261310757600080fd5b61242783833560208501613080565b60006020828403121561312857600080fd5b813567ffffffffffffffff81111561313f57600080fd5b611d79848285016130f6565b60008060006040848603121561316057600080fd5b83359250602084013567ffffffffffffffff81111561317e57600080fd5b61318a86828701612f46565b9497909650939450505050565b6000602082840312156131a957600080fd5b61242782612ec4565b600080600080600080600060a0888a0312156131cd57600080fd5b873596506020880135955060408801359450606088013567ffffffffffffffff808211156131fa57600080fd5b6132068b838c01612f46565b909650945060808a013591508082111561321f57600080fd5b506130548a828b01612f46565b60008060006040848603121561324157600080fd5b83359250602084013567ffffffffffffffff81111561325f57600080fd5b61318a86828701612f91565b6000806040838503121561327e57600080fd5b61328783612ec4565b91506020830135801515811461329c57600080fd5b809150509250929050565b600080600080600060a086880312156132bf57600080fd5b6132c886612ec4565b9450602086013567ffffffffffffffff8111156132e457600080fd5b6132f0888289016130f6565b959895975050505060408401359360608101359360809091013592509050565b6000806000806080858703121561332657600080fd5b61332f85612ec4565b935061333d60208601612ec4565b925060408501359150606085013567ffffffffffffffff81111561336057600080fd5b8501601f8101871361337157600080fd5b61338087823560208401613080565b91505092959194509250565b60008060008060008060a087890312156133a557600080fd5b86359550602087013594506040870135935060608701359250608087013567ffffffffffffffff8111156133d857600080fd5b6133e489828a01612f91565b979a9699509497509295939492505050565b600081518084526020808501945080840160005b838110156134265781518752958201959082019060010161340a565b509495945050505050565b60e060020a634e487b7102600052602160045260246000fd5b60008151808452602080850194508084016000805b848110156134b9578251600160a060020a03815116895284810151600681106134995760e060020a634e487b710284526021600452602484fd5b89860152604090810151908901526060909701969183019160010161345f565b50959695505050505050565b60006101208251845260208301516020850152604083015160408501526060830151606085015260808301516135066080860182600160a060020a03169052565b5060a08301518160a086015261351e828601826133f6565b91505060c083015184820360c086015261353882826133f6565b91505060e083015184820360e0860152613552828261344a565b915050610100808401518583038287015261356d8382612e6c565b9695505050505050565b600060208083018184528085518083526040860191506040848202870101925083870160005b828110156135cb57603f198886030184526135b98583516134c5565b9450928501929085019060010161359d565b5092979650505050505050565b600080604083850312156135eb57600080fd5b6135f483612ec4565b915061360260208401612ec4565b90509250929050565b60208152600061242760208301846134c5565b60028104600182168061363257607f821691505b6020821081036136555760e060020a634e487b7102600052602260045260246000fd5b50919050565b60e060020a634e487b7102600052603260045260246000fd5b60e060020a634e487b7102600052601160045260246000fd5b808201808211156104f4576104f4613674565b6000600182016136b2576136b2613674565b5060010190565b601f8211156106ea576000818152602081206020601f860104810160208610156136e05750805b6020601f860104820191505b81811015611137578281556001016136ec565b815167ffffffffffffffff81111561371957613719613067565b61372d81613727845461361e565b846136b9565b602080601f831160018114613766576000841561374a5750858301515b60028086026008870290910a6000190419821617865550611137565b600085815260208120601f198616915b8281101561379557888601518255948401946001909101908401613776565b50858210156137b557878501516008601f88160260020a60001904191681555b5050505050600202600101905550565b6000808335601e198436030181126137dc57600080fd5b83018035915067ffffffffffffffff8211156137f757600080fd5b602001915036819003821315612f8a57600080fd5b818103818111156104f4576104f4613674565b6020808252602d908201527f4552433732313a2063616c6c6572206973206e6f7420746f6b656e206f776e6560408201527f72206f7220617070726f76656400000000000000000000000000000000000000606082015260800190565b6020808252602b908201527f496e697469616c697a61626c653a20636f6e7472616374206973206e6f74206960408201527f6e697469616c697a696e67000000000000000000000000000000000000000000606082015260800190565b600083516138eb818460208801612e48565b8351908301906138ff818360208801612e48565b01949350505050565b60208082526025908201527f4552433732313a207472616e736665722066726f6d20696e636f72726563742060408201527f6f776e6572000000000000000000000000000000000000000000000000000000606082015260800190565b60208082526032908201527f4552433732313a207472616e7366657220746f206e6f6e20455243373231526560408201527f63656976657220696d706c656d656e7465720000000000000000000000000000606082015260800190565b6000600160a060020a0380871683528086166020840152508360408301526080606083015261356d6080830184612e6c565b600060208284031215613a0657600080fd5b815161242781612e15565b60e060020a634e487b7102600052603160045260246000fdfea26469706673582212205cdd642ed0d95b57b116f31d3e405baad0858ebd868f6fedc8163af944507ad964736f6c63430008110033","opcodes":"PUSH1 0x80 PUSH1 0x40 MSTORE CALLVALUE DUP1 ISZERO PUSH2 0x10 JUMPI PUSH1 0x0 DUP1 REVERT JUMPDEST POP PUSH2 0x3A60 DUP1 PUSH2 0x20 PUSH1 0x0 CODECOPY PUSH1 0x0 RETURN INVALID PUSH1 0x80 PUSH1 0x40 MSTORE CALLVALUE DUP1 ISZERO PUSH2 0x10 JUMPI PUSH1 0x0 DUP1 REVERT JUMPDEST POP PUSH1 0x4 CALLDATASIZE LT PUSH2 0x20D JUMPI PUSH1 0x0 CALLDATALOAD PUSH29 0x100000000000000000000000000000000000000000000000000000000 SWAP1 DIV DUP1 PUSH4 0x715018A6 GT PUSH2 0x12C JUMPI DUP1 PUSH4 0xB88D4FDE GT PUSH2 0xBF JUMPI DUP1 PUSH4 0xE428E010 GT PUSH2 0x8E JUMPI DUP1 PUSH4 0xE428E010 EQ PUSH2 0x467 JUMPI DUP1 PUSH4 0xE985E9C5 EQ PUSH2 0x47A JUMPI DUP1 PUSH4 0xEAC8F5B8 EQ PUSH2 0x4B6 JUMPI DUP1 PUSH4 0xF2FDE38B EQ PUSH2 0x4D6 JUMPI PUSH1 0x0 DUP1 REVERT JUMPDEST DUP1 PUSH4 0xB88D4FDE EQ PUSH2 0x40E JUMPI DUP1 PUSH4 0xC152F728 EQ PUSH2 0x421 JUMPI DUP1 PUSH4 0xC87B56DD EQ PUSH2 0x434 JUMPI DUP1 PUSH4 0xCEB60654 EQ PUSH2 0x447 JUMPI PUSH1 0x0 DUP1 REVERT JUMPDEST DUP1 PUSH4 0x8DA5CB5B GT PUSH2 0xFB JUMPI DUP1 PUSH4 0x8DA5CB5B EQ PUSH2 0x3CE JUMPI DUP1 PUSH4 0x95D89B41 EQ PUSH2 0x3E0 JUMPI DUP1 PUSH4 0xA22CB465 EQ PUSH2 0x3E8 JUMPI DUP1 PUSH4 0xA231BDF8 EQ PUSH2 0x3FB JUMPI PUSH1 0x0 DUP1 REVERT JUMPDEST DUP1 PUSH4 0x715018A6 EQ PUSH2 0x398 JUMPI DUP1 PUSH4 0x77F83471 EQ PUSH2 0x3A0 JUMPI DUP1 PUSH4 0x8129FC1C EQ PUSH2 0x3B3 JUMPI DUP1 PUSH4 0x83219A8A EQ PUSH2 0x3BB JUMPI PUSH1 0x0 DUP1 REVERT JUMPDEST DUP1 PUSH4 0x42842E0E GT PUSH2 0x1A4 JUMPI DUP1 PUSH4 0x6352211E GT PUSH2 0x173 JUMPI DUP1 PUSH4 0x6352211E EQ PUSH2 0x326 JUMPI DUP1 PUSH4 0x65260BE4 EQ PUSH2 0x339 JUMPI DUP1 PUSH4 0x70A08231 EQ PUSH2 0x34C JUMPI DUP1 PUSH4 0x714C5398 EQ PUSH2 0x35F JUMPI PUSH1 0x0 DUP1 REVERT JUMPDEST DUP1 PUSH4 0x42842E0E EQ PUSH2 0x2DA JUMPI DUP1 PUSH4 0x42966C68 EQ PUSH2 0x2ED JUMPI DUP1 PUSH4 0x4F6CCCE7 EQ PUSH2 0x300 JUMPI DUP1 PUSH4 0x55F804B3 EQ PUSH2 0x313 JUMPI PUSH1 0x0 DUP1 REVERT JUMPDEST DUP1 PUSH4 0x18160DDD GT PUSH2 0x1E0 JUMPI DUP1 PUSH4 0x18160DDD EQ PUSH2 0x28F JUMPI DUP1 PUSH4 0x23B872DD EQ PUSH2 0x2A1 JUMPI DUP1 PUSH4 0x2F745C59 EQ PUSH2 0x2B4 JUMPI DUP1 PUSH4 0x3BD74985 EQ PUSH2 0x2C7 JUMPI PUSH1 0x0 DUP1 REVERT JUMPDEST DUP1 PUSH4 0x1FFC9A7 EQ PUSH2 0x212 JUMPI DUP1 PUSH4 0x6FDDE03 EQ PUSH2 0x23A JUMPI DUP1 PUSH4 0x81812FC EQ PUSH2 0x24F JUMPI DUP1 PUSH4 0x95EA7B3 EQ PUSH2 0x27A JUMPI JUMPDEST PUSH1 0x0 DUP1 REVERT JUMPDEST PUSH2 0x225 PUSH2 0x220 CALLDATASIZE PUSH1 0x4 PUSH2 0x2E2B JUMP JUMPDEST PUSH2 0x4E9 JUMP JUMPDEST PUSH1 0x40 MLOAD SWAP1 ISZERO ISZERO DUP2 MSTORE PUSH1 0x20 ADD JUMPDEST PUSH1 0x40 MLOAD DUP1 SWAP2 SUB SWAP1 RETURN JUMPDEST PUSH2 0x242 PUSH2 0x4FA JUMP JUMPDEST PUSH1 0x40 MLOAD PUSH2 0x231 SWAP2 SWAP1 PUSH2 0x2E98 JUMP JUMPDEST PUSH2 0x262 PUSH2 0x25D CALLDATASIZE PUSH1 0x4 PUSH2 0x2EAB JUMP JUMPDEST PUSH2 0x58C JUMP JUMPDEST PUSH1 0x40 MLOAD PUSH1 0x1 PUSH1 0xA0 PUSH1 0x2 EXP SUB SWAP1 SWAP2 AND DUP2 MSTORE PUSH1 0x20 ADD PUSH2 0x231 JUMP JUMPDEST PUSH2 0x28D PUSH2 0x288 CALLDATASIZE PUSH1 0x4 PUSH2 0x2EE0 JUMP JUMPDEST PUSH2 0x5B3 JUMP JUMPDEST STOP JUMPDEST PUSH1 0x99 SLOAD JUMPDEST PUSH1 0x40 MLOAD SWAP1 DUP2 MSTORE PUSH1 0x20 ADD PUSH2 0x231 JUMP JUMPDEST PUSH2 0x28D PUSH2 0x2AF CALLDATASIZE PUSH1 0x4 PUSH2 0x2F0A JUMP JUMPDEST PUSH2 0x6EF JUMP JUMPDEST PUSH2 0x293 PUSH2 0x2C2 CALLDATASIZE PUSH1 0x4 PUSH2 0x2EE0 JUMP JUMPDEST PUSH2 0x715 JUMP JUMPDEST PUSH2 0x28D PUSH2 0x2D5 CALLDATASIZE PUSH1 0x4 PUSH2 0x2FD3 JUMP JUMPDEST PUSH2 0x7C0 JUMP JUMPDEST PUSH2 0x28D PUSH2 0x2E8 CALLDATASIZE PUSH1 0x4 PUSH2 0x2F0A JUMP JUMPDEST PUSH2 0x960 JUMP JUMPDEST PUSH2 0x28D PUSH2 0x2FB CALLDATASIZE PUSH1 0x4 PUSH2 0x2EAB JUMP JUMPDEST PUSH2 0x990 JUMP JUMPDEST PUSH2 0x293 PUSH2 0x30E CALLDATASIZE PUSH1 0x4 PUSH2 0x2EAB JUMP JUMPDEST PUSH2 0x9A7 JUMP JUMPDEST PUSH2 0x28D PUSH2 0x321 CALLDATASIZE PUSH1 0x4 PUSH2 0x3116 JUMP JUMPDEST PUSH2 0xA4E JUMP JUMPDEST PUSH2 0x262 PUSH2 0x334 CALLDATASIZE PUSH1 0x4 PUSH2 0x2EAB JUMP JUMPDEST PUSH2 0xA63 JUMP JUMPDEST PUSH2 0x28D PUSH2 0x347 CALLDATASIZE PUSH1 0x4 PUSH2 0x314B JUMP JUMPDEST PUSH2 0xACB JUMP JUMPDEST PUSH2 0x293 PUSH2 0x35A CALLDATASIZE PUSH1 0x4 PUSH2 0x3197 JUMP JUMPDEST PUSH2 0xC54 JUMP JUMPDEST PUSH1 0x40 DUP1 MLOAD DUP1 DUP3 ADD SWAP1 SWAP2 MSTORE PUSH1 0x2 DUP2 MSTORE PUSH32 0x7632000000000000000000000000000000000000000000000000000000000000 PUSH1 0x20 DUP3 ADD MSTORE PUSH2 0x242 JUMP JUMPDEST PUSH2 0x28D PUSH2 0xCF1 JUMP JUMPDEST PUSH2 0x28D PUSH2 0x3AE CALLDATASIZE PUSH1 0x4 PUSH2 0x31B2 JUMP JUMPDEST PUSH2 0xD05 JUMP JUMPDEST PUSH2 0x28D PUSH2 0xEF7 JUMP JUMPDEST PUSH2 0x28D PUSH2 0x3C9 CALLDATASIZE PUSH1 0x4 PUSH2 0x322C JUMP JUMPDEST PUSH2 0x10C4 JUMP JUMPDEST PUSH2 0x12D SLOAD PUSH1 0x1 PUSH1 0xA0 PUSH1 0x2 EXP SUB AND PUSH2 0x262 JUMP JUMPDEST PUSH2 0x242 PUSH2 0x110E JUMP JUMPDEST PUSH2 0x28D PUSH2 0x3F6 CALLDATASIZE PUSH1 0x4 PUSH2 0x326B JUMP JUMPDEST PUSH2 0x111D JUMP JUMPDEST PUSH2 0x28D PUSH2 0x409 CALLDATASIZE PUSH1 0x4 PUSH2 0x32A7 JUMP JUMPDEST PUSH2 0x1128 JUMP JUMPDEST PUSH2 0x28D PUSH2 0x41C CALLDATASIZE PUSH1 0x4 PUSH2 0x3310 JUMP JUMPDEST PUSH2 0x113F JUMP JUMPDEST PUSH2 0x28D PUSH2 0x42F CALLDATASIZE PUSH1 0x4 PUSH2 0x338C JUMP JUMPDEST PUSH2 0x1160 JUMP JUMPDEST PUSH2 0x242 PUSH2 0x442 CALLDATASIZE PUSH1 0x4 PUSH2 0x2EAB JUMP JUMPDEST PUSH2 0x12B8 JUMP JUMPDEST PUSH2 0x45A PUSH2 0x455 CALLDATASIZE PUSH1 0x4 PUSH2 0x2EAB JUMP JUMPDEST PUSH2 0x12C3 JUMP JUMPDEST PUSH1 0x40 MLOAD PUSH2 0x231 SWAP2 SWAP1 PUSH2 0x3577 JUMP JUMPDEST PUSH2 0x28D PUSH2 0x475 CALLDATASIZE PUSH1 0x4 PUSH2 0x338C JUMP JUMPDEST PUSH2 0x1420 JUMP JUMPDEST PUSH2 0x225 PUSH2 0x488 CALLDATASIZE PUSH1 0x4 PUSH2 0x35D8 JUMP JUMPDEST PUSH1 0x1 PUSH1 0xA0 PUSH1 0x2 EXP SUB SWAP2 DUP3 AND PUSH1 0x0 SWAP1 DUP2 MSTORE PUSH1 0x6A PUSH1 0x20 SWAP1 DUP2 MSTORE PUSH1 0x40 DUP1 DUP4 KECCAK256 SWAP4 SWAP1 SWAP5 AND DUP3 MSTORE SWAP2 SWAP1 SWAP2 MSTORE KECCAK256 SLOAD PUSH1 0xFF AND SWAP1 JUMP JUMPDEST PUSH2 0x4C9 PUSH2 0x4C4 CALLDATASIZE PUSH1 0x4 PUSH2 0x2EAB JUMP JUMPDEST PUSH2 0x14DE JUMP JUMPDEST PUSH1 0x40 MLOAD PUSH2 0x231 SWAP2 SWAP1 PUSH2 0x360B JUMP JUMPDEST PUSH2 0x28D PUSH2 0x4E4 CALLDATASIZE PUSH1 0x4 PUSH2 0x3197 JUMP JUMPDEST PUSH2 0x14EF JUMP JUMPDEST PUSH1 0x0 PUSH2 0x4F4 DUP3 PUSH2 0x157F JUMP JUMPDEST SWAP3 SWAP2 POP POP JUMP JUMPDEST PUSH1 0x60 PUSH1 0x65 DUP1 SLOAD PUSH2 0x509 SWAP1 PUSH2 0x361E JUMP JUMPDEST DUP1 PUSH1 0x1F ADD PUSH1 0x20 DUP1 SWAP2 DIV MUL PUSH1 0x20 ADD PUSH1 0x40 MLOAD SWAP1 DUP2 ADD PUSH1 0x40 MSTORE DUP1 SWAP3 SWAP2 SWAP1 DUP2 DUP2 MSTORE PUSH1 0x20 ADD DUP3 DUP1 SLOAD PUSH2 0x535 SWAP1 PUSH2 0x361E JUMP JUMPDEST DUP1 ISZERO PUSH2 0x582 JUMPI DUP1 PUSH1 0x1F LT PUSH2 0x557 JUMPI PUSH2 0x100 DUP1 DUP4 SLOAD DIV MUL DUP4 MSTORE SWAP2 PUSH1 0x20 ADD SWAP2 PUSH2 0x582 JUMP JUMPDEST DUP3 ADD SWAP2 SWAP1 PUSH1 0x0 MSTORE PUSH1 0x20 PUSH1 0x0 KECCAK256 SWAP1 JUMPDEST DUP2 SLOAD DUP2 MSTORE SWAP1 PUSH1 0x1 ADD SWAP1 PUSH1 0x20 ADD DUP1 DUP4 GT PUSH2 0x565 JUMPI DUP3 SWAP1 SUB PUSH1 0x1F AND DUP3 ADD SWAP2 JUMPDEST POP POP POP POP POP SWAP1 POP SWAP1 JUMP JUMPDEST PUSH1 0x0 PUSH2 0x597 DUP3 PUSH2 0x15BD JUMP JUMPDEST POP PUSH1 0x0 SWAP1 DUP2 MSTORE PUSH1 0x69 PUSH1 0x20 MSTORE PUSH1 0x40 SWAP1 KECCAK256 SLOAD PUSH1 0x1 PUSH1 0xA0 PUSH1 0x2 EXP SUB AND SWAP1 JUMP JUMPDEST PUSH1 0x0 PUSH2 0x5BE DUP3 PUSH2 0xA63 JUMP JUMPDEST SWAP1 POP DUP1 PUSH1 0x1 PUSH1 0xA0 PUSH1 0x2 EXP SUB AND DUP4 PUSH1 0x1 PUSH1 0xA0 PUSH1 0x2 EXP SUB AND SUB PUSH2 0x64F JUMPI PUSH1 0x40 MLOAD PUSH1 0xE5 PUSH1 0x2 EXP PUSH3 0x461BCD MUL DUP2 MSTORE PUSH1 0x20 PUSH1 0x4 DUP3 ADD MSTORE PUSH1 0x21 PUSH1 0x24 DUP3 ADD MSTORE PUSH32 0x4552433732313A20617070726F76616C20746F2063757272656E74206F776E65 PUSH1 0x44 DUP3 ADD MSTORE PUSH32 0x7200000000000000000000000000000000000000000000000000000000000000 PUSH1 0x64 DUP3 ADD MSTORE PUSH1 0x84 ADD JUMPDEST PUSH1 0x40 MLOAD DUP1 SWAP2 SUB SWAP1 REVERT JUMPDEST CALLER PUSH1 0x1 PUSH1 0xA0 PUSH1 0x2 EXP SUB DUP3 AND EQ DUP1 PUSH2 0x66B JUMPI POP PUSH2 0x66B DUP2 CALLER PUSH2 0x488 JUMP JUMPDEST PUSH2 0x6E0 JUMPI PUSH1 0x40 MLOAD PUSH1 0xE5 PUSH1 0x2 EXP PUSH3 0x461BCD MUL DUP2 MSTORE PUSH1 0x20 PUSH1 0x4 DUP3 ADD MSTORE PUSH1 0x3D PUSH1 0x24 DUP3 ADD MSTORE PUSH32 0x4552433732313A20617070726F76652063616C6C6572206973206E6F7420746F PUSH1 0x44 DUP3 ADD MSTORE PUSH32 0x6B656E206F776E6572206F7220617070726F76656420666F7220616C6C000000 PUSH1 0x64 DUP3 ADD MSTORE PUSH1 0x84 ADD PUSH2 0x646 JUMP JUMPDEST PUSH2 0x6EA DUP4 DUP4 PUSH2 0x1624 JUMP JUMPDEST POP POP POP JUMP JUMPDEST DUP1 PUSH2 0x6F9 DUP2 PUSH2 0x169F JUMP JUMPDEST PUSH2 0x704 DUP3 PUSH1 0x5 PUSH2 0x1739 JUMP JUMPDEST PUSH2 0x70F DUP5 DUP5 DUP5 PUSH2 0x1825 JUMP JUMPDEST POP POP POP POP JUMP JUMPDEST PUSH1 0x0 PUSH2 0x720 DUP4 PUSH2 0xC54 JUMP JUMPDEST DUP3 LT PUSH2 0x797 JUMPI PUSH1 0x40 MLOAD PUSH1 0xE5 PUSH1 0x2 EXP PUSH3 0x461BCD MUL DUP2 MSTORE PUSH1 0x20 PUSH1 0x4 DUP3 ADD MSTORE PUSH1 0x2B PUSH1 0x24 DUP3 ADD MSTORE PUSH32 0x455243373231456E756D657261626C653A206F776E657220696E646578206F75 PUSH1 0x44 DUP3 ADD MSTORE PUSH32 0x74206F6620626F756E6473000000000000000000000000000000000000000000 PUSH1 0x64 DUP3 ADD MSTORE PUSH1 0x84 ADD PUSH2 0x646 JUMP JUMPDEST POP PUSH1 0x1 PUSH1 0xA0 PUSH1 0x2 EXP SUB SWAP2 SWAP1 SWAP2 AND PUSH1 0x0 SWAP1 DUP2 MSTORE PUSH1 0x97 PUSH1 0x20 SWAP1 DUP2 MSTORE PUSH1 0x40 DUP1 DUP4 KECCAK256 SWAP4 DUP4 MSTORE SWAP3 SWAP1 MSTORE KECCAK256 SLOAD SWAP1 JUMP JUMPDEST PUSH1 0x0 DUP1 JUMPDEST DUP5 DUP2 LT ISZERO PUSH2 0x884 JUMPI PUSH2 0x7ED DUP7 DUP7 DUP4 DUP2 DUP2 LT PUSH2 0x7E1 JUMPI PUSH2 0x7E1 PUSH2 0x365B JUMP JUMPDEST SWAP1 POP PUSH1 0x20 MUL ADD CALLDATALOAD PUSH2 0x169F JUMP JUMPDEST PUSH1 0x1 PUSH2 0x163 PUSH1 0x0 DUP9 DUP9 DUP6 DUP2 DUP2 LT PUSH2 0x806 JUMPI PUSH2 0x806 PUSH2 0x365B JUMP JUMPDEST SWAP1 POP PUSH1 0x20 MUL ADD CALLDATALOAD DUP2 MSTORE PUSH1 0x20 ADD SWAP1 DUP2 MSTORE PUSH1 0x20 ADD PUSH1 0x0 KECCAK256 PUSH1 0x0 ADD PUSH1 0x0 PUSH2 0x100 EXP DUP2 SLOAD DUP2 PUSH1 0xFF MUL NOT AND SWAP1 DUP4 ISZERO ISZERO MUL OR SWAP1 SSTORE POP PUSH2 0x163 PUSH1 0x0 DUP8 DUP8 DUP5 DUP2 DUP2 LT PUSH2 0x84C JUMPI PUSH2 0x84C PUSH2 0x365B JUMP JUMPDEST SWAP1 POP PUSH1 0x20 MUL ADD CALLDATALOAD DUP2 MSTORE PUSH1 0x20 ADD SWAP1 DUP2 MSTORE PUSH1 0x20 ADD PUSH1 0x0 KECCAK256 PUSH1 0x1 ADD SLOAD DUP3 PUSH2 0x870 SWAP2 SWAP1 PUSH2 0x368D JUMP JUMPDEST SWAP2 POP DUP1 PUSH2 0x87C DUP2 PUSH2 0x36A0 JUMP JUMPDEST SWAP2 POP POP PUSH2 0x7C4 JUMP JUMPDEST POP PUSH1 0x0 PUSH2 0x8CE DUP10 DUP6 DUP6 DUP1 DUP1 PUSH1 0x1F ADD PUSH1 0x20 DUP1 SWAP2 DIV MUL PUSH1 0x20 ADD PUSH1 0x40 MLOAD SWAP1 DUP2 ADD PUSH1 0x40 MSTORE DUP1 SWAP4 SWAP3 SWAP2 SWAP1 DUP2 DUP2 MSTORE PUSH1 0x20 ADD DUP4 DUP4 DUP1 DUP3 DUP5 CALLDATACOPY PUSH1 0x0 SWAP3 ADD SWAP2 SWAP1 SWAP2 MSTORE POP DUP8 SWAP3 POP DUP14 SWAP2 POP DUP13 SWAP1 POP PUSH1 0x3 PUSH2 0x1858 JUMP JUMPDEST PUSH1 0x0 DUP2 DUP2 MSTORE PUSH2 0x163 PUSH1 0x20 MSTORE PUSH1 0x40 SWAP1 KECCAK256 SWAP1 SWAP2 POP PUSH2 0x8EE SWAP1 PUSH1 0x4 ADD DUP8 DUP8 PUSH2 0x2D2A JUMP JUMPDEST POP PUSH1 0x0 JUMPDEST DUP6 DUP2 LT ISZERO PUSH2 0x954 JUMPI PUSH2 0x163 PUSH1 0x0 DUP9 DUP9 DUP5 DUP2 DUP2 LT PUSH2 0x911 JUMPI PUSH2 0x911 PUSH2 0x365B JUMP JUMPDEST PUSH1 0x20 SWAP1 DUP2 MUL SWAP3 SWAP1 SWAP3 ADD CALLDATALOAD DUP4 MSTORE POP DUP2 DUP2 ADD SWAP3 SWAP1 SWAP3 MSTORE PUSH1 0x40 ADD PUSH1 0x0 SWAP1 DUP2 KECCAK256 PUSH1 0x5 ADD DUP1 SLOAD PUSH1 0x1 DUP2 ADD DUP3 SSTORE SWAP1 DUP3 MSTORE SWAP2 SWAP1 KECCAK256 ADD DUP3 SWAP1 SSTORE DUP1 PUSH2 0x94C DUP2 PUSH2 0x36A0 JUMP JUMPDEST SWAP2 POP POP PUSH2 0x8F2 JUMP JUMPDEST POP POP POP POP POP POP POP POP POP POP JUMP JUMPDEST DUP1 PUSH2 0x96A DUP2 PUSH2 0x169F JUMP JUMPDEST PUSH2 0x975 DUP3 PUSH1 0x5 PUSH2 0x1739 JUMP JUMPDEST PUSH2 0x70F DUP5 DUP5 DUP5 PUSH1 0x40 MLOAD DUP1 PUSH1 0x20 ADD PUSH1 0x40 MSTORE DUP1 PUSH1 0x0 DUP2 MSTORE POP PUSH2 0x191C JUMP JUMPDEST DUP1 PUSH2 0x99A DUP2 PUSH2 0x169F JUMP JUMPDEST PUSH2 0x9A3 DUP3 PUSH2 0x1951 JUMP JUMPDEST POP POP JUMP JUMPDEST PUSH1 0x0 PUSH2 0x9B2 PUSH1 0x99 SLOAD SWAP1 JUMP JUMPDEST DUP3 LT PUSH2 0xA29 JUMPI PUSH1 0x40 MLOAD PUSH1 0xE5 PUSH1 0x2 EXP PUSH3 0x461BCD MUL DUP2 MSTORE PUSH1 0x20 PUSH1 0x4 DUP3 ADD MSTORE PUSH1 0x2C PUSH1 0x24 DUP3 ADD MSTORE PUSH32 0x455243373231456E756D657261626C653A20676C6F62616C20696E646578206F PUSH1 0x44 DUP3 ADD MSTORE PUSH32 0x7574206F6620626F756E64730000000000000000000000000000000000000000 PUSH1 0x64 DUP3 ADD MSTORE PUSH1 0x84 ADD PUSH2 0x646 JUMP JUMPDEST PUSH1 0x99 DUP3 DUP2 SLOAD DUP2 LT PUSH2 0xA3C JUMPI PUSH2 0xA3C PUSH2 0x365B JUMP JUMPDEST SWAP1 PUSH1 0x0 MSTORE PUSH1 0x20 PUSH1 0x0 KECCAK256 ADD SLOAD SWAP1 POP SWAP2 SWAP1 POP JUMP JUMPDEST PUSH2 0xA56 PUSH2 0x1982 JUMP JUMPDEST PUSH2 0x15F PUSH2 0x9A3 DUP3 DUP3 PUSH2 0x36FF JUMP JUMPDEST PUSH1 0x0 DUP2 DUP2 MSTORE PUSH1 0x67 PUSH1 0x20 MSTORE PUSH1 0x40 DUP2 KECCAK256 SLOAD PUSH1 0x1 PUSH1 0xA0 PUSH1 0x2 EXP SUB AND DUP1 PUSH2 0x4F4 JUMPI PUSH1 0x40 MLOAD PUSH1 0xE5 PUSH1 0x2 EXP PUSH3 0x461BCD MUL DUP2 MSTORE PUSH1 0x20 PUSH1 0x4 DUP3 ADD MSTORE PUSH1 0x18 PUSH1 0x24 DUP3 ADD MSTORE PUSH32 0x4552433732313A20696E76616C696420746F6B656E2049440000000000000000 PUSH1 0x44 DUP3 ADD MSTORE PUSH1 0x64 ADD PUSH2 0x646 JUMP JUMPDEST DUP3 PUSH2 0xAD5 DUP2 PUSH2 0x169F JUMP JUMPDEST PUSH1 0x0 DUP5 DUP2 MSTORE PUSH2 0x163 PUSH1 0x20 MSTORE PUSH1 0x40 DUP2 KECCAK256 PUSH1 0x1 ADD SLOAD SWAP1 JUMPDEST DUP4 DUP2 LT ISZERO PUSH2 0xC2A JUMPI PUSH2 0xB07 DUP6 DUP6 DUP4 DUP2 DUP2 LT PUSH2 0x7E1 JUMPI PUSH2 0x7E1 PUSH2 0x365B JUMP JUMPDEST PUSH1 0x1 PUSH2 0x163 PUSH1 0x0 DUP8 DUP8 DUP6 DUP2 DUP2 LT PUSH2 0xB20 JUMPI PUSH2 0xB20 PUSH2 0x365B JUMP JUMPDEST SWAP1 POP PUSH1 0x20 MUL ADD CALLDATALOAD DUP2 MSTORE PUSH1 0x20 ADD SWAP1 DUP2 MSTORE PUSH1 0x20 ADD PUSH1 0x0 KECCAK256 PUSH1 0x0 ADD PUSH1 0x0 PUSH2 0x100 EXP DUP2 SLOAD DUP2 PUSH1 0xFF MUL NOT AND SWAP1 DUP4 ISZERO ISZERO MUL OR SWAP1 SSTORE POP PUSH2 0x163 PUSH1 0x0 DUP7 DUP7 DUP5 DUP2 DUP2 LT PUSH2 0xB66 JUMPI PUSH2 0xB66 PUSH2 0x365B JUMP JUMPDEST SWAP1 POP PUSH1 0x20 MUL ADD CALLDATALOAD DUP2 MSTORE PUSH1 0x20 ADD SWAP1 DUP2 MSTORE PUSH1 0x20 ADD PUSH1 0x0 KECCAK256 PUSH1 0x1 ADD SLOAD DUP3 PUSH2 0xB8A SWAP2 SWAP1 PUSH2 0x368D JUMP JUMPDEST SWAP2 POP PUSH2 0x163 PUSH1 0x0 DUP7 DUP7 DUP5 DUP2 DUP2 LT PUSH2 0xBA3 JUMPI PUSH2 0xBA3 PUSH2 0x365B JUMP JUMPDEST PUSH1 0x20 SWAP1 DUP2 MUL SWAP3 SWAP1 SWAP3 ADD CALLDATALOAD DUP4 MSTORE POP DUP2 DUP2 ADD SWAP3 SWAP1 SWAP3 MSTORE PUSH1 0x40 SWAP1 DUP2 ADD PUSH1 0x0 SWAP1 DUP2 KECCAK256 PUSH1 0x5 ADD DUP1 SLOAD PUSH1 0x1 DUP2 ADD DUP3 SSTORE SWAP1 DUP3 MSTORE DUP4 DUP3 KECCAK256 ADD DUP10 SWAP1 SSTORE DUP9 DUP2 MSTORE PUSH2 0x163 SWAP1 SWAP3 MSTORE SWAP1 KECCAK256 PUSH1 0x4 ADD DUP6 DUP6 DUP4 DUP2 DUP2 LT PUSH2 0xBF6 JUMPI PUSH2 0xBF6 PUSH2 0x365B JUMP JUMPDEST DUP4 SLOAD PUSH1 0x1 DUP2 ADD DUP6 SSTORE PUSH1 0x0 SWAP5 DUP6 MSTORE PUSH1 0x20 SWAP5 DUP6 SWAP1 KECCAK256 SWAP2 SWAP1 SWAP5 MUL SWAP3 SWAP1 SWAP3 ADD CALLDATALOAD SWAP2 SWAP1 SWAP3 ADD SSTORE POP DUP1 PUSH2 0xC22 DUP2 PUSH2 0x36A0 JUMP JUMPDEST SWAP2 POP POP PUSH2 0xAEA JUMP JUMPDEST POP PUSH1 0x0 DUP6 DUP2 MSTORE PUSH2 0x163 PUSH1 0x20 MSTORE PUSH1 0x40 SWAP1 KECCAK256 PUSH1 0x1 SWAP1 DUP2 ADD DUP3 SWAP1 SSTORE PUSH2 0xC4D SWAP1 DUP7 SWAP1 PUSH2 0x1739 JUMP JUMPDEST POP POP POP POP POP JUMP JUMPDEST PUSH1 0x0 PUSH1 0x1 PUSH1 0xA0 PUSH1 0x2 EXP SUB DUP3 AND PUSH2 0xCD5 JUMPI PUSH1 0x40 MLOAD PUSH1 0xE5 PUSH1 0x2 EXP PUSH3 0x461BCD MUL DUP2 MSTORE PUSH1 0x20 PUSH1 0x4 DUP3 ADD MSTORE PUSH1 0x29 PUSH1 0x24 DUP3 ADD MSTORE PUSH32 0x4552433732313A2061646472657373207A65726F206973206E6F742061207661 PUSH1 0x44 DUP3 ADD MSTORE PUSH32 0x6C6964206F776E65720000000000000000000000000000000000000000000000 PUSH1 0x64 DUP3 ADD MSTORE PUSH1 0x84 ADD PUSH2 0x646 JUMP JUMPDEST POP PUSH1 0x1 PUSH1 0xA0 PUSH1 0x2 EXP SUB AND PUSH1 0x0 SWAP1 DUP2 MSTORE PUSH1 0x68 PUSH1 0x20 MSTORE PUSH1 0x40 SWAP1 KECCAK256 SLOAD SWAP1 JUMP JUMPDEST PUSH2 0xCF9 PUSH2 0x1982 JUMP JUMPDEST PUSH2 0xD03 PUSH1 0x0 PUSH2 0x19E0 JUMP JUMPDEST JUMP JUMPDEST DUP7 PUSH2 0xD0F DUP2 PUSH2 0x169F JUMP JUMPDEST DUP4 DUP3 EQ PUSH2 0xD52 JUMPI PUSH1 0x40 MLOAD PUSH32 0x69E657B400000000000000000000000000000000000000000000000000000000 DUP2 MSTORE PUSH1 0x4 DUP2 ADD DUP6 SWAP1 MSTORE PUSH1 0x24 DUP2 ADD DUP4 SWAP1 MSTORE PUSH1 0x44 ADD PUSH2 0x646 JUMP JUMPDEST PUSH1 0x0 PUSH2 0xD5D DUP10 PUSH2 0xA63 JUMP JUMPDEST SWAP1 POP PUSH1 0x0 DUP1 JUMPDEST DUP7 DUP2 LT ISZERO PUSH2 0xE66 JUMPI DUP8 DUP8 DUP3 DUP2 DUP2 LT PUSH2 0xD7D JUMPI PUSH2 0xD7D PUSH2 0x365B JUMP JUMPDEST SWAP1 POP PUSH1 0x20 MUL ADD CALLDATALOAD DUP3 PUSH2 0xD8F SWAP2 SWAP1 PUSH2 0x368D JUMP JUMPDEST SWAP2 POP PUSH1 0x0 PUSH2 0xE14 DUP5 DUP9 DUP9 DUP6 DUP2 DUP2 LT PUSH2 0xDA9 JUMPI PUSH2 0xDA9 PUSH2 0x365B JUMP JUMPDEST SWAP1 POP PUSH1 0x20 MUL DUP2 ADD SWAP1 PUSH2 0xDBB SWAP2 SWAP1 PUSH2 0x37C5 JUMP JUMPDEST DUP1 DUP1 PUSH1 0x1F ADD PUSH1 0x20 DUP1 SWAP2 DIV MUL PUSH1 0x20 ADD PUSH1 0x40 MLOAD SWAP1 DUP2 ADD PUSH1 0x40 MSTORE DUP1 SWAP4 SWAP3 SWAP2 SWAP1 DUP2 DUP2 MSTORE PUSH1 0x20 ADD DUP4 DUP4 DUP1 DUP3 DUP5 CALLDATACOPY PUSH1 0x0 SWAP3 ADD SWAP2 SWAP1 SWAP2 MSTORE POP DUP15 SWAP3 POP DUP14 SWAP2 POP DUP8 SWAP1 POP DUP2 DUP2 LT PUSH2 0xE04 JUMPI PUSH2 0xE04 PUSH2 0x365B JUMP JUMPDEST SWAP1 POP PUSH1 0x20 MUL ADD CALLDATALOAD DUP15 DUP15 PUSH1 0x2 PUSH2 0x1858 JUMP JUMPDEST PUSH1 0x0 DUP14 DUP2 MSTORE PUSH2 0x163 PUSH1 0x20 SWAP1 DUP2 MSTORE PUSH1 0x40 DUP1 DUP4 KECCAK256 PUSH1 0x5 ADD DUP1 SLOAD PUSH1 0x1 DUP2 DUP2 ADD DUP4 SSTORE SWAP2 DUP6 MSTORE DUP4 DUP6 KECCAK256 ADD DUP6 SWAP1 SSTORE SWAP4 DUP4 MSTORE DUP3 KECCAK256 PUSH1 0x4 ADD DUP1 SLOAD SWAP4 DUP5 ADD DUP2 SSTORE DUP3 MSTORE SWAP1 KECCAK256 ADD DUP13 SWAP1 SSTORE POP DUP1 PUSH2 0xE5E DUP2 PUSH2 0x36A0 JUMP JUMPDEST SWAP2 POP POP PUSH2 0xD63 JUMP JUMPDEST POP PUSH1 0x0 DUP11 DUP2 MSTORE PUSH2 0x163 PUSH1 0x20 MSTORE PUSH1 0x40 SWAP1 KECCAK256 PUSH1 0x1 ADD SLOAD DUP2 EQ PUSH2 0xED1 JUMPI PUSH1 0x0 DUP11 DUP2 MSTORE PUSH2 0x163 PUSH1 0x20 MSTORE PUSH1 0x40 SWAP1 DUP2 SWAP1 KECCAK256 PUSH1 0x1 ADD SLOAD SWAP1 MLOAD PUSH32 0xF572090D00000000000000000000000000000000000000000000000000000000 DUP2 MSTORE PUSH1 0x4 DUP2 ADD SWAP2 SWAP1 SWAP2 MSTORE PUSH1 0x24 DUP2 ADD DUP3 SWAP1 MSTORE PUSH1 0x44 ADD PUSH2 0x646 JUMP JUMPDEST POP POP POP PUSH1 0x0 SWAP7 DUP8 MSTORE POP POP PUSH2 0x163 PUSH1 0x20 MSTORE POP POP PUSH1 0x40 SWAP1 SWAP3 KECCAK256 DUP1 SLOAD PUSH1 0xFF NOT AND PUSH1 0x1 OR SWAP1 SSTORE POP POP JUMP JUMPDEST PUSH1 0x0 SLOAD PUSH2 0x100 SWAP1 DIV PUSH1 0xFF AND ISZERO DUP1 DUP1 ISZERO PUSH2 0xF17 JUMPI POP PUSH1 0x0 SLOAD PUSH1 0x1 PUSH1 0xFF SWAP1 SWAP2 AND LT JUMPDEST DUP1 PUSH2 0xF31 JUMPI POP ADDRESS EXTCODESIZE ISZERO DUP1 ISZERO PUSH2 0xF31 JUMPI POP PUSH1 0x0 SLOAD PUSH1 0xFF AND PUSH1 0x1 EQ JUMPDEST PUSH2 0xFA6 JUMPI PUSH1 0x40 MLOAD PUSH1 0xE5 PUSH1 0x2 EXP PUSH3 0x461BCD MUL DUP2 MSTORE PUSH1 0x20 PUSH1 0x4 DUP3 ADD MSTORE PUSH1 0x2E PUSH1 0x24 DUP3 ADD MSTORE PUSH32 0x496E697469616C697A61626C653A20636F6E747261637420697320616C726561 PUSH1 0x44 DUP3 ADD MSTORE PUSH32 0x647920696E697469616C697A6564000000000000000000000000000000000000 PUSH1 0x64 DUP3 ADD MSTORE PUSH1 0x84 ADD PUSH2 0x646 JUMP JUMPDEST PUSH1 0x0 DUP1 SLOAD PUSH1 0xFF NOT AND PUSH1 0x1 OR SWAP1 SSTORE DUP1 ISZERO PUSH2 0xFC9 JUMPI PUSH1 0x0 DUP1 SLOAD PUSH2 0xFF00 NOT AND PUSH2 0x100 OR SWAP1 SSTORE JUMPDEST PUSH2 0x103D PUSH1 0x40 MLOAD DUP1 PUSH1 0x40 ADD PUSH1 0x40 MSTORE DUP1 PUSH1 0x11 DUP2 MSTORE PUSH1 0x20 ADD PUSH32 0x417373657454726163656162696C697479000000000000000000000000000000 DUP2 MSTORE POP PUSH1 0x40 MLOAD DUP1 PUSH1 0x40 ADD PUSH1 0x40 MSTORE DUP1 PUSH1 0x2 DUP2 MSTORE PUSH1 0x20 ADD PUSH32 0x4154000000000000000000000000000000000000000000000000000000000000 DUP2 MSTORE POP PUSH2 0x1A40 JUMP JUMPDEST PUSH2 0x1045 PUSH2 0x1A74 JUMP JUMPDEST PUSH2 0x104D PUSH2 0x1A74 JUMP JUMPDEST PUSH2 0x1055 PUSH2 0x1A74 JUMP JUMPDEST PUSH2 0x105D PUSH2 0x1A9E JUMP JUMPDEST PUSH1 0x40 DUP1 MLOAD PUSH1 0x20 DUP2 ADD SWAP1 SWAP2 MSTORE PUSH1 0x0 DUP2 MSTORE PUSH2 0x15F SWAP1 PUSH2 0x107A SWAP1 DUP3 PUSH2 0x36FF JUMP JUMPDEST POP DUP1 ISZERO PUSH2 0x10C1 JUMPI PUSH1 0x0 DUP1 SLOAD PUSH2 0xFF00 NOT AND SWAP1 SSTORE PUSH1 0x40 MLOAD PUSH1 0x1 DUP2 MSTORE PUSH32 0x7F26B83FF96E1F2B6A682F133852F6798A09C465DA95921460CEFB3847402498 SWAP1 PUSH1 0x20 ADD PUSH1 0x40 MLOAD DUP1 SWAP2 SUB SWAP1 LOG1 JUMPDEST POP JUMP JUMPDEST DUP3 PUSH2 0x10CE DUP2 PUSH2 0x169F JUMP JUMPDEST PUSH2 0x70F DUP5 DUP5 DUP5 DUP1 DUP1 PUSH1 0x1F ADD PUSH1 0x20 DUP1 SWAP2 DIV MUL PUSH1 0x20 ADD PUSH1 0x40 MLOAD SWAP1 DUP2 ADD PUSH1 0x40 MSTORE DUP1 SWAP4 SWAP3 SWAP2 SWAP1 DUP2 DUP2 MSTORE PUSH1 0x20 ADD DUP4 DUP4 DUP1 DUP3 DUP5 CALLDATACOPY PUSH1 0x0 SWAP3 ADD SWAP2 SWAP1 SWAP2 MSTORE POP PUSH2 0x1AD0 SWAP3 POP POP POP JUMP JUMPDEST PUSH1 0x60 PUSH1 0x66 DUP1 SLOAD PUSH2 0x509 SWAP1 PUSH2 0x361E JUMP JUMPDEST PUSH2 0x9A3 CALLER DUP4 DUP4 PUSH2 0x1BAD JUMP JUMPDEST PUSH2 0x1137 DUP6 DUP6 DUP6 DUP6 DUP6 PUSH1 0x0 PUSH2 0x1858 JUMP JUMPDEST POP POP POP POP POP POP JUMP JUMPDEST DUP2 PUSH2 0x1149 DUP2 PUSH2 0x169F JUMP JUMPDEST PUSH2 0x1154 DUP4 PUSH1 0x5 PUSH2 0x1739 JUMP JUMPDEST PUSH2 0xC4D DUP6 DUP6 DUP6 DUP6 PUSH2 0x191C JUMP JUMPDEST DUP6 PUSH2 0x116A DUP2 PUSH2 0x169F JUMP JUMPDEST PUSH1 0x0 PUSH2 0x1175 DUP9 PUSH2 0xA63 JUMP JUMPDEST PUSH1 0x0 DUP10 DUP2 MSTORE PUSH2 0x163 PUSH1 0x20 MSTORE PUSH1 0x40 SWAP1 KECCAK256 PUSH1 0x1 ADD SLOAD SWAP1 SWAP2 POP JUMPDEST DUP1 ISZERO PUSH2 0x1293 JUMPI PUSH1 0x0 PUSH2 0x11DB DUP4 DUP8 DUP8 DUP1 DUP1 PUSH1 0x1F ADD PUSH1 0x20 DUP1 SWAP2 DIV MUL PUSH1 0x20 ADD PUSH1 0x40 MLOAD SWAP1 DUP2 ADD PUSH1 0x40 MSTORE DUP1 SWAP4 SWAP3 SWAP2 SWAP1 DUP2 DUP2 MSTORE PUSH1 0x20 ADD DUP4 DUP4 DUP1 DUP3 DUP5 CALLDATACOPY PUSH1 0x0 SWAP3 ADD SWAP2 SWAP1 SWAP2 MSTORE POP DUP13 SWAP3 POP DUP15 SWAP2 POP DUP14 SWAP1 POP PUSH1 0x2 PUSH2 0x1858 JUMP JUMPDEST PUSH1 0x0 DUP12 DUP2 MSTORE PUSH2 0x163 PUSH1 0x20 SWAP1 DUP2 MSTORE PUSH1 0x40 DUP1 DUP4 KECCAK256 PUSH1 0x5 ADD DUP1 SLOAD PUSH1 0x1 DUP2 DUP2 ADD DUP4 SSTORE SWAP2 DUP6 MSTORE DUP4 DUP6 KECCAK256 ADD DUP6 SWAP1 SSTORE DUP5 DUP5 MSTORE SWAP1 DUP4 KECCAK256 PUSH1 0x4 ADD DUP1 SLOAD SWAP2 DUP3 ADD DUP2 SSTORE DUP4 MSTORE SWAP2 KECCAK256 ADD DUP12 SWAP1 SSTORE SWAP1 POP DUP7 DUP3 LT PUSH2 0x1235 JUMPI PUSH2 0x122E DUP8 DUP4 PUSH2 0x380C JUMP JUMPDEST SWAP2 POP PUSH2 0x128D JUMP JUMPDEST PUSH1 0x0 DUP11 DUP2 MSTORE PUSH2 0x163 PUSH1 0x20 MSTORE PUSH1 0x40 SWAP1 KECCAK256 PUSH1 0x1 ADD SLOAD PUSH2 0x1252 DUP4 DUP3 PUSH2 0x380C JUMP JUMPDEST PUSH1 0x40 MLOAD PUSH32 0xF572090D00000000000000000000000000000000000000000000000000000000 DUP2 MSTORE PUSH1 0x4 DUP2 ADD SWAP3 SWAP1 SWAP3 MSTORE PUSH1 0x24 DUP3 ADD MSTORE PUSH1 0x44 ADD PUSH2 0x646 JUMP JUMPDEST POP PUSH2 0x118C JUMP JUMPDEST POP POP POP PUSH1 0x0 SWAP6 DUP7 MSTORE POP POP PUSH2 0x163 PUSH1 0x20 MSTORE POP POP PUSH1 0x40 SWAP1 SWAP2 KECCAK256 DUP1 SLOAD PUSH1 0xFF NOT AND PUSH1 0x1 OR SWAP1 SSTORE POP JUMP JUMPDEST PUSH1 0x60 PUSH2 0x4F4 DUP3 PUSH2 0x1C7E JUMP JUMPDEST PUSH1 0x0 DUP2 DUP2 MSTORE PUSH2 0x162 PUSH1 0x20 SWAP1 DUP2 MSTORE PUSH1 0x40 DUP1 DUP4 KECCAK256 DUP1 SLOAD DUP3 MLOAD DUP2 DUP6 MUL DUP2 ADD DUP6 ADD SWAP1 SWAP4 MSTORE DUP1 DUP4 MSTORE PUSH1 0x60 SWAP5 SWAP4 DUP4 ADD DUP3 DUP3 DUP1 ISZERO PUSH2 0x1319 JUMPI PUSH1 0x20 MUL DUP3 ADD SWAP2 SWAP1 PUSH1 0x0 MSTORE PUSH1 0x20 PUSH1 0x0 KECCAK256 SWAP1 JUMPDEST DUP2 SLOAD DUP2 MSTORE PUSH1 0x20 ADD SWAP1 PUSH1 0x1 ADD SWAP1 DUP1 DUP4 GT PUSH2 0x1305 JUMPI JUMPDEST POP POP POP POP POP SWAP1 POP PUSH1 0x0 DUP2 MLOAD GT ISZERO PUSH2 0x13E8 JUMPI PUSH1 0x0 DUP2 MLOAD PUSH8 0xFFFFFFFFFFFFFFFF DUP2 GT ISZERO PUSH2 0x1346 JUMPI PUSH2 0x1346 PUSH2 0x3067 JUMP JUMPDEST PUSH1 0x40 MLOAD SWAP1 DUP1 DUP3 MSTORE DUP1 PUSH1 0x20 MUL PUSH1 0x20 ADD DUP3 ADD PUSH1 0x40 MSTORE DUP1 ISZERO PUSH2 0x137F JUMPI DUP2 PUSH1 0x20 ADD JUMPDEST PUSH2 0x136C PUSH2 0x2D75 JUMP JUMPDEST DUP2 MSTORE PUSH1 0x20 ADD SWAP1 PUSH1 0x1 SWAP1 SUB SWAP1 DUP2 PUSH2 0x1364 JUMPI SWAP1 POP JUMPDEST POP SWAP1 POP PUSH1 0x0 JUMPDEST DUP3 MLOAD DUP2 LT ISZERO PUSH2 0x13E0 JUMPI PUSH2 0x13B0 DUP4 DUP3 DUP2 MLOAD DUP2 LT PUSH2 0x13A3 JUMPI PUSH2 0x13A3 PUSH2 0x365B JUMP JUMPDEST PUSH1 0x20 MUL PUSH1 0x20 ADD ADD MLOAD PUSH2 0x1D81 JUMP JUMPDEST DUP3 DUP3 DUP2 MLOAD DUP2 LT PUSH2 0x13C2 JUMPI PUSH2 0x13C2 PUSH2 0x365B JUMP JUMPDEST PUSH1 0x20 MUL PUSH1 0x20 ADD ADD DUP2 SWAP1 MSTORE POP DUP1 DUP1 PUSH2 0x13D8 SWAP1 PUSH2 0x36A0 JUMP JUMPDEST SWAP2 POP POP PUSH2 0x1385 JUMP JUMPDEST POP SWAP4 SWAP3 POP POP POP JUMP JUMPDEST PUSH1 0x40 DUP1 MLOAD PUSH1 0x0 DUP1 DUP3 MSTORE PUSH1 0x20 DUP3 ADD SWAP1 SWAP3 MSTORE SWAP1 PUSH2 0x13E0 JUMP JUMPDEST PUSH2 0x1406 PUSH2 0x2D75 JUMP JUMPDEST DUP2 MSTORE PUSH1 0x20 ADD SWAP1 PUSH1 0x1 SWAP1 SUB SWAP1 DUP2 PUSH2 0x13FE JUMPI SWAP1 POP POP SWAP4 SWAP3 POP POP POP JUMP JUMPDEST DUP6 PUSH2 0x142A DUP2 PUSH2 0x169F JUMP JUMPDEST PUSH1 0x0 DUP8 DUP2 MSTORE PUSH2 0x163 PUSH1 0x20 MSTORE PUSH1 0x40 DUP2 KECCAK256 DUP1 SLOAD PUSH1 0xFF NOT AND PUSH1 0x1 OR SWAP1 SSTORE PUSH2 0x1493 PUSH2 0x1450 DUP10 PUSH2 0xA63 JUMP JUMPDEST DUP6 DUP6 DUP1 DUP1 PUSH1 0x1F ADD PUSH1 0x20 DUP1 SWAP2 DIV MUL PUSH1 0x20 ADD PUSH1 0x40 MLOAD SWAP1 DUP2 ADD PUSH1 0x40 MSTORE DUP1 SWAP4 SWAP3 SWAP2 SWAP1 DUP2 DUP2 MSTORE PUSH1 0x20 ADD DUP4 DUP4 DUP1 DUP3 DUP5 CALLDATACOPY PUSH1 0x0 SWAP3 ADD SWAP2 SWAP1 SWAP2 MSTORE POP DUP13 SWAP3 POP DUP12 SWAP2 POP DUP11 SWAP1 POP PUSH1 0x4 PUSH2 0x1858 JUMP JUMPDEST PUSH1 0x0 DUP2 DUP2 MSTORE PUSH2 0x163 PUSH1 0x20 SWAP1 DUP2 MSTORE PUSH1 0x40 DUP1 DUP4 KECCAK256 PUSH1 0x4 ADD DUP1 SLOAD PUSH1 0x1 DUP2 DUP2 ADD DUP4 SSTORE SWAP2 DUP6 MSTORE DUP4 DUP6 KECCAK256 ADD DUP14 SWAP1 SSTORE SWAP12 DUP4 MSTORE DUP3 KECCAK256 PUSH1 0x5 ADD DUP1 SLOAD SWAP12 DUP13 ADD DUP2 SSTORE DUP3 MSTORE SWAP1 KECCAK256 SWAP1 SWAP9 ADD SWAP8 SWAP1 SWAP8 SSTORE POP POP POP POP POP POP POP JUMP JUMPDEST PUSH2 0x14E6 PUSH2 0x2D75 JUMP JUMPDEST PUSH2 0x4F4 DUP3 PUSH2 0x1D81 JUMP JUMPDEST PUSH2 0x14F7 PUSH2 0x1982 JUMP JUMPDEST PUSH1 0x1 PUSH1 0xA0 PUSH1 0x2 EXP SUB DUP2 AND PUSH2 0x1576 JUMPI PUSH1 0x40 MLOAD PUSH1 0xE5 PUSH1 0x2 EXP PUSH3 0x461BCD MUL DUP2 MSTORE PUSH1 0x20 PUSH1 0x4 DUP3 ADD MSTORE PUSH1 0x26 PUSH1 0x24 DUP3 ADD MSTORE PUSH32 0x4F776E61626C653A206E6577206F776E657220697320746865207A65726F2061 PUSH1 0x44 DUP3 ADD MSTORE PUSH32 0x6464726573730000000000000000000000000000000000000000000000000000 PUSH1 0x64 DUP3 ADD MSTORE PUSH1 0x84 ADD PUSH2 0x646 JUMP JUMPDEST PUSH2 0x10C1 DUP2 PUSH2 0x19E0 JUMP JUMPDEST PUSH1 0x0 PUSH1 0x1 PUSH1 0xE0 PUSH1 0x2 EXP SUB NOT DUP3 AND PUSH32 0x4906490600000000000000000000000000000000000000000000000000000000 EQ DUP1 PUSH2 0x4F4 JUMPI POP PUSH2 0x4F4 DUP3 PUSH2 0x208C JUMP JUMPDEST PUSH1 0x0 DUP2 DUP2 MSTORE PUSH1 0x67 PUSH1 0x20 MSTORE PUSH1 0x40 SWAP1 KECCAK256 SLOAD PUSH1 0x1 PUSH1 0xA0 PUSH1 0x2 EXP SUB AND PUSH2 0x10C1 JUMPI PUSH1 0x40 MLOAD PUSH1 0xE5 PUSH1 0x2 EXP PUSH3 0x461BCD MUL DUP2 MSTORE PUSH1 0x20 PUSH1 0x4 DUP3 ADD MSTORE PUSH1 0x18 PUSH1 0x24 DUP3 ADD MSTORE PUSH32 0x4552433732313A20696E76616C696420746F6B656E2049440000000000000000 PUSH1 0x44 DUP3 ADD MSTORE PUSH1 0x64 ADD PUSH2 0x646 JUMP JUMPDEST PUSH1 0x0 DUP2 DUP2 MSTORE PUSH1 0x69 PUSH1 0x20 MSTORE PUSH1 0x40 SWAP1 KECCAK256 DUP1 SLOAD PUSH20 0xFFFFFFFFFFFFFFFFFFFFFFFFFFFFFFFFFFFFFFFF NOT AND PUSH1 0x1 PUSH1 0xA0 PUSH1 0x2 EXP SUB DUP5 AND SWAP1 DUP2 OR SWAP1 SWAP2 SSTORE DUP2 SWAP1 PUSH2 0x1666 DUP3 PUSH2 0xA63 JUMP JUMPDEST PUSH1 0x1 PUSH1 0xA0 PUSH1 0x2 EXP SUB AND PUSH32 0x8C5BE1E5EBEC7D5BD14F71427D1E84F3DD0314C0F7B2291E5B200AC8C7C3B925 PUSH1 0x40 MLOAD PUSH1 0x40 MLOAD DUP1 SWAP2 SUB SWAP1 LOG4 POP POP JUMP JUMPDEST PUSH2 0x16A8 DUP2 PUSH2 0x15BD JUMP JUMPDEST PUSH2 0x16B3 CALLER JUMPDEST DUP3 PUSH2 0x20CA JUMP JUMPDEST PUSH2 0x16EC JUMPI PUSH1 0x40 MLOAD PUSH32 0x3EA3C1C00000000000000000000000000000000000000000000000000000000 DUP2 MSTORE PUSH1 0x4 DUP2 ADD DUP3 SWAP1 MSTORE PUSH1 0x24 ADD PUSH2 0x646 JUMP JUMPDEST PUSH1 0x0 DUP2 DUP2 MSTORE PUSH2 0x163 PUSH1 0x20 MSTORE PUSH1 0x40 SWAP1 KECCAK256 SLOAD PUSH1 0xFF AND ISZERO PUSH2 0x10C1 JUMPI PUSH1 0x40 MLOAD PUSH32 0xCCD934E100000000000000000000000000000000000000000000000000000000 DUP2 MSTORE PUSH1 0x4 DUP2 ADD DUP3 SWAP1 MSTORE PUSH1 0x24 ADD PUSH2 0x646 JUMP JUMPDEST PUSH1 0x0 DUP3 DUP2 MSTORE PUSH2 0x163 PUSH1 0x20 MSTORE PUSH1 0x40 SWAP1 DUP2 SWAP1 KECCAK256 DUP2 MLOAD PUSH1 0x60 DUP2 ADD SWAP1 SWAP3 MSTORE PUSH1 0x6 ADD SWAP1 DUP1 CALLER PUSH1 0x1 PUSH1 0xA0 PUSH1 0x2 EXP SUB AND DUP2 MSTORE PUSH1 0x20 ADD DUP4 PUSH1 0x5 DUP2 GT ISZERO PUSH2 0x1779 JUMPI PUSH2 0x1779 PUSH2 0x3431 JUMP JUMPDEST DUP2 MSTORE TIMESTAMP PUSH1 0x20 SWAP2 DUP3 ADD MSTORE DUP3 SLOAD PUSH1 0x1 DUP2 ADD DUP5 SSTORE PUSH1 0x0 SWAP4 DUP5 MSTORE SWAP3 DUP2 SWAP1 KECCAK256 DUP3 MLOAD PUSH1 0x2 SWAP1 SWAP5 MUL ADD DUP1 SLOAD PUSH1 0x1 PUSH1 0xA0 PUSH1 0x2 EXP SUB SWAP1 SWAP5 AND PUSH20 0xFFFFFFFFFFFFFFFFFFFFFFFFFFFFFFFFFFFFFFFF NOT DUP6 AND DUP2 OR DUP3 SSTORE SWAP2 DUP4 ADD MLOAD SWAP3 SWAP4 SWAP1 SWAP3 SWAP2 DUP4 SWAP2 PUSH21 0xFFFFFFFFFFFFFFFFFFFFFFFFFFFFFFFFFFFFFFFFFF NOT AND OR PUSH21 0x10000000000000000000000000000000000000000 DUP4 PUSH1 0x5 DUP2 GT ISZERO PUSH2 0x1810 JUMPI PUSH2 0x1810 PUSH2 0x3431 JUMP JUMPDEST MUL OR SWAP1 SSTORE POP PUSH1 0x40 DUP3 ADD MLOAD DUP2 PUSH1 0x1 ADD SSTORE POP POP POP POP JUMP JUMPDEST PUSH2 0x182E CALLER PUSH2 0x16AD JUMP JUMPDEST PUSH2 0x184D JUMPI PUSH1 0x40 MLOAD PUSH1 0xE5 PUSH1 0x2 EXP PUSH3 0x461BCD MUL DUP2 MSTORE PUSH1 0x4 ADD PUSH2 0x646 SWAP1 PUSH2 0x381F JUMP JUMPDEST PUSH2 0x6EA DUP4 DUP4 DUP4 PUSH2 0x2148 JUMP JUMPDEST PUSH1 0x0 DUP1 PUSH2 0x1865 PUSH2 0x160 SLOAD SWAP1 JUMP JUMPDEST SWAP1 POP PUSH2 0x1876 PUSH2 0x160 DUP1 SLOAD PUSH1 0x1 ADD SWAP1 SSTORE JUMP JUMPDEST PUSH2 0x1880 DUP9 DUP3 PUSH2 0x22E8 JUMP JUMPDEST PUSH2 0x188A DUP2 DUP9 PUSH2 0x1AD0 JUMP JUMPDEST PUSH1 0x0 DUP2 DUP2 MSTORE PUSH2 0x163 PUSH1 0x20 MSTORE PUSH1 0x40 SWAP1 KECCAK256 DUP1 SLOAD PUSH1 0xFF NOT AND DUP2 SSTORE PUSH1 0x1 DUP2 ADD DUP8 SWAP1 SSTORE PUSH1 0x2 DUP2 ADD DUP7 SWAP1 SSTORE PUSH1 0x3 ADD DUP5 SWAP1 SSTORE PUSH2 0x18BF DUP2 DUP5 PUSH2 0x1739 JUMP JUMPDEST DUP5 ISZERO PUSH2 0x18E8 JUMPI PUSH1 0x0 DUP6 DUP2 MSTORE PUSH2 0x161 PUSH1 0x20 SWAP1 DUP2 MSTORE PUSH1 0x40 DUP3 KECCAK256 DUP1 SLOAD PUSH1 0x1 DUP2 ADD DUP3 SSTORE SWAP1 DUP4 MSTORE SWAP2 KECCAK256 ADD DUP2 SWAP1 SSTORE JUMPDEST DUP4 ISZERO PUSH2 0x1911 JUMPI PUSH1 0x0 DUP5 DUP2 MSTORE PUSH2 0x162 PUSH1 0x20 SWAP1 DUP2 MSTORE PUSH1 0x40 DUP3 KECCAK256 DUP1 SLOAD PUSH1 0x1 DUP2 ADD DUP3 SSTORE SWAP1 DUP4 MSTORE SWAP2 KECCAK256 ADD DUP2 SWAP1 SSTORE JUMPDEST SWAP8 SWAP7 POP POP POP POP POP POP POP JUMP JUMPDEST PUSH2 0x1926 CALLER DUP4 PUSH2 0x20CA JUMP JUMPDEST PUSH2 0x1945 JUMPI PUSH1 0x40 MLOAD PUSH1 0xE5 PUSH1 0x2 EXP PUSH3 0x461BCD MUL DUP2 MSTORE PUSH1 0x4 ADD PUSH2 0x646 SWAP1 PUSH2 0x381F JUMP JUMPDEST PUSH2 0x70F DUP5 DUP5 DUP5 DUP5 PUSH2 0x2302 JUMP JUMPDEST PUSH2 0x195A CALLER PUSH2 0x16AD JUMP JUMPDEST PUSH2 0x1979 JUMPI PUSH1 0x40 MLOAD PUSH1 0xE5 PUSH1 0x2 EXP PUSH3 0x461BCD MUL DUP2 MSTORE PUSH1 0x4 ADD PUSH2 0x646 SWAP1 PUSH2 0x381F JUMP JUMPDEST PUSH2 0x10C1 DUP2 PUSH2 0x2338 JUMP JUMPDEST PUSH2 0x12D SLOAD PUSH1 0x1 PUSH1 0xA0 PUSH1 0x2 EXP SUB AND CALLER EQ PUSH2 0xD03 JUMPI PUSH1 0x40 MLOAD PUSH1 0xE5 PUSH1 0x2 EXP PUSH3 0x461BCD MUL DUP2 MSTORE PUSH1 0x20 PUSH1 0x4 DUP3 ADD DUP2 SWAP1 MSTORE PUSH1 0x24 DUP3 ADD MSTORE PUSH32 0x4F776E61626C653A2063616C6C6572206973206E6F7420746865206F776E6572 PUSH1 0x44 DUP3 ADD MSTORE PUSH1 0x64 ADD PUSH2 0x646 JUMP JUMPDEST PUSH2 0x12D DUP1 SLOAD PUSH1 0x1 PUSH1 0xA0 PUSH1 0x2 EXP SUB DUP4 DUP2 AND PUSH20 0xFFFFFFFFFFFFFFFFFFFFFFFFFFFFFFFFFFFFFFFF NOT DUP4 AND DUP2 OR SWAP1 SWAP4 SSTORE PUSH1 0x40 MLOAD SWAP2 AND SWAP2 SWAP1 DUP3 SWAP1 PUSH32 0x8BE0079C531659141344CD1FD0A4F28419497F9722A3DAAFE3B4186F6B6457E0 SWAP1 PUSH1 0x0 SWAP1 LOG3 POP POP JUMP JUMPDEST PUSH1 0x0 SLOAD PUSH2 0x100 SWAP1 DIV PUSH1 0xFF AND PUSH2 0x1A6A JUMPI PUSH1 0x40 MLOAD PUSH1 0xE5 PUSH1 0x2 EXP PUSH3 0x461BCD MUL DUP2 MSTORE PUSH1 0x4 ADD PUSH2 0x646 SWAP1 PUSH2 0x387C JUMP JUMPDEST PUSH2 0x9A3 DUP3 DUP3 PUSH2 0x2341 JUMP JUMPDEST PUSH1 0x0 SLOAD PUSH2 0x100 SWAP1 DIV PUSH1 0xFF AND PUSH2 0xD03 JUMPI PUSH1 0x40 MLOAD PUSH1 0xE5 PUSH1 0x2 EXP PUSH3 0x461BCD MUL DUP2 MSTORE PUSH1 0x4 ADD PUSH2 0x646 SWAP1 PUSH2 0x387C JUMP JUMPDEST PUSH1 0x0 SLOAD PUSH2 0x100 SWAP1 DIV PUSH1 0xFF AND PUSH2 0x1AC8 JUMPI PUSH1 0x40 MLOAD PUSH1 0xE5 PUSH1 0x2 EXP PUSH3 0x461BCD MUL DUP2 MSTORE PUSH1 0x4 ADD PUSH2 0x646 SWAP1 PUSH2 0x387C JUMP JUMPDEST PUSH2 0xD03 PUSH2 0x2384 JUMP JUMPDEST PUSH1 0x0 DUP3 DUP2 MSTORE PUSH1 0x67 PUSH1 0x20 MSTORE PUSH1 0x40 SWAP1 KECCAK256 SLOAD PUSH1 0x1 PUSH1 0xA0 PUSH1 0x2 EXP SUB AND PUSH2 0x1B5D JUMPI PUSH1 0x40 MLOAD PUSH1 0xE5 PUSH1 0x2 EXP PUSH3 0x461BCD MUL DUP2 MSTORE PUSH1 0x20 PUSH1 0x4 DUP3 ADD MSTORE PUSH1 0x2E PUSH1 0x24 DUP3 ADD MSTORE PUSH32 0x45524337323155524953746F726167653A2055524920736574206F66206E6F6E PUSH1 0x44 DUP3 ADD MSTORE PUSH32 0x6578697374656E7420746F6B656E000000000000000000000000000000000000 PUSH1 0x64 DUP3 ADD MSTORE PUSH1 0x84 ADD PUSH2 0x646 JUMP JUMPDEST PUSH1 0x0 DUP3 DUP2 MSTORE PUSH1 0xC9 PUSH1 0x20 MSTORE PUSH1 0x40 SWAP1 KECCAK256 PUSH2 0x1B75 DUP3 DUP3 PUSH2 0x36FF JUMP JUMPDEST POP PUSH1 0x40 MLOAD DUP3 DUP2 MSTORE PUSH32 0xF8E1A15ABA9398E019F0B49DF1A4FDE98EE17AE345CB5F6B5E2C27F5033E8CE7 SWAP1 PUSH1 0x20 ADD PUSH1 0x40 MLOAD DUP1 SWAP2 SUB SWAP1 LOG1 POP POP JUMP JUMPDEST DUP2 PUSH1 0x1 PUSH1 0xA0 PUSH1 0x2 EXP SUB AND DUP4 PUSH1 0x1 PUSH1 0xA0 PUSH1 0x2 EXP SUB AND SUB PUSH2 0x1C11 JUMPI PUSH1 0x40 MLOAD PUSH1 0xE5 PUSH1 0x2 EXP PUSH3 0x461BCD MUL DUP2 MSTORE PUSH1 0x20 PUSH1 0x4 DUP3 ADD MSTORE PUSH1 0x19 PUSH1 0x24 DUP3 ADD MSTORE PUSH32 0x4552433732313A20617070726F766520746F2063616C6C657200000000000000 PUSH1 0x44 DUP3 ADD MSTORE PUSH1 0x64 ADD PUSH2 0x646 JUMP JUMPDEST PUSH1 0x1 PUSH1 0xA0 PUSH1 0x2 EXP SUB DUP4 DUP2 AND PUSH1 0x0 DUP2 DUP2 MSTORE PUSH1 0x6A PUSH1 0x20 SWAP1 DUP2 MSTORE PUSH1 0x40 DUP1 DUP4 KECCAK256 SWAP5 DUP8 AND DUP1 DUP5 MSTORE SWAP5 DUP3 MSTORE SWAP2 DUP3 SWAP1 KECCAK256 DUP1 SLOAD PUSH1 0xFF NOT AND DUP7 ISZERO ISZERO SWAP1 DUP2 OR SWAP1 SWAP2 SSTORE SWAP2 MLOAD SWAP2 DUP3 MSTORE PUSH32 0x17307EAB39AB6107E8899845AD3D59BD9653F200F220920489CA2B5937696C31 SWAP2 ADD PUSH1 0x40 MLOAD DUP1 SWAP2 SUB SWAP1 LOG3 POP POP POP JUMP JUMPDEST PUSH1 0x60 PUSH2 0x1C89 DUP3 PUSH2 0x15BD JUMP JUMPDEST PUSH1 0x0 DUP3 DUP2 MSTORE PUSH1 0xC9 PUSH1 0x20 MSTORE PUSH1 0x40 DUP2 KECCAK256 DUP1 SLOAD PUSH2 0x1CA2 SWAP1 PUSH2 0x361E JUMP JUMPDEST DUP1 PUSH1 0x1F ADD PUSH1 0x20 DUP1 SWAP2 DIV MUL PUSH1 0x20 ADD PUSH1 0x40 MLOAD SWAP1 DUP2 ADD PUSH1 0x40 MSTORE DUP1 SWAP3 SWAP2 SWAP1 DUP2 DUP2 MSTORE PUSH1 0x20 ADD DUP3 DUP1 SLOAD PUSH2 0x1CCE SWAP1 PUSH2 0x361E JUMP JUMPDEST DUP1 ISZERO PUSH2 0x1D1B JUMPI DUP1 PUSH1 0x1F LT PUSH2 0x1CF0 JUMPI PUSH2 0x100 DUP1 DUP4 SLOAD DIV MUL DUP4 MSTORE SWAP2 PUSH1 0x20 ADD SWAP2 PUSH2 0x1D1B JUMP JUMPDEST DUP3 ADD SWAP2 SWAP1 PUSH1 0x0 MSTORE PUSH1 0x20 PUSH1 0x0 KECCAK256 SWAP1 JUMPDEST DUP2 SLOAD DUP2 MSTORE SWAP1 PUSH1 0x1 ADD SWAP1 PUSH1 0x20 ADD DUP1 DUP4 GT PUSH2 0x1CFE JUMPI DUP3 SWAP1 SUB PUSH1 0x1F AND DUP3 ADD SWAP2 JUMPDEST POP POP POP POP POP SWAP1 POP PUSH1 0x0 PUSH2 0x1D2C PUSH2 0x23B7 JUMP JUMPDEST SWAP1 POP DUP1 MLOAD PUSH1 0x0 SUB PUSH2 0x1D3E JUMPI POP SWAP3 SWAP2 POP POP JUMP JUMPDEST DUP2 MLOAD ISZERO PUSH2 0x1D70 JUMPI DUP1 DUP3 PUSH1 0x40 MLOAD PUSH1 0x20 ADD PUSH2 0x1D58 SWAP3 SWAP2 SWAP1 PUSH2 0x38D9 JUMP JUMPDEST PUSH1 0x40 MLOAD PUSH1 0x20 DUP2 DUP4 SUB SUB DUP2 MSTORE SWAP1 PUSH1 0x40 MSTORE SWAP3 POP POP POP SWAP2 SWAP1 POP JUMP JUMPDEST PUSH2 0x1D79 DUP5 PUSH2 0x23C7 JUMP JUMPDEST SWAP5 SWAP4 POP POP POP POP JUMP JUMPDEST PUSH2 0x1D89 PUSH2 0x2D75 JUMP JUMPDEST PUSH1 0x0 DUP3 DUP2 MSTORE PUSH2 0x163 PUSH1 0x20 SWAP1 DUP2 MSTORE PUSH1 0x40 DUP1 DUP4 KECCAK256 DUP2 MLOAD PUSH1 0xE0 DUP2 ADD DUP4 MSTORE DUP2 SLOAD PUSH1 0xFF AND ISZERO ISZERO DUP2 MSTORE PUSH1 0x1 DUP3 ADD SLOAD DUP2 DUP6 ADD MSTORE PUSH1 0x2 DUP3 ADD SLOAD DUP2 DUP5 ADD MSTORE PUSH1 0x3 DUP3 ADD SLOAD PUSH1 0x60 DUP3 ADD MSTORE PUSH1 0x4 DUP3 ADD DUP1 SLOAD DUP5 MLOAD DUP2 DUP8 MUL DUP2 ADD DUP8 ADD SWAP1 SWAP6 MSTORE DUP1 DUP6 MSTORE SWAP2 SWAP5 SWAP3 SWAP4 PUSH1 0x80 DUP7 ADD SWAP4 SWAP1 SWAP3 SWAP1 DUP4 ADD DUP3 DUP3 DUP1 ISZERO PUSH2 0x1E18 JUMPI PUSH1 0x20 MUL DUP3 ADD SWAP2 SWAP1 PUSH1 0x0 MSTORE PUSH1 0x20 PUSH1 0x0 KECCAK256 SWAP1 JUMPDEST DUP2 SLOAD DUP2 MSTORE PUSH1 0x20 ADD SWAP1 PUSH1 0x1 ADD SWAP1 DUP1 DUP4 GT PUSH2 0x1E04 JUMPI JUMPDEST POP POP POP POP POP DUP2 MSTORE PUSH1 0x20 ADD PUSH1 0x5 DUP3 ADD DUP1 SLOAD DUP1 PUSH1 0x20 MUL PUSH1 0x20 ADD PUSH1 0x40 MLOAD SWAP1 DUP2 ADD PUSH1 0x40 MSTORE DUP1 SWAP3 SWAP2 SWAP1 DUP2 DUP2 MSTORE PUSH1 0x20 ADD DUP3 DUP1 SLOAD DUP1 ISZERO PUSH2 0x1E70 JUMPI PUSH1 0x20 MUL DUP3 ADD SWAP2 SWAP1 PUSH1 0x0 MSTORE PUSH1 0x20 PUSH1 0x0 KECCAK256 SWAP1 JUMPDEST DUP2 SLOAD DUP2 MSTORE PUSH1 0x20 ADD SWAP1 PUSH1 0x1 ADD SWAP1 DUP1 DUP4 GT PUSH2 0x1E5C JUMPI JUMPDEST POP POP POP POP POP DUP2 MSTORE PUSH1 0x20 ADD PUSH1 0x6 DUP3 ADD DUP1 SLOAD DUP1 PUSH1 0x20 MUL PUSH1 0x20 ADD PUSH1 0x40 MLOAD SWAP1 DUP2 ADD PUSH1 0x40 MSTORE DUP1 SWAP3 SWAP2 SWAP1 DUP2 DUP2 MSTORE PUSH1 0x20 ADD PUSH1 0x0 SWAP1 JUMPDEST DUP3 DUP3 LT ISZERO PUSH2 0x1F33 JUMPI PUSH1 0x0 DUP5 DUP2 MSTORE PUSH1 0x20 SWAP1 DUP2 SWAP1 KECCAK256 PUSH1 0x40 DUP1 MLOAD PUSH1 0x60 DUP2 ADD SWAP1 SWAP2 MSTORE PUSH1 0x2 DUP6 MUL SWAP1 SWAP2 ADD DUP1 SLOAD PUSH1 0x1 PUSH1 0xA0 PUSH1 0x2 EXP SUB DUP2 AND DUP4 MSTORE SWAP2 SWAP3 SWAP1 SWAP2 SWAP1 DUP4 ADD SWAP1 PUSH21 0x10000000000000000000000000000000000000000 SWAP1 DIV PUSH1 0xFF AND PUSH1 0x5 DUP2 GT ISZERO PUSH2 0x1F05 JUMPI PUSH2 0x1F05 PUSH2 0x3431 JUMP JUMPDEST PUSH1 0x5 DUP2 GT ISZERO PUSH2 0x1F16 JUMPI PUSH2 0x1F16 PUSH2 0x3431 JUMP JUMPDEST DUP2 MSTORE PUSH1 0x20 ADD PUSH1 0x1 DUP3 ADD SLOAD DUP2 MSTORE POP POP DUP2 MSTORE PUSH1 0x20 ADD SWAP1 PUSH1 0x1 ADD SWAP1 PUSH2 0x1E9E JUMP JUMPDEST POP POP POP SWAP2 MSTORE POP POP PUSH1 0x20 DUP2 ADD MLOAD SWAP1 SWAP2 POP ISZERO PUSH2 0x1FBE JUMPI PUSH1 0x40 MLOAD DUP1 PUSH2 0x120 ADD PUSH1 0x40 MSTORE DUP1 DUP3 PUSH1 0x20 ADD MLOAD DUP2 MSTORE PUSH1 0x20 ADD DUP3 PUSH1 0x40 ADD MLOAD DUP2 MSTORE PUSH1 0x20 ADD DUP3 PUSH1 0x60 ADD MLOAD DUP2 MSTORE PUSH1 0x20 ADD DUP5 DUP2 MSTORE PUSH1 0x20 ADD PUSH2 0x1F80 DUP6 PUSH2 0xA63 JUMP JUMPDEST PUSH1 0x1 PUSH1 0xA0 PUSH1 0x2 EXP SUB AND DUP2 MSTORE PUSH1 0x20 ADD DUP3 PUSH1 0x80 ADD MLOAD DUP2 MSTORE PUSH1 0x20 ADD DUP3 PUSH1 0xA0 ADD MLOAD DUP2 MSTORE PUSH1 0x20 ADD DUP3 PUSH1 0xC0 ADD MLOAD DUP2 MSTORE PUSH1 0x20 ADD PUSH2 0x1FB5 DUP6 PUSH2 0x1C7E JUMP JUMPDEST SWAP1 MSTORE SWAP4 SWAP3 POP POP POP JUMP JUMPDEST PUSH1 0x40 MLOAD DUP1 PUSH2 0x120 ADD PUSH1 0x40 MSTORE DUP1 PUSH1 0x0 DUP2 MSTORE PUSH1 0x20 ADD PUSH1 0x0 DUP2 MSTORE PUSH1 0x20 ADD PUSH1 0x0 DUP2 MSTORE PUSH1 0x20 ADD PUSH1 0x0 DUP2 MSTORE PUSH1 0x20 ADD PUSH1 0x0 PUSH1 0x1 PUSH1 0xA0 PUSH1 0x2 EXP SUB AND DUP2 MSTORE PUSH1 0x20 ADD DUP3 PUSH1 0x80 ADD MLOAD DUP2 MSTORE PUSH1 0x20 ADD DUP3 PUSH1 0xA0 ADD MLOAD DUP2 MSTORE PUSH1 0x20 ADD PUSH1 0x0 PUSH8 0xFFFFFFFFFFFFFFFF DUP2 GT ISZERO PUSH2 0x2024 JUMPI PUSH2 0x2024 PUSH2 0x3067 JUMP JUMPDEST PUSH1 0x40 MLOAD SWAP1 DUP1 DUP3 MSTORE DUP1 PUSH1 0x20 MUL PUSH1 0x20 ADD DUP3 ADD PUSH1 0x40 MSTORE DUP1 ISZERO PUSH2 0x206F JUMPI DUP2 PUSH1 0x20 ADD JUMPDEST PUSH1 0x40 DUP1 MLOAD PUSH1 0x60 DUP2 ADD DUP3 MSTORE PUSH1 0x0 DUP1 DUP3 MSTORE PUSH1 0x20 DUP1 DUP4 ADD DUP3 SWAP1 MSTORE SWAP3 DUP3 ADD MSTORE DUP3 MSTORE PUSH1 0x0 NOT SWAP1 SWAP3 ADD SWAP2 ADD DUP2 PUSH2 0x2042 JUMPI SWAP1 POP JUMPDEST POP DUP2 MSTORE PUSH1 0x40 DUP1 MLOAD PUSH1 0x20 DUP2 DUP2 ADD SWAP1 SWAP3 MSTORE PUSH1 0x0 DUP2 MSTORE SWAP2 ADD MSTORE SWAP4 SWAP3 POP POP POP JUMP JUMPDEST PUSH1 0x0 PUSH1 0x1 PUSH1 0xE0 PUSH1 0x2 EXP SUB NOT DUP3 AND PUSH32 0x780E9D6300000000000000000000000000000000000000000000000000000000 EQ DUP1 PUSH2 0x4F4 JUMPI POP PUSH2 0x4F4 DUP3 PUSH2 0x242E JUMP JUMPDEST PUSH1 0x0 DUP1 PUSH2 0x20D6 DUP4 PUSH2 0xA63 JUMP JUMPDEST SWAP1 POP DUP1 PUSH1 0x1 PUSH1 0xA0 PUSH1 0x2 EXP SUB AND DUP5 PUSH1 0x1 PUSH1 0xA0 PUSH1 0x2 EXP SUB AND EQ DUP1 PUSH2 0x211D JUMPI POP PUSH1 0x1 PUSH1 0xA0 PUSH1 0x2 EXP SUB DUP1 DUP3 AND PUSH1 0x0 SWAP1 DUP2 MSTORE PUSH1 0x6A PUSH1 0x20 SWAP1 DUP2 MSTORE PUSH1 0x40 DUP1 DUP4 KECCAK256 SWAP4 DUP9 AND DUP4 MSTORE SWAP3 SWAP1 MSTORE KECCAK256 SLOAD PUSH1 0xFF AND JUMPDEST DUP1 PUSH2 0x1D79 JUMPI POP DUP4 PUSH1 0x1 PUSH1 0xA0 PUSH1 0x2 EXP SUB AND PUSH2 0x2136 DUP5 PUSH2 0x58C JUMP JUMPDEST PUSH1 0x1 PUSH1 0xA0 PUSH1 0x2 EXP SUB AND EQ SWAP5 SWAP4 POP POP POP POP JUMP JUMPDEST DUP3 PUSH1 0x1 PUSH1 0xA0 PUSH1 0x2 EXP SUB AND PUSH2 0x215B DUP3 PUSH2 0xA63 JUMP JUMPDEST PUSH1 0x1 PUSH1 0xA0 PUSH1 0x2 EXP SUB AND EQ PUSH2 0x2184 JUMPI PUSH1 0x40 MLOAD PUSH1 0xE5 PUSH1 0x2 EXP PUSH3 0x461BCD MUL DUP2 MSTORE PUSH1 0x4 ADD PUSH2 0x646 SWAP1 PUSH2 0x3908 JUMP JUMPDEST PUSH1 0x1 PUSH1 0xA0 PUSH1 0x2 EXP SUB DUP3 AND PUSH2 0x2202 JUMPI PUSH1 0x40 MLOAD PUSH1 0xE5 PUSH1 0x2 EXP PUSH3 0x461BCD MUL DUP2 MSTORE PUSH1 0x20 PUSH1 0x4 DUP3 ADD MSTORE PUSH1 0x24 DUP1 DUP3 ADD MSTORE PUSH32 0x4552433732313A207472616E7366657220746F20746865207A65726F20616464 PUSH1 0x44 DUP3 ADD MSTORE PUSH32 0x7265737300000000000000000000000000000000000000000000000000000000 PUSH1 0x64 DUP3 ADD MSTORE PUSH1 0x84 ADD PUSH2 0x646 JUMP JUMPDEST PUSH2 0x220F DUP4 DUP4 DUP4 PUSH1 0x1 PUSH2 0x24C9 JUMP JUMPDEST DUP3 PUSH1 0x1 PUSH1 0xA0 PUSH1 0x2 EXP SUB AND PUSH2 0x2222 DUP3 PUSH2 0xA63 JUMP JUMPDEST PUSH1 0x1 PUSH1 0xA0 PUSH1 0x2 EXP SUB AND EQ PUSH2 0x224B JUMPI PUSH1 0x40 MLOAD PUSH1 0xE5 PUSH1 0x2 EXP PUSH3 0x461BCD MUL DUP2 MSTORE PUSH1 0x4 ADD PUSH2 0x646 SWAP1 PUSH2 0x3908 JUMP JUMPDEST PUSH1 0x0 DUP2 DUP2 MSTORE PUSH1 0x69 PUSH1 0x20 SWAP1 DUP2 MSTORE PUSH1 0x40 DUP1 DUP4 KECCAK256 DUP1 SLOAD PUSH20 0xFFFFFFFFFFFFFFFFFFFFFFFFFFFFFFFFFFFFFFFF NOT SWAP1 DUP2 AND SWAP1 SWAP2 SSTORE PUSH1 0x1 PUSH1 0xA0 PUSH1 0x2 EXP SUB DUP8 DUP2 AND DUP1 DUP7 MSTORE PUSH1 0x68 DUP6 MSTORE DUP4 DUP7 KECCAK256 DUP1 SLOAD PUSH1 0x0 NOT ADD SWAP1 SSTORE SWAP1 DUP8 AND DUP1 DUP7 MSTORE DUP4 DUP7 KECCAK256 DUP1 SLOAD PUSH1 0x1 ADD SWAP1 SSTORE DUP7 DUP7 MSTORE PUSH1 0x67 SWAP1 SWAP5 MSTORE DUP3 DUP6 KECCAK256 DUP1 SLOAD SWAP1 SWAP3 AND DUP5 OR SWAP1 SWAP2 SSTORE SWAP1 MLOAD DUP5 SWAP4 PUSH32 0xDDF252AD1BE2C89B69C2B068FC378DAA952BA7F163C4A11628F55A4DF523B3EF SWAP2 LOG4 POP POP POP JUMP JUMPDEST PUSH2 0x9A3 DUP3 DUP3 PUSH1 0x40 MLOAD DUP1 PUSH1 0x20 ADD PUSH1 0x40 MSTORE DUP1 PUSH1 0x0 DUP2 MSTORE POP PUSH2 0x24D5 JUMP JUMPDEST PUSH2 0x230D DUP5 DUP5 DUP5 PUSH2 0x2148 JUMP JUMPDEST PUSH2 0x2319 DUP5 DUP5 DUP5 DUP5 PUSH2 0x250B JUMP JUMPDEST PUSH2 0x70F JUMPI PUSH1 0x40 MLOAD PUSH1 0xE5 PUSH1 0x2 EXP PUSH3 0x461BCD MUL DUP2 MSTORE PUSH1 0x4 ADD PUSH2 0x646 SWAP1 PUSH2 0x3965 JUMP JUMPDEST PUSH2 0x10C1 DUP2 PUSH2 0x2641 JUMP JUMPDEST PUSH1 0x0 SLOAD PUSH2 0x100 SWAP1 DIV PUSH1 0xFF AND PUSH2 0x236B JUMPI PUSH1 0x40 MLOAD PUSH1 0xE5 PUSH1 0x2 EXP PUSH3 0x461BCD MUL DUP2 MSTORE PUSH1 0x4 ADD PUSH2 0x646 SWAP1 PUSH2 0x387C JUMP JUMPDEST PUSH1 0x65 PUSH2 0x2377 DUP4 DUP3 PUSH2 0x36FF JUMP JUMPDEST POP PUSH1 0x66 PUSH2 0x6EA DUP3 DUP3 PUSH2 0x36FF JUMP JUMPDEST PUSH1 0x0 SLOAD PUSH2 0x100 SWAP1 DIV PUSH1 0xFF AND PUSH2 0x23AE JUMPI PUSH1 0x40 MLOAD PUSH1 0xE5 PUSH1 0x2 EXP PUSH3 0x461BCD MUL DUP2 MSTORE PUSH1 0x4 ADD PUSH2 0x646 SWAP1 PUSH2 0x387C JUMP JUMPDEST PUSH2 0xD03 CALLER PUSH2 0x19E0 JUMP JUMPDEST PUSH1 0x60 PUSH2 0x15F DUP1 SLOAD PUSH2 0x509 SWAP1 PUSH2 0x361E JUMP JUMPDEST PUSH1 0x60 PUSH2 0x23D2 DUP3 PUSH2 0x15BD JUMP JUMPDEST PUSH1 0x0 PUSH2 0x23DC PUSH2 0x23B7 JUMP JUMPDEST SWAP1 POP PUSH1 0x0 DUP2 MLOAD GT PUSH2 0x23FC JUMPI PUSH1 0x40 MLOAD DUP1 PUSH1 0x20 ADD PUSH1 0x40 MSTORE DUP1 PUSH1 0x0 DUP2 MSTORE POP PUSH2 0x2427 JUMP JUMPDEST DUP1 PUSH2 0x2406 DUP5 PUSH2 0x2681 JUMP JUMPDEST PUSH1 0x40 MLOAD PUSH1 0x20 ADD PUSH2 0x2417 SWAP3 SWAP2 SWAP1 PUSH2 0x38D9 JUMP JUMPDEST PUSH1 0x40 MLOAD PUSH1 0x20 DUP2 DUP4 SUB SUB DUP2 MSTORE SWAP1 PUSH1 0x40 MSTORE JUMPDEST SWAP4 SWAP3 POP POP POP JUMP JUMPDEST PUSH1 0x0 PUSH1 0x1 PUSH1 0xE0 PUSH1 0x2 EXP SUB NOT DUP3 AND PUSH32 0x80AC58CD00000000000000000000000000000000000000000000000000000000 EQ DUP1 PUSH2 0x2491 JUMPI POP PUSH1 0x1 PUSH1 0xE0 PUSH1 0x2 EXP SUB NOT DUP3 AND PUSH32 0x5B5E139F00000000000000000000000000000000000000000000000000000000 EQ JUMPDEST DUP1 PUSH2 0x4F4 JUMPI POP PUSH32 0x1FFC9A700000000000000000000000000000000000000000000000000000000 PUSH1 0x1 PUSH1 0xE0 PUSH1 0x2 EXP SUB NOT DUP4 AND EQ PUSH2 0x4F4 JUMP JUMPDEST PUSH2 0x70F DUP5 DUP5 DUP5 DUP5 PUSH2 0x2721 JUMP JUMPDEST PUSH2 0x24DF DUP4 DUP4 PUSH2 0x2859 JUMP JUMPDEST PUSH2 0x24EC PUSH1 0x0 DUP5 DUP5 DUP5 PUSH2 0x250B JUMP JUMPDEST PUSH2 0x6EA JUMPI PUSH1 0x40 MLOAD PUSH1 0xE5 PUSH1 0x2 EXP PUSH3 0x461BCD MUL DUP2 MSTORE PUSH1 0x4 ADD PUSH2 0x646 SWAP1 PUSH2 0x3965 JUMP JUMPDEST PUSH1 0x0 PUSH1 0x1 PUSH1 0xA0 PUSH1 0x2 EXP SUB DUP5 AND EXTCODESIZE ISZERO PUSH2 0x2636 JUMPI PUSH1 0x40 MLOAD PUSH32 0x150B7A0200000000000000000000000000000000000000000000000000000000 DUP2 MSTORE PUSH1 0x1 PUSH1 0xA0 PUSH1 0x2 EXP SUB DUP6 AND SWAP1 PUSH4 0x150B7A02 SWAP1 PUSH2 0x2568 SWAP1 CALLER SWAP1 DUP10 SWAP1 DUP9 SWAP1 DUP9 SWAP1 PUSH1 0x4 ADD PUSH2 0x39C2 JUMP JUMPDEST PUSH1 0x20 PUSH1 0x40 MLOAD DUP1 DUP4 SUB DUP2 PUSH1 0x0 DUP8 GAS CALL SWAP3 POP POP POP DUP1 ISZERO PUSH2 0x25A3 JUMPI POP PUSH1 0x40 DUP1 MLOAD PUSH1 0x1F RETURNDATASIZE SWAP1 DUP2 ADD PUSH1 0x1F NOT AND DUP3 ADD SWAP1 SWAP3 MSTORE PUSH2 0x25A0 SWAP2 DUP2 ADD SWAP1 PUSH2 0x39F4 JUMP JUMPDEST PUSH1 0x1 JUMPDEST PUSH2 0x2603 JUMPI RETURNDATASIZE DUP1 DUP1 ISZERO PUSH2 0x25D1 JUMPI PUSH1 0x40 MLOAD SWAP2 POP PUSH1 0x1F NOT PUSH1 0x3F RETURNDATASIZE ADD AND DUP3 ADD PUSH1 0x40 MSTORE RETURNDATASIZE DUP3 MSTORE RETURNDATASIZE PUSH1 0x0 PUSH1 0x20 DUP5 ADD RETURNDATACOPY PUSH2 0x25D6 JUMP JUMPDEST PUSH1 0x60 SWAP2 POP JUMPDEST POP DUP1 MLOAD PUSH1 0x0 SUB PUSH2 0x25FB JUMPI PUSH1 0x40 MLOAD PUSH1 0xE5 PUSH1 0x2 EXP PUSH3 0x461BCD MUL DUP2 MSTORE PUSH1 0x4 ADD PUSH2 0x646 SWAP1 PUSH2 0x3965 JUMP JUMPDEST DUP1 MLOAD DUP2 PUSH1 0x20 ADD REVERT JUMPDEST PUSH1 0x1 PUSH1 0xE0 PUSH1 0x2 EXP SUB NOT AND PUSH32 0x150B7A0200000000000000000000000000000000000000000000000000000000 EQ SWAP1 POP PUSH2 0x1D79 JUMP JUMPDEST POP PUSH1 0x1 SWAP5 SWAP4 POP POP POP POP JUMP JUMPDEST PUSH2 0x264A DUP2 PUSH2 0x2A08 JUMP JUMPDEST PUSH1 0x0 DUP2 DUP2 MSTORE PUSH1 0xC9 PUSH1 0x20 MSTORE PUSH1 0x40 SWAP1 KECCAK256 DUP1 SLOAD PUSH2 0x2663 SWAP1 PUSH2 0x361E JUMP JUMPDEST ISZERO SWAP1 POP PUSH2 0x10C1 JUMPI PUSH1 0x0 DUP2 DUP2 MSTORE PUSH1 0xC9 PUSH1 0x20 MSTORE PUSH1 0x40 DUP2 KECCAK256 PUSH2 0x10C1 SWAP2 PUSH2 0x2DCA JUMP JUMPDEST PUSH1 0x60 PUSH1 0x0 PUSH2 0x268E DUP4 PUSH2 0x2AB8 JUMP JUMPDEST PUSH1 0x1 ADD SWAP1 POP PUSH1 0x0 DUP2 PUSH8 0xFFFFFFFFFFFFFFFF DUP2 GT ISZERO PUSH2 0x26AE JUMPI PUSH2 0x26AE PUSH2 0x3067 JUMP JUMPDEST PUSH1 0x40 MLOAD SWAP1 DUP1 DUP3 MSTORE DUP1 PUSH1 0x1F ADD PUSH1 0x1F NOT AND PUSH1 0x20 ADD DUP3 ADD PUSH1 0x40 MSTORE DUP1 ISZERO PUSH2 0x26D8 JUMPI PUSH1 0x20 DUP3 ADD DUP2 DUP1 CALLDATASIZE DUP4 CALLDATACOPY ADD SWAP1 POP JUMPDEST POP SWAP1 POP DUP2 DUP2 ADD PUSH1 0x20 ADD JUMPDEST PUSH1 0x0 NOT ADD PUSH32 0x3031323334353637383961626364656600000000000000000000000000000000 PUSH1 0xA DUP7 MOD BYTE DUP2 MSTORE8 PUSH1 0xA DUP6 DIV SWAP5 POP DUP5 PUSH2 0x26E2 JUMPI POP SWAP4 SWAP3 POP POP POP JUMP JUMPDEST PUSH1 0x1 DUP2 GT ISZERO PUSH2 0x279B JUMPI PUSH1 0x40 MLOAD PUSH1 0xE5 PUSH1 0x2 EXP PUSH3 0x461BCD MUL DUP2 MSTORE PUSH1 0x20 PUSH1 0x4 DUP3 ADD MSTORE PUSH1 0x35 PUSH1 0x24 DUP3 ADD MSTORE PUSH32 0x455243373231456E756D657261626C653A20636F6E7365637574697665207472 PUSH1 0x44 DUP3 ADD MSTORE PUSH32 0x616E7366657273206E6F7420737570706F727465640000000000000000000000 PUSH1 0x64 DUP3 ADD MSTORE PUSH1 0x84 ADD PUSH2 0x646 JUMP JUMPDEST DUP2 PUSH1 0x1 PUSH1 0xA0 PUSH1 0x2 EXP SUB DUP6 AND PUSH2 0x27F7 JUMPI PUSH2 0x27F2 DUP2 PUSH1 0x99 DUP1 SLOAD PUSH1 0x0 DUP4 DUP2 MSTORE PUSH1 0x9A PUSH1 0x20 MSTORE PUSH1 0x40 DUP2 KECCAK256 DUP3 SWAP1 SSTORE PUSH1 0x1 DUP3 ADD DUP4 SSTORE SWAP2 SWAP1 SWAP2 MSTORE PUSH32 0x72A152DDFB8E864297C917AF52EA6C1C68AEAD0FEE1A62673FCC7E0C94979D00 ADD SSTORE JUMP JUMPDEST PUSH2 0x281A JUMP JUMPDEST DUP4 PUSH1 0x1 PUSH1 0xA0 PUSH1 0x2 EXP SUB AND DUP6 PUSH1 0x1 PUSH1 0xA0 PUSH1 0x2 EXP SUB AND EQ PUSH2 0x281A JUMPI PUSH2 0x281A DUP6 DUP3 PUSH2 0x2B9A JUMP JUMPDEST PUSH1 0x1 PUSH1 0xA0 PUSH1 0x2 EXP SUB DUP5 AND PUSH2 0x2836 JUMPI PUSH2 0x2831 DUP2 PUSH2 0x2C37 JUMP JUMPDEST PUSH2 0xC4D JUMP JUMPDEST DUP5 PUSH1 0x1 PUSH1 0xA0 PUSH1 0x2 EXP SUB AND DUP5 PUSH1 0x1 PUSH1 0xA0 PUSH1 0x2 EXP SUB AND EQ PUSH2 0xC4D JUMPI PUSH2 0xC4D DUP5 DUP3 PUSH2 0x2CE6 JUMP JUMPDEST PUSH1 0x1 PUSH1 0xA0 PUSH1 0x2 EXP SUB DUP3 AND PUSH2 0x28B2 JUMPI PUSH1 0x40 MLOAD PUSH1 0xE5 PUSH1 0x2 EXP PUSH3 0x461BCD MUL DUP2 MSTORE PUSH1 0x20 PUSH1 0x4 DUP3 ADD DUP2 SWAP1 MSTORE PUSH1 0x24 DUP3 ADD MSTORE PUSH32 0x4552433732313A206D696E7420746F20746865207A65726F2061646472657373 PUSH1 0x44 DUP3 ADD MSTORE PUSH1 0x64 ADD PUSH2 0x646 JUMP JUMPDEST PUSH1 0x0 DUP2 DUP2 MSTORE PUSH1 0x67 PUSH1 0x20 MSTORE PUSH1 0x40 SWAP1 KECCAK256 SLOAD PUSH1 0x1 PUSH1 0xA0 PUSH1 0x2 EXP SUB AND ISZERO PUSH2 0x291A JUMPI PUSH1 0x40 MLOAD PUSH1 0xE5 PUSH1 0x2 EXP PUSH3 0x461BCD MUL DUP2 MSTORE PUSH1 0x20 PUSH1 0x4 DUP3 ADD MSTORE PUSH1 0x1C PUSH1 0x24 DUP3 ADD MSTORE PUSH32 0x4552433732313A20746F6B656E20616C7265616479206D696E74656400000000 PUSH1 0x44 DUP3 ADD MSTORE PUSH1 0x64 ADD PUSH2 0x646 JUMP JUMPDEST PUSH2 0x2928 PUSH1 0x0 DUP4 DUP4 PUSH1 0x1 PUSH2 0x24C9 JUMP JUMPDEST PUSH1 0x0 DUP2 DUP2 MSTORE PUSH1 0x67 PUSH1 0x20 MSTORE PUSH1 0x40 SWAP1 KECCAK256 SLOAD PUSH1 0x1 PUSH1 0xA0 PUSH1 0x2 EXP SUB AND ISZERO PUSH2 0x2990 JUMPI PUSH1 0x40 MLOAD PUSH1 0xE5 PUSH1 0x2 EXP PUSH3 0x461BCD MUL DUP2 MSTORE PUSH1 0x20 PUSH1 0x4 DUP3 ADD MSTORE PUSH1 0x1C PUSH1 0x24 DUP3 ADD MSTORE PUSH32 0x4552433732313A20746F6B656E20616C7265616479206D696E74656400000000 PUSH1 0x44 DUP3 ADD MSTORE PUSH1 0x64 ADD PUSH2 0x646 JUMP JUMPDEST PUSH1 0x1 PUSH1 0xA0 PUSH1 0x2 EXP SUB DUP3 AND PUSH1 0x0 DUP2 DUP2 MSTORE PUSH1 0x68 PUSH1 0x20 SWAP1 DUP2 MSTORE PUSH1 0x40 DUP1 DUP4 KECCAK256 DUP1 SLOAD PUSH1 0x1 ADD SWAP1 SSTORE DUP5 DUP4 MSTORE PUSH1 0x67 SWAP1 SWAP2 MSTORE DUP1 DUP3 KECCAK256 DUP1 SLOAD PUSH20 0xFFFFFFFFFFFFFFFFFFFFFFFFFFFFFFFFFFFFFFFF NOT AND DUP5 OR SWAP1 SSTORE MLOAD DUP4 SWAP3 SWAP2 SWAP1 PUSH32 0xDDF252AD1BE2C89B69C2B068FC378DAA952BA7F163C4A11628F55A4DF523B3EF SWAP1 DUP3 SWAP1 LOG4 POP POP JUMP JUMPDEST PUSH1 0x0 PUSH2 0x2A13 DUP3 PUSH2 0xA63 JUMP JUMPDEST SWAP1 POP PUSH2 0x2A23 DUP2 PUSH1 0x0 DUP5 PUSH1 0x1 PUSH2 0x24C9 JUMP JUMPDEST PUSH2 0x2A2C DUP3 PUSH2 0xA63 JUMP JUMPDEST PUSH1 0x0 DUP4 DUP2 MSTORE PUSH1 0x69 PUSH1 0x20 SWAP1 DUP2 MSTORE PUSH1 0x40 DUP1 DUP4 KECCAK256 DUP1 SLOAD PUSH20 0xFFFFFFFFFFFFFFFFFFFFFFFFFFFFFFFFFFFFFFFF NOT SWAP1 DUP2 AND SWAP1 SWAP2 SSTORE PUSH1 0x1 PUSH1 0xA0 PUSH1 0x2 EXP SUB DUP6 AND DUP1 DUP6 MSTORE PUSH1 0x68 DUP5 MSTORE DUP3 DUP6 KECCAK256 DUP1 SLOAD PUSH1 0x0 NOT ADD SWAP1 SSTORE DUP8 DUP6 MSTORE PUSH1 0x67 SWAP1 SWAP4 MSTORE DUP2 DUP5 KECCAK256 DUP1 SLOAD SWAP1 SWAP2 AND SWAP1 SSTORE MLOAD SWAP3 SWAP4 POP DUP5 SWAP3 PUSH32 0xDDF252AD1BE2C89B69C2B068FC378DAA952BA7F163C4A11628F55A4DF523B3EF SWAP1 DUP4 SWAP1 LOG4 POP POP JUMP JUMPDEST PUSH1 0x0 DUP1 PUSH27 0x184F03E93FF9F4DAA797ED6E38ED64BF6A1F010000000000000000 DUP4 LT PUSH2 0x2B01 JUMPI PUSH27 0x184F03E93FF9F4DAA797ED6E38ED64BF6A1F010000000000000000 DUP4 DIV SWAP3 POP PUSH1 0x40 ADD JUMPDEST PUSH14 0x4EE2D6D415B85ACEF8100000000 DUP4 LT PUSH2 0x2B2D JUMPI PUSH14 0x4EE2D6D415B85ACEF8100000000 DUP4 DIV SWAP3 POP PUSH1 0x20 ADD JUMPDEST PUSH7 0x2386F26FC10000 DUP4 LT PUSH2 0x2B4B JUMPI PUSH7 0x2386F26FC10000 DUP4 DIV SWAP3 POP PUSH1 0x10 ADD JUMPDEST PUSH4 0x5F5E100 DUP4 LT PUSH2 0x2B63 JUMPI PUSH4 0x5F5E100 DUP4 DIV SWAP3 POP PUSH1 0x8 ADD JUMPDEST PUSH2 0x2710 DUP4 LT PUSH2 0x2B77 JUMPI PUSH2 0x2710 DUP4 DIV SWAP3 POP PUSH1 0x4 ADD JUMPDEST PUSH1 0x64 DUP4 LT PUSH2 0x2B89 JUMPI PUSH1 0x64 DUP4 DIV SWAP3 POP PUSH1 0x2 ADD JUMPDEST PUSH1 0xA DUP4 LT PUSH2 0x4F4 JUMPI PUSH1 0x1 ADD SWAP3 SWAP2 POP POP JUMP JUMPDEST PUSH1 0x0 PUSH1 0x1 PUSH2 0x2BA7 DUP5 PUSH2 0xC54 JUMP JUMPDEST PUSH2 0x2BB1 SWAP2 SWAP1 PUSH2 0x380C JUMP JUMPDEST PUSH1 0x0 DUP4 DUP2 MSTORE PUSH1 0x98 PUSH1 0x20 MSTORE PUSH1 0x40 SWAP1 KECCAK256 SLOAD SWAP1 SWAP2 POP DUP1 DUP3 EQ PUSH2 0x2C04 JUMPI PUSH1 0x1 PUSH1 0xA0 PUSH1 0x2 EXP SUB DUP5 AND PUSH1 0x0 SWAP1 DUP2 MSTORE PUSH1 0x97 PUSH1 0x20 SWAP1 DUP2 MSTORE PUSH1 0x40 DUP1 DUP4 KECCAK256 DUP6 DUP5 MSTORE DUP3 MSTORE DUP1 DUP4 KECCAK256 SLOAD DUP5 DUP5 MSTORE DUP2 DUP5 KECCAK256 DUP2 SWAP1 SSTORE DUP4 MSTORE PUSH1 0x98 SWAP1 SWAP2 MSTORE SWAP1 KECCAK256 DUP2 SWAP1 SSTORE JUMPDEST POP PUSH1 0x0 SWAP2 DUP3 MSTORE PUSH1 0x98 PUSH1 0x20 SWAP1 DUP2 MSTORE PUSH1 0x40 DUP1 DUP5 KECCAK256 DUP5 SWAP1 SSTORE PUSH1 0x1 PUSH1 0xA0 PUSH1 0x2 EXP SUB SWAP1 SWAP5 AND DUP4 MSTORE PUSH1 0x97 DUP2 MSTORE DUP4 DUP4 KECCAK256 SWAP2 DUP4 MSTORE MSTORE SWAP1 DUP2 KECCAK256 SSTORE JUMP JUMPDEST PUSH1 0x99 SLOAD PUSH1 0x0 SWAP1 PUSH2 0x2C49 SWAP1 PUSH1 0x1 SWAP1 PUSH2 0x380C JUMP JUMPDEST PUSH1 0x0 DUP4 DUP2 MSTORE PUSH1 0x9A PUSH1 0x20 MSTORE PUSH1 0x40 DUP2 KECCAK256 SLOAD PUSH1 0x99 DUP1 SLOAD SWAP4 SWAP5 POP SWAP1 SWAP3 DUP5 SWAP1 DUP2 LT PUSH2 0x2C71 JUMPI PUSH2 0x2C71 PUSH2 0x365B JUMP JUMPDEST SWAP1 PUSH1 0x0 MSTORE PUSH1 0x20 PUSH1 0x0 KECCAK256 ADD SLOAD SWAP1 POP DUP1 PUSH1 0x99 DUP4 DUP2 SLOAD DUP2 LT PUSH2 0x2C92 JUMPI PUSH2 0x2C92 PUSH2 0x365B JUMP JUMPDEST PUSH1 0x0 SWAP2 DUP3 MSTORE PUSH1 0x20 DUP1 DUP4 KECCAK256 SWAP1 SWAP2 ADD SWAP3 SWAP1 SWAP3 SSTORE DUP3 DUP2 MSTORE PUSH1 0x9A SWAP1 SWAP2 MSTORE PUSH1 0x40 DUP1 DUP3 KECCAK256 DUP5 SWAP1 SSTORE DUP6 DUP3 MSTORE DUP2 KECCAK256 SSTORE PUSH1 0x99 DUP1 SLOAD DUP1 PUSH2 0x2CCA JUMPI PUSH2 0x2CCA PUSH2 0x3A11 JUMP JUMPDEST PUSH1 0x1 SWAP1 SUB DUP2 DUP2 SWAP1 PUSH1 0x0 MSTORE PUSH1 0x20 PUSH1 0x0 KECCAK256 ADD PUSH1 0x0 SWAP1 SSTORE SWAP1 SSTORE POP POP POP POP JUMP JUMPDEST PUSH1 0x0 PUSH2 0x2CF1 DUP4 PUSH2 0xC54 JUMP JUMPDEST PUSH1 0x1 PUSH1 0xA0 PUSH1 0x2 EXP SUB SWAP1 SWAP4 AND PUSH1 0x0 SWAP1 DUP2 MSTORE PUSH1 0x97 PUSH1 0x20 SWAP1 DUP2 MSTORE PUSH1 0x40 DUP1 DUP4 KECCAK256 DUP7 DUP5 MSTORE DUP3 MSTORE DUP1 DUP4 KECCAK256 DUP6 SWAP1 SSTORE SWAP4 DUP3 MSTORE PUSH1 0x98 SWAP1 MSTORE SWAP2 SWAP1 SWAP2 KECCAK256 SWAP2 SWAP1 SWAP2 SSTORE POP JUMP JUMPDEST DUP3 DUP1 SLOAD DUP3 DUP3 SSTORE SWAP1 PUSH1 0x0 MSTORE PUSH1 0x20 PUSH1 0x0 KECCAK256 SWAP1 DUP2 ADD SWAP3 DUP3 ISZERO PUSH2 0x2D65 JUMPI SWAP2 PUSH1 0x20 MUL DUP3 ADD JUMPDEST DUP3 DUP2 GT ISZERO PUSH2 0x2D65 JUMPI DUP3 CALLDATALOAD DUP3 SSTORE SWAP2 PUSH1 0x20 ADD SWAP2 SWAP1 PUSH1 0x1 ADD SWAP1 PUSH2 0x2D4A JUMP JUMPDEST POP PUSH2 0x2D71 SWAP3 SWAP2 POP PUSH2 0x2E00 JUMP JUMPDEST POP SWAP1 JUMP JUMPDEST PUSH1 0x40 MLOAD DUP1 PUSH2 0x120 ADD PUSH1 0x40 MSTORE DUP1 PUSH1 0x0 DUP2 MSTORE PUSH1 0x20 ADD PUSH1 0x0 DUP2 MSTORE PUSH1 0x20 ADD PUSH1 0x0 DUP2 MSTORE PUSH1 0x20 ADD PUSH1 0x0 DUP2 MSTORE PUSH1 0x20 ADD PUSH1 0x0 PUSH1 0x1 PUSH1 0xA0 PUSH1 0x2 EXP SUB AND DUP2 MSTORE PUSH1 0x20 ADD PUSH1 0x60 DUP2 MSTORE PUSH1 0x20 ADD PUSH1 0x60 DUP2 MSTORE PUSH1 0x20 ADD PUSH1 0x60 DUP2 MSTORE PUSH1 0x20 ADD PUSH1 0x60 DUP2 MSTORE POP SWAP1 JUMP JUMPDEST POP DUP1 SLOAD PUSH2 0x2DD6 SWAP1 PUSH2 0x361E JUMP JUMPDEST PUSH1 0x0 DUP3 SSTORE DUP1 PUSH1 0x1F LT PUSH2 0x2DE6 JUMPI POP POP JUMP JUMPDEST PUSH1 0x1F ADD PUSH1 0x20 SWAP1 DIV SWAP1 PUSH1 0x0 MSTORE PUSH1 0x20 PUSH1 0x0 KECCAK256 SWAP1 DUP2 ADD SWAP1 PUSH2 0x10C1 SWAP2 SWAP1 JUMPDEST JUMPDEST DUP1 DUP3 GT ISZERO PUSH2 0x2D71 JUMPI PUSH1 0x0 DUP2 SSTORE PUSH1 0x1 ADD PUSH2 0x2E01 JUMP JUMPDEST PUSH1 0x1 PUSH1 0xE0 PUSH1 0x2 EXP SUB NOT DUP2 AND DUP2 EQ PUSH2 0x10C1 JUMPI PUSH1 0x0 DUP1 REVERT JUMPDEST PUSH1 0x0 PUSH1 0x20 DUP3 DUP5 SUB SLT ISZERO PUSH2 0x2E3D JUMPI PUSH1 0x0 DUP1 REVERT JUMPDEST DUP2 CALLDATALOAD PUSH2 0x2427 DUP2 PUSH2 0x2E15 JUMP JUMPDEST PUSH1 0x0 JUMPDEST DUP4 DUP2 LT ISZERO PUSH2 0x2E63 JUMPI DUP2 DUP2 ADD MLOAD DUP4 DUP3 ADD MSTORE PUSH1 0x20 ADD PUSH2 0x2E4B JUMP JUMPDEST POP POP PUSH1 0x0 SWAP2 ADD MSTORE JUMP JUMPDEST PUSH1 0x0 DUP2 MLOAD DUP1 DUP5 MSTORE PUSH2 0x2E84 DUP2 PUSH1 0x20 DUP7 ADD PUSH1 0x20 DUP7 ADD PUSH2 0x2E48 JUMP JUMPDEST PUSH1 0x1F ADD PUSH1 0x1F NOT AND SWAP3 SWAP1 SWAP3 ADD PUSH1 0x20 ADD SWAP3 SWAP2 POP POP JUMP JUMPDEST PUSH1 0x20 DUP2 MSTORE PUSH1 0x0 PUSH2 0x2427 PUSH1 0x20 DUP4 ADD DUP5 PUSH2 0x2E6C JUMP JUMPDEST PUSH1 0x0 PUSH1 0x20 DUP3 DUP5 SUB SLT ISZERO PUSH2 0x2EBD JUMPI PUSH1 0x0 DUP1 REVERT JUMPDEST POP CALLDATALOAD SWAP2 SWAP1 POP JUMP JUMPDEST DUP1 CALLDATALOAD PUSH1 0x1 PUSH1 0xA0 PUSH1 0x2 EXP SUB DUP2 AND DUP2 EQ PUSH2 0x2EDB JUMPI PUSH1 0x0 DUP1 REVERT JUMPDEST SWAP2 SWAP1 POP JUMP JUMPDEST PUSH1 0x0 DUP1 PUSH1 0x40 DUP4 DUP6 SUB SLT ISZERO PUSH2 0x2EF3 JUMPI PUSH1 0x0 DUP1 REVERT JUMPDEST PUSH2 0x2EFC DUP4 PUSH2 0x2EC4 JUMP JUMPDEST SWAP5 PUSH1 0x20 SWAP4 SWAP1 SWAP4 ADD CALLDATALOAD SWAP4 POP POP POP JUMP JUMPDEST PUSH1 0x0 DUP1 PUSH1 0x0 PUSH1 0x60 DUP5 DUP7 SUB SLT ISZERO PUSH2 0x2F1F JUMPI PUSH1 0x0 DUP1 REVERT JUMPDEST PUSH2 0x2F28 DUP5 PUSH2 0x2EC4 JUMP JUMPDEST SWAP3 POP PUSH2 0x2F36 PUSH1 0x20 DUP6 ADD PUSH2 0x2EC4 JUMP JUMPDEST SWAP2 POP PUSH1 0x40 DUP5 ADD CALLDATALOAD SWAP1 POP SWAP3 POP SWAP3 POP SWAP3 JUMP JUMPDEST PUSH1 0x0 DUP1 DUP4 PUSH1 0x1F DUP5 ADD SLT PUSH2 0x2F58 JUMPI PUSH1 0x0 DUP1 REVERT JUMPDEST POP DUP2 CALLDATALOAD PUSH8 0xFFFFFFFFFFFFFFFF DUP2 GT ISZERO PUSH2 0x2F70 JUMPI PUSH1 0x0 DUP1 REVERT JUMPDEST PUSH1 0x20 DUP4 ADD SWAP2 POP DUP4 PUSH1 0x20 DUP1 DUP4 MUL DUP6 ADD ADD GT ISZERO PUSH2 0x2F8A JUMPI PUSH1 0x0 DUP1 REVERT JUMPDEST SWAP3 POP SWAP3 SWAP1 POP JUMP JUMPDEST PUSH1 0x0 DUP1 DUP4 PUSH1 0x1F DUP5 ADD SLT PUSH2 0x2FA3 JUMPI PUSH1 0x0 DUP1 REVERT JUMPDEST POP DUP2 CALLDATALOAD PUSH8 0xFFFFFFFFFFFFFFFF DUP2 GT ISZERO PUSH2 0x2FBB JUMPI PUSH1 0x0 DUP1 REVERT JUMPDEST PUSH1 0x20 DUP4 ADD SWAP2 POP DUP4 PUSH1 0x20 DUP3 DUP6 ADD ADD GT ISZERO PUSH2 0x2F8A JUMPI PUSH1 0x0 DUP1 REVERT JUMPDEST PUSH1 0x0 DUP1 PUSH1 0x0 DUP1 PUSH1 0x0 DUP1 PUSH1 0x0 PUSH1 0xA0 DUP9 DUP11 SUB SLT ISZERO PUSH2 0x2FEE JUMPI PUSH1 0x0 DUP1 REVERT JUMPDEST PUSH2 0x2FF7 DUP9 PUSH2 0x2EC4 JUMP JUMPDEST SWAP7 POP PUSH1 0x20 DUP9 ADD CALLDATALOAD SWAP6 POP PUSH1 0x40 DUP9 ADD CALLDATALOAD SWAP5 POP PUSH1 0x60 DUP9 ADD CALLDATALOAD PUSH8 0xFFFFFFFFFFFFFFFF DUP1 DUP3 GT ISZERO PUSH2 0x3022 JUMPI PUSH1 0x0 DUP1 REVERT JUMPDEST PUSH2 0x302E DUP12 DUP4 DUP13 ADD PUSH2 0x2F46 JUMP JUMPDEST SWAP1 SWAP7 POP SWAP5 POP PUSH1 0x80 DUP11 ADD CALLDATALOAD SWAP2 POP DUP1 DUP3 GT ISZERO PUSH2 0x3047 JUMPI PUSH1 0x0 DUP1 REVERT JUMPDEST POP PUSH2 0x3054 DUP11 DUP3 DUP12 ADD PUSH2 0x2F91 JUMP JUMPDEST SWAP9 SWAP12 SWAP8 SWAP11 POP SWAP6 SWAP9 POP SWAP4 SWAP7 SWAP3 SWAP6 SWAP3 SWAP4 POP POP POP JUMP JUMPDEST PUSH1 0xE0 PUSH1 0x2 EXP PUSH4 0x4E487B71 MUL PUSH1 0x0 MSTORE PUSH1 0x41 PUSH1 0x4 MSTORE PUSH1 0x24 PUSH1 0x0 REVERT JUMPDEST PUSH1 0x0 PUSH8 0xFFFFFFFFFFFFFFFF DUP1 DUP5 GT ISZERO PUSH2 0x309B JUMPI PUSH2 0x309B PUSH2 0x3067 JUMP JUMPDEST PUSH1 0x40 MLOAD PUSH1 0x1F DUP6 ADD PUSH1 0x1F NOT SWAP1 DUP2 AND PUSH1 0x3F ADD AND DUP2 ADD SWAP1 DUP3 DUP3 GT DUP2 DUP4 LT OR ISZERO PUSH2 0x30C3 JUMPI PUSH2 0x30C3 PUSH2 0x3067 JUMP JUMPDEST DUP2 PUSH1 0x40 MSTORE DUP1 SWAP4 POP DUP6 DUP2 MSTORE DUP7 DUP7 DUP7 ADD GT ISZERO PUSH2 0x30DC JUMPI PUSH1 0x0 DUP1 REVERT JUMPDEST DUP6 DUP6 PUSH1 0x20 DUP4 ADD CALLDATACOPY PUSH1 0x0 PUSH1 0x20 DUP8 DUP4 ADD ADD MSTORE POP POP POP SWAP4 SWAP3 POP POP POP JUMP JUMPDEST PUSH1 0x0 DUP3 PUSH1 0x1F DUP4 ADD SLT PUSH2 0x3107 JUMPI PUSH1 0x0 DUP1 REVERT JUMPDEST PUSH2 0x2427 DUP4 DUP4 CALLDATALOAD PUSH1 0x20 DUP6 ADD PUSH2 0x3080 JUMP JUMPDEST PUSH1 0x0 PUSH1 0x20 DUP3 DUP5 SUB SLT ISZERO PUSH2 0x3128 JUMPI PUSH1 0x0 DUP1 REVERT JUMPDEST DUP2 CALLDATALOAD PUSH8 0xFFFFFFFFFFFFFFFF DUP2 GT ISZERO PUSH2 0x313F JUMPI PUSH1 0x0 DUP1 REVERT JUMPDEST PUSH2 0x1D79 DUP5 DUP3 DUP6 ADD PUSH2 0x30F6 JUMP JUMPDEST PUSH1 0x0 DUP1 PUSH1 0x0 PUSH1 0x40 DUP5 DUP7 SUB SLT ISZERO PUSH2 0x3160 JUMPI PUSH1 0x0 DUP1 REVERT JUMPDEST DUP4 CALLDATALOAD SWAP3 POP PUSH1 0x20 DUP5 ADD CALLDATALOAD PUSH8 0xFFFFFFFFFFFFFFFF DUP2 GT ISZERO PUSH2 0x317E JUMPI PUSH1 0x0 DUP1 REVERT JUMPDEST PUSH2 0x318A DUP7 DUP3 DUP8 ADD PUSH2 0x2F46 JUMP JUMPDEST SWAP5 SWAP8 SWAP1 SWAP7 POP SWAP4 SWAP5 POP POP POP POP JUMP JUMPDEST PUSH1 0x0 PUSH1 0x20 DUP3 DUP5 SUB SLT ISZERO PUSH2 0x31A9 JUMPI PUSH1 0x0 DUP1 REVERT JUMPDEST PUSH2 0x2427 DUP3 PUSH2 0x2EC4 JUMP JUMPDEST PUSH1 0x0 DUP1 PUSH1 0x0 DUP1 PUSH1 0x0 DUP1 PUSH1 0x0 PUSH1 0xA0 DUP9 DUP11 SUB SLT ISZERO PUSH2 0x31CD JUMPI PUSH1 0x0 DUP1 REVERT JUMPDEST DUP8 CALLDATALOAD SWAP7 POP PUSH1 0x20 DUP9 ADD CALLDATALOAD SWAP6 POP PUSH1 0x40 DUP9 ADD CALLDATALOAD SWAP5 POP PUSH1 0x60 DUP9 ADD CALLDATALOAD PUSH8 0xFFFFFFFFFFFFFFFF DUP1 DUP3 GT ISZERO PUSH2 0x31FA JUMPI PUSH1 0x0 DUP1 REVERT JUMPDEST PUSH2 0x3206 DUP12 DUP4 DUP13 ADD PUSH2 0x2F46 JUMP JUMPDEST SWAP1 SWAP7 POP SWAP5 POP PUSH1 0x80 DUP11 ADD CALLDATALOAD SWAP2 POP DUP1 DUP3 GT ISZERO PUSH2 0x321F JUMPI PUSH1 0x0 DUP1 REVERT JUMPDEST POP PUSH2 0x3054 DUP11 DUP3 DUP12 ADD PUSH2 0x2F46 JUMP JUMPDEST PUSH1 0x0 DUP1 PUSH1 0x0 PUSH1 0x40 DUP5 DUP7 SUB SLT ISZERO PUSH2 0x3241 JUMPI PUSH1 0x0 DUP1 REVERT JUMPDEST DUP4 CALLDATALOAD SWAP3 POP PUSH1 0x20 DUP5 ADD CALLDATALOAD PUSH8 0xFFFFFFFFFFFFFFFF DUP2 GT ISZERO PUSH2 0x325F JUMPI PUSH1 0x0 DUP1 REVERT JUMPDEST PUSH2 0x318A DUP7 DUP3 DUP8 ADD PUSH2 0x2F91 JUMP JUMPDEST PUSH1 0x0 DUP1 PUSH1 0x40 DUP4 DUP6 SUB SLT ISZERO PUSH2 0x327E JUMPI PUSH1 0x0 DUP1 REVERT JUMPDEST PUSH2 0x3287 DUP4 PUSH2 0x2EC4 JUMP JUMPDEST SWAP2 POP PUSH1 0x20 DUP4 ADD CALLDATALOAD DUP1 ISZERO ISZERO DUP2 EQ PUSH2 0x329C JUMPI PUSH1 0x0 DUP1 REVERT JUMPDEST DUP1 SWAP2 POP POP SWAP3 POP SWAP3 SWAP1 POP JUMP JUMPDEST PUSH1 0x0 DUP1 PUSH1 0x0 DUP1 PUSH1 0x0 PUSH1 0xA0 DUP7 DUP9 SUB SLT ISZERO PUSH2 0x32BF JUMPI PUSH1 0x0 DUP1 REVERT JUMPDEST PUSH2 0x32C8 DUP7 PUSH2 0x2EC4 JUMP JUMPDEST SWAP5 POP PUSH1 0x20 DUP7 ADD CALLDATALOAD PUSH8 0xFFFFFFFFFFFFFFFF DUP2 GT ISZERO PUSH2 0x32E4 JUMPI PUSH1 0x0 DUP1 REVERT JUMPDEST PUSH2 0x32F0 DUP9 DUP3 DUP10 ADD PUSH2 0x30F6 JUMP JUMPDEST SWAP6 SWAP9 SWAP6 SWAP8 POP POP POP POP PUSH1 0x40 DUP5 ADD CALLDATALOAD SWAP4 PUSH1 0x60 DUP2 ADD CALLDATALOAD SWAP4 PUSH1 0x80 SWAP1 SWAP2 ADD CALLDATALOAD SWAP3 POP SWAP1 POP JUMP JUMPDEST PUSH1 0x0 DUP1 PUSH1 0x0 DUP1 PUSH1 0x80 DUP6 DUP8 SUB SLT ISZERO PUSH2 0x3326 JUMPI PUSH1 0x0 DUP1 REVERT JUMPDEST PUSH2 0x332F DUP6 PUSH2 0x2EC4 JUMP JUMPDEST SWAP4 POP PUSH2 0x333D PUSH1 0x20 DUP7 ADD PUSH2 0x2EC4 JUMP JUMPDEST SWAP3 POP PUSH1 0x40 DUP6 ADD CALLDATALOAD SWAP2 POP PUSH1 0x60 DUP6 ADD CALLDATALOAD PUSH8 0xFFFFFFFFFFFFFFFF DUP2 GT ISZERO PUSH2 0x3360 JUMPI PUSH1 0x0 DUP1 REVERT JUMPDEST DUP6 ADD PUSH1 0x1F DUP2 ADD DUP8 SGT PUSH2 0x3371 JUMPI PUSH1 0x0 DUP1 REVERT JUMPDEST PUSH2 0x3380 DUP8 DUP3 CALLDATALOAD PUSH1 0x20 DUP5 ADD PUSH2 0x3080 JUMP JUMPDEST SWAP2 POP POP SWAP3 SWAP6 SWAP2 SWAP5 POP SWAP3 POP JUMP JUMPDEST PUSH1 0x0 DUP1 PUSH1 0x0 DUP1 PUSH1 0x0 DUP1 PUSH1 0xA0 DUP8 DUP10 SUB SLT ISZERO PUSH2 0x33A5 JUMPI PUSH1 0x0 DUP1 REVERT JUMPDEST DUP7 CALLDATALOAD SWAP6 POP PUSH1 0x20 DUP8 ADD CALLDATALOAD SWAP5 POP PUSH1 0x40 DUP8 ADD CALLDATALOAD SWAP4 POP PUSH1 0x60 DUP8 ADD CALLDATALOAD SWAP3 POP PUSH1 0x80 DUP8 ADD CALLDATALOAD PUSH8 0xFFFFFFFFFFFFFFFF DUP2 GT ISZERO PUSH2 0x33D8 JUMPI PUSH1 0x0 DUP1 REVERT JUMPDEST PUSH2 0x33E4 DUP10 DUP3 DUP11 ADD PUSH2 0x2F91 JUMP JUMPDEST SWAP8 SWAP11 SWAP7 SWAP10 POP SWAP5 SWAP8 POP SWAP3 SWAP6 SWAP4 SWAP5 SWAP3 POP POP POP JUMP JUMPDEST PUSH1 0x0 DUP2 MLOAD DUP1 DUP5 MSTORE PUSH1 0x20 DUP1 DUP6 ADD SWAP5 POP DUP1 DUP5 ADD PUSH1 0x0 JUMPDEST DUP4 DUP2 LT ISZERO PUSH2 0x3426 JUMPI DUP2 MLOAD DUP8 MSTORE SWAP6 DUP3 ADD SWAP6 SWAP1 DUP3 ADD SWAP1 PUSH1 0x1 ADD PUSH2 0x340A JUMP JUMPDEST POP SWAP5 SWAP6 SWAP5 POP POP POP POP POP JUMP JUMPDEST PUSH1 0xE0 PUSH1 0x2 EXP PUSH4 0x4E487B71 MUL PUSH1 0x0 MSTORE PUSH1 0x21 PUSH1 0x4 MSTORE PUSH1 0x24 PUSH1 0x0 REVERT JUMPDEST PUSH1 0x0 DUP2 MLOAD DUP1 DUP5 MSTORE PUSH1 0x20 DUP1 DUP6 ADD SWAP5 POP DUP1 DUP5 ADD PUSH1 0x0 DUP1 JUMPDEST DUP5 DUP2 LT ISZERO PUSH2 0x34B9 JUMPI DUP3 MLOAD PUSH1 0x1 PUSH1 0xA0 PUSH1 0x2 EXP SUB DUP2 MLOAD AND DUP10 MSTORE DUP5 DUP2 ADD MLOAD PUSH1 0x6 DUP2 LT PUSH2 0x3499 JUMPI PUSH1 0xE0 PUSH1 0x2 EXP PUSH4 0x4E487B71 MUL DUP5 MSTORE PUSH1 0x21 PUSH1 0x4 MSTORE PUSH1 0x24 DUP5 REVERT JUMPDEST DUP10 DUP7 ADD MSTORE PUSH1 0x40 SWAP1 DUP2 ADD MLOAD SWAP1 DUP10 ADD MSTORE PUSH1 0x60 SWAP1 SWAP8 ADD SWAP7 SWAP2 DUP4 ADD SWAP2 PUSH1 0x1 ADD PUSH2 0x345F JUMP JUMPDEST POP SWAP6 SWAP7 SWAP6 POP POP POP POP POP POP JUMP JUMPDEST PUSH1 0x0 PUSH2 0x120 DUP3 MLOAD DUP5 MSTORE PUSH1 0x20 DUP4 ADD MLOAD PUSH1 0x20 DUP6 ADD MSTORE PUSH1 0x40 DUP4 ADD MLOAD PUSH1 0x40 DUP6 ADD MSTORE PUSH1 0x60 DUP4 ADD MLOAD PUSH1 0x60 DUP6 ADD MSTORE PUSH1 0x80 DUP4 ADD MLOAD PUSH2 0x3506 PUSH1 0x80 DUP7 ADD DUP3 PUSH1 0x1 PUSH1 0xA0 PUSH1 0x2 EXP SUB AND SWAP1 MSTORE JUMP JUMPDEST POP PUSH1 0xA0 DUP4 ADD MLOAD DUP2 PUSH1 0xA0 DUP7 ADD MSTORE PUSH2 0x351E DUP3 DUP7 ADD DUP3 PUSH2 0x33F6 JUMP JUMPDEST SWAP2 POP POP PUSH1 0xC0 DUP4 ADD MLOAD DUP5 DUP3 SUB PUSH1 0xC0 DUP7 ADD MSTORE PUSH2 0x3538 DUP3 DUP3 PUSH2 0x33F6 JUMP JUMPDEST SWAP2 POP POP PUSH1 0xE0 DUP4 ADD MLOAD DUP5 DUP3 SUB PUSH1 0xE0 DUP7 ADD MSTORE PUSH2 0x3552 DUP3 DUP3 PUSH2 0x344A JUMP JUMPDEST SWAP2 POP POP PUSH2 0x100 DUP1 DUP5 ADD MLOAD DUP6 DUP4 SUB DUP3 DUP8 ADD MSTORE PUSH2 0x356D DUP4 DUP3 PUSH2 0x2E6C JUMP JUMPDEST SWAP7 SWAP6 POP POP POP POP POP POP JUMP JUMPDEST PUSH1 0x0 PUSH1 0x20 DUP1 DUP4 ADD DUP2 DUP5 MSTORE DUP1 DUP6 MLOAD DUP1 DUP4 MSTORE PUSH1 0x40 DUP7 ADD SWAP2 POP PUSH1 0x40 DUP5 DUP3 MUL DUP8 ADD ADD SWAP3 POP DUP4 DUP8 ADD PUSH1 0x0 JUMPDEST DUP3 DUP2 LT ISZERO PUSH2 0x35CB JUMPI PUSH1 0x3F NOT DUP9 DUP7 SUB ADD DUP5 MSTORE PUSH2 0x35B9 DUP6 DUP4 MLOAD PUSH2 0x34C5 JUMP JUMPDEST SWAP5 POP SWAP3 DUP6 ADD SWAP3 SWAP1 DUP6 ADD SWAP1 PUSH1 0x1 ADD PUSH2 0x359D JUMP JUMPDEST POP SWAP3 SWAP8 SWAP7 POP POP POP POP POP POP POP JUMP JUMPDEST PUSH1 0x0 DUP1 PUSH1 0x40 DUP4 DUP6 SUB SLT ISZERO PUSH2 0x35EB JUMPI PUSH1 0x0 DUP1 REVERT JUMPDEST PUSH2 0x35F4 DUP4 PUSH2 0x2EC4 JUMP JUMPDEST SWAP2 POP PUSH2 0x3602 PUSH1 0x20 DUP5 ADD PUSH2 0x2EC4 JUMP JUMPDEST SWAP1 POP SWAP3 POP SWAP3 SWAP1 POP JUMP JUMPDEST PUSH1 0x20 DUP2 MSTORE PUSH1 0x0 PUSH2 0x2427 PUSH1 0x20 DUP4 ADD DUP5 PUSH2 0x34C5 JUMP JUMPDEST PUSH1 0x2 DUP2 DIV PUSH1 0x1 DUP3 AND DUP1 PUSH2 0x3632 JUMPI PUSH1 0x7F DUP3 AND SWAP2 POP JUMPDEST PUSH1 0x20 DUP3 LT DUP2 SUB PUSH2 0x3655 JUMPI PUSH1 0xE0 PUSH1 0x2 EXP PUSH4 0x4E487B71 MUL PUSH1 0x0 MSTORE PUSH1 0x22 PUSH1 0x4 MSTORE PUSH1 0x24 PUSH1 0x0 REVERT JUMPDEST POP SWAP2 SWAP1 POP JUMP JUMPDEST PUSH1 0xE0 PUSH1 0x2 EXP PUSH4 0x4E487B71 MUL PUSH1 0x0 MSTORE PUSH1 0x32 PUSH1 0x4 MSTORE PUSH1 0x24 PUSH1 0x0 REVERT JUMPDEST PUSH1 0xE0 PUSH1 0x2 EXP PUSH4 0x4E487B71 MUL PUSH1 0x0 MSTORE PUSH1 0x11 PUSH1 0x4 MSTORE PUSH1 0x24 PUSH1 0x0 REVERT JUMPDEST DUP1 DUP3 ADD DUP1 DUP3 GT ISZERO PUSH2 0x4F4 JUMPI PUSH2 0x4F4 PUSH2 0x3674 JUMP JUMPDEST PUSH1 0x0 PUSH1 0x1 DUP3 ADD PUSH2 0x36B2 JUMPI PUSH2 0x36B2 PUSH2 0x3674 JUMP JUMPDEST POP PUSH1 0x1 ADD SWAP1 JUMP JUMPDEST PUSH1 0x1F DUP3 GT ISZERO PUSH2 0x6EA JUMPI PUSH1 0x0 DUP2 DUP2 MSTORE PUSH1 0x20 DUP2 KECCAK256 PUSH1 0x20 PUSH1 0x1F DUP7 ADD DIV DUP2 ADD PUSH1 0x20 DUP7 LT ISZERO PUSH2 0x36E0 JUMPI POP DUP1 JUMPDEST PUSH1 0x20 PUSH1 0x1F DUP7 ADD DIV DUP3 ADD SWAP2 POP JUMPDEST DUP2 DUP2 LT ISZERO PUSH2 0x1137 JUMPI DUP3 DUP2 SSTORE PUSH1 0x1 ADD PUSH2 0x36EC JUMP JUMPDEST DUP2 MLOAD PUSH8 0xFFFFFFFFFFFFFFFF DUP2 GT ISZERO PUSH2 0x3719 JUMPI PUSH2 0x3719 PUSH2 0x3067 JUMP JUMPDEST PUSH2 0x372D DUP2 PUSH2 0x3727 DUP5 SLOAD PUSH2 0x361E JUMP JUMPDEST DUP5 PUSH2 0x36B9 JUMP JUMPDEST PUSH1 0x20 DUP1 PUSH1 0x1F DUP4 GT PUSH1 0x1 DUP2 EQ PUSH2 0x3766 JUMPI PUSH1 0x0 DUP5 ISZERO PUSH2 0x374A JUMPI POP DUP6 DUP4 ADD MLOAD JUMPDEST PUSH1 0x2 DUP1 DUP7 MUL PUSH1 0x8 DUP8 MUL SWAP1 SWAP2 EXP PUSH1 0x0 NOT DIV NOT DUP3 AND OR DUP7 SSTORE POP PUSH2 0x1137 JUMP JUMPDEST PUSH1 0x0 DUP6 DUP2 MSTORE PUSH1 0x20 DUP2 KECCAK256 PUSH1 0x1F NOT DUP7 AND SWAP2 JUMPDEST DUP3 DUP2 LT ISZERO PUSH2 0x3795 JUMPI DUP9 DUP7 ADD MLOAD DUP3 SSTORE SWAP5 DUP5 ADD SWAP5 PUSH1 0x1 SWAP1 SWAP2 ADD SWAP1 DUP5 ADD PUSH2 0x3776 JUMP JUMPDEST POP DUP6 DUP3 LT ISZERO PUSH2 0x37B5 JUMPI DUP8 DUP6 ADD MLOAD PUSH1 0x8 PUSH1 0x1F DUP9 AND MUL PUSH1 0x2 EXP PUSH1 0x0 NOT DIV NOT AND DUP2 SSTORE JUMPDEST POP POP POP POP POP PUSH1 0x2 MUL PUSH1 0x1 ADD SWAP1 SSTORE POP JUMP JUMPDEST PUSH1 0x0 DUP1 DUP4 CALLDATALOAD PUSH1 0x1E NOT DUP5 CALLDATASIZE SUB ADD DUP2 SLT PUSH2 0x37DC JUMPI PUSH1 0x0 DUP1 REVERT JUMPDEST DUP4 ADD DUP1 CALLDATALOAD SWAP2 POP PUSH8 0xFFFFFFFFFFFFFFFF DUP3 GT ISZERO PUSH2 0x37F7 JUMPI PUSH1 0x0 DUP1 REVERT JUMPDEST PUSH1 0x20 ADD SWAP2 POP CALLDATASIZE DUP2 SWAP1 SUB DUP3 SGT ISZERO PUSH2 0x2F8A JUMPI PUSH1 0x0 DUP1 REVERT JUMPDEST DUP2 DUP2 SUB DUP2 DUP2 GT ISZERO PUSH2 0x4F4 JUMPI PUSH2 0x4F4 PUSH2 0x3674 JUMP JUMPDEST PUSH1 0x20 DUP1 DUP3 MSTORE PUSH1 0x2D SWAP1 DUP3 ADD MSTORE PUSH32 0x4552433732313A2063616C6C6572206973206E6F7420746F6B656E206F776E65 PUSH1 0x40 DUP3 ADD MSTORE PUSH32 0x72206F7220617070726F76656400000000000000000000000000000000000000 PUSH1 0x60 DUP3 ADD MSTORE PUSH1 0x80 ADD SWAP1 JUMP JUMPDEST PUSH1 0x20 DUP1 DUP3 MSTORE PUSH1 0x2B SWAP1 DUP3 ADD MSTORE PUSH32 0x496E697469616C697A61626C653A20636F6E7472616374206973206E6F742069 PUSH1 0x40 DUP3 ADD MSTORE PUSH32 0x6E697469616C697A696E67000000000000000000000000000000000000000000 PUSH1 0x60 DUP3 ADD MSTORE PUSH1 0x80 ADD SWAP1 JUMP JUMPDEST PUSH1 0x0 DUP4 MLOAD PUSH2 0x38EB DUP2 DUP5 PUSH1 0x20 DUP9 ADD PUSH2 0x2E48 JUMP JUMPDEST DUP4 MLOAD SWAP1 DUP4 ADD SWAP1 PUSH2 0x38FF DUP2 DUP4 PUSH1 0x20 DUP9 ADD PUSH2 0x2E48 JUMP JUMPDEST ADD SWAP5 SWAP4 POP POP POP POP JUMP JUMPDEST PUSH1 0x20 DUP1 DUP3 MSTORE PUSH1 0x25 SWAP1 DUP3 ADD MSTORE PUSH32 0x4552433732313A207472616E736665722066726F6D20696E636F727265637420 PUSH1 0x40 DUP3 ADD MSTORE PUSH32 0x6F776E6572000000000000000000000000000000000000000000000000000000 PUSH1 0x60 DUP3 ADD MSTORE PUSH1 0x80 ADD SWAP1 JUMP JUMPDEST PUSH1 0x20 DUP1 DUP3 MSTORE PUSH1 0x32 SWAP1 DUP3 ADD MSTORE PUSH32 0x4552433732313A207472616E7366657220746F206E6F6E204552433732315265 PUSH1 0x40 DUP3 ADD MSTORE PUSH32 0x63656976657220696D706C656D656E7465720000000000000000000000000000 PUSH1 0x60 DUP3 ADD MSTORE PUSH1 0x80 ADD SWAP1 JUMP JUMPDEST PUSH1 0x0 PUSH1 0x1 PUSH1 0xA0 PUSH1 0x2 EXP SUB DUP1 DUP8 AND DUP4 MSTORE DUP1 DUP7 AND PUSH1 0x20 DUP5 ADD MSTORE POP DUP4 PUSH1 0x40 DUP4 ADD MSTORE PUSH1 0x80 PUSH1 0x60 DUP4 ADD MSTORE PUSH2 0x356D PUSH1 0x80 DUP4 ADD DUP5 PUSH2 0x2E6C JUMP JUMPDEST PUSH1 0x0 PUSH1 0x20 DUP3 DUP5 SUB SLT ISZERO PUSH2 0x3A06 JUMPI PUSH1 0x0 DUP1 REVERT JUMPDEST DUP2 MLOAD PUSH2 0x2427 DUP2 PUSH2 0x2E15 JUMP JUMPDEST PUSH1 0xE0 PUSH1 0x2 EXP PUSH4 0x4E487B71 MUL PUSH1 0x0 MSTORE PUSH1 0x31 PUSH1 0x4 MSTORE PUSH1 0x24 PUSH1 0x0 REVERT INVALID LOG2 PUSH5 0x6970667358 0x22 SLT KECCAK256 0x5C 0xDD PUSH5 0x2ED0D95B57 0xB1 AND RETURN SAR RETURNDATACOPY BLOCKHASH JUMPDEST 0xAA 0xD0 DUP6 DUP15 0xBD DUP7 DUP16 PUSH16 0xEDC8163AF944507AD964736F6C634300 ADDMOD GT STOP CALLER "},"methodIdentifiers":{"add(uint256,uint256[])":"65260be4","approve(address,uint256)":"095ea7b3","balanceOf(address)":"70a08231","burn(uint256)":"42966c68","editMetadata(uint256,string)":"83219a8a","getApproved(uint256)":"081812fc","getAsset(uint256)":"eac8f5b8","getBaseURI()":"714c5398","getGroup(uint256)":"ceb60654","initialize()":"8129fc1c","isApprovedForAll(address,address)":"e985e9c5","name()":"06fdde03","owner()":"8da5cb5b","ownerOf(uint256)":"6352211e","register(address,string,uint256,uint256,uint256)":"a231bdf8","renounceOwnership()":"715018a6","safeTransferFrom(address,address,uint256)":"42842e0e","safeTransferFrom(address,address,uint256,bytes)":"b88d4fde","setApprovalForAll(address,bool)":"a22cb465","setBaseURI(string)":"55f804b3","splitDifferent(uint256,uint256,uint256,uint256[],string[])":"77f83471","splitSame(uint256,uint256,uint256,uint256,string)":"c152f728","supportsInterface(bytes4)":"01ffc9a7","symbol()":"95d89b41","tokenByIndex(uint256)":"4f6ccce7","tokenOfOwnerByIndex(address,uint256)":"2f745c59","tokenURI(uint256)":"c87b56dd","totalSupply()":"18160ddd","transferFrom(address,address,uint256)":"23b872dd","transferOwnership(address)":"f2fde38b","transform(uint256,uint256,uint256,uint256,string)":"e428e010","union(address,uint256,uint256,uint256[],string)":"3bd74985"}},"storageLayout":{"storage":[{"astId":167,"contract":"contracts/AssetTraceabilityV2.sol:AssetTraceabilityV2","label":"_initialized","offset":0,"slot":"0","type":"t_uint8"},{"astId":170,"contract":"contracts/AssetTraceabilityV2.sol:AssetTraceabilityV2","label":"_initializing","offset":1,"slot":"0","type":"t_bool"},{"astId":2457,"contract":"contracts/AssetTraceabilityV2.sol:AssetTraceabilityV2","label":"__gap","offset":0,"slot":"1","type":"t_array(t_uint256)50_storage"},{"astId":2731,"contract":"contracts/AssetTraceabilityV2.sol:AssetTraceabilityV2","label":"__gap","offset":0,"slot":"51","type":"t_array(t_uint256)50_storage"},{"astId":359,"contract":"contracts/AssetTraceabilityV2.sol:AssetTraceabilityV2","label":"_name","offset":0,"slot":"101","type":"t_string_storage"},{"astId":361,"contract":"contracts/AssetTraceabilityV2.sol:AssetTraceabilityV2","label":"_symbol","offset":0,"slot":"102","type":"t_string_storage"},{"astId":365,"contract":"contracts/AssetTraceabilityV2.sol:AssetTraceabilityV2","label":"_owners","offset":0,"slot":"103","type":"t_mapping(t_uint256,t_address)"},{"astId":369,"contract":"contracts/AssetTraceabilityV2.sol:AssetTraceabilityV2","label":"_balances","offset":0,"slot":"104","type":"t_mapping(t_address,t_uint256)"},{"astId":373,"contract":"contracts/AssetTraceabilityV2.sol:AssetTraceabilityV2","label":"_tokenApprovals","offset":0,"slot":"105","type":"t_mapping(t_uint256,t_address)"},{"astId":379,"contract":"contracts/AssetTraceabilityV2.sol:AssetTraceabilityV2","label":"_operatorApprovals","offset":0,"slot":"106","type":"t_mapping(t_address,t_mapping(t_address,t_bool))"},{"astId":1281,"contract":"contracts/AssetTraceabilityV2.sol:AssetTraceabilityV2","label":"__gap","offset":0,"slot":"107","type":"t_array(t_uint256)44_storage"},{"astId":1486,"contract":"contracts/AssetTraceabilityV2.sol:AssetTraceabilityV2","label":"_ownedTokens","offset":0,"slot":"151","type":"t_mapping(t_address,t_mapping(t_uint256,t_uint256))"},{"astId":1490,"contract":"contracts/AssetTraceabilityV2.sol:AssetTraceabilityV2","label":"_ownedTokensIndex","offset":0,"slot":"152","type":"t_mapping(t_uint256,t_uint256)"},{"astId":1493,"contract":"contracts/AssetTraceabilityV2.sol:AssetTraceabilityV2","label":"_allTokens","offset":0,"slot":"153","type":"t_array(t_uint256)dyn_storage"},{"astId":1497,"contract":"contracts/AssetTraceabilityV2.sol:AssetTraceabilityV2","label":"_allTokensIndex","offset":0,"slot":"154","type":"t_mapping(t_uint256,t_uint256)"},{"astId":1841,"contract":"contracts/AssetTraceabilityV2.sol:AssetTraceabilityV2","label":"__gap","offset":0,"slot":"155","type":"t_array(t_uint256)46_storage"},{"astId":1862,"contract":"contracts/AssetTraceabilityV2.sol:AssetTraceabilityV2","label":"_tokenURIs","offset":0,"slot":"201","type":"t_mapping(t_uint256,t_string_storage)"},{"astId":2018,"contract":"contracts/AssetTraceabilityV2.sol:AssetTraceabilityV2","label":"__gap","offset":0,"slot":"202","type":"t_array(t_uint256)49_storage"},{"astId":1466,"contract":"contracts/AssetTraceabilityV2.sol:AssetTraceabilityV2","label":"__gap","offset":0,"slot":"251","type":"t_array(t_uint256)50_storage"},{"astId":11,"contract":"contracts/AssetTraceabilityV2.sol:AssetTraceabilityV2","label":"_owner","offset":0,"slot":"301","type":"t_address"},{"astId":131,"contract":"contracts/AssetTraceabilityV2.sol:AssetTraceabilityV2","label":"__gap","offset":0,"slot":"302","type":"t_array(t_uint256)49_storage"},{"astId":3848,"contract":"contracts/AssetTraceabilityV2.sol:AssetTraceabilityV2","label":"baseUri","offset":0,"slot":"351","type":"t_string_storage"},{"astId":3851,"contract":"contracts/AssetTraceabilityV2.sol:AssetTraceabilityV2","label":"_tokenIdCounter","offset":0,"slot":"352","type":"t_struct(Counter)3721_storage"},{"astId":3856,"contract":"contracts/AssetTraceabilityV2.sol:AssetTraceabilityV2","label":"assetTypes","offset":0,"slot":"353","type":"t_mapping(t_uint256,t_array(t_uint256)dyn_storage)"},{"astId":3861,"contract":"contracts/AssetTraceabilityV2.sol:AssetTraceabilityV2","label":"assetGroups","offset":0,"slot":"354","type":"t_mapping(t_uint256,t_array(t_uint256)dyn_storage)"},{"astId":3866,"contract":"contracts/AssetTraceabilityV2.sol:AssetTraceabilityV2","label":"assets","offset":0,"slot":"355","type":"t_mapping(t_uint256,t_struct(Asset)3900_storage)"}],"types":{"t_address":{"encoding":"inplace","label":"address","numberOfBytes":"20"},"t_array(t_struct(LogItem)3881_storage)dyn_storage":{"base":"t_struct(LogItem)3881_storage","encoding":"dynamic_array","label":"struct AssetTraceability.LogItem[]","numberOfBytes":"32"},"t_array(t_uint256)44_storage":{"base":"t_uint256","encoding":"inplace","label":"uint256[44]","numberOfBytes":"1408"},"t_array(t_uint256)46_storage":{"base":"t_uint256","encoding":"inplace","label":"uint256[46]","numberOfBytes":"1472"},"t_array(t_uint256)49_storage":{"base":"t_uint256","encoding":"inplace","label":"uint256[49]","numberOfBytes":"1568"},"t_array(t_uint256)50_storage":{"base":"t_uint256","encoding":"inplace","label":"uint256[50]","numberOfBytes":"1600"},"t_array(t_uint256)dyn_storage":{"base":"t_uint256","encoding":"dynamic_array","label":"uint256[]","numberOfBytes":"32"},"t_bool":{"encoding":"inplace","label":"bool","numberOfBytes":"1"},"t_enum(OperationType)3873":{"encoding":"inplace","label":"enum AssetTraceability.OperationType","numberOfBytes":"1"},"t_mapping(t_address,t_bool)":{"encoding":"mapping","key":"t_address","label":"mapping(address => bool)","numberOfBytes":"32","value":"t_bool"},"t_mapping(t_address,t_mapping(t_address,t_bool))":{"encoding":"mapping","key":"t_address","label":"mapping(address => mapping(address => bool))","numberOfBytes":"32","value":"t_mapping(t_address,t_bool)"},"t_mapping(t_address,t_mapping(t_uint256,t_uint256))":{"encoding":"mapping","key":"t_address","label":"mapping(address => mapping(uint256 => uint256))","numberOfBytes":"32","value":"t_mapping(t_uint256,t_uint256)"},"t_mapping(t_address,t_uint256)":{"encoding":"mapping","key":"t_address","label":"mapping(address => uint256)","numberOfBytes":"32","value":"t_uint256"},"t_mapping(t_uint256,t_address)":{"encoding":"mapping","key":"t_uint256","label":"mapping(uint256 => address)","numberOfBytes":"32","value":"t_address"},"t_mapping(t_uint256,t_array(t_uint256)dyn_storage)":{"encoding":"mapping","key":"t_uint256","label":"mapping(uint256 => uint256[])","numberOfBytes":"32","value":"t_array(t_uint256)dyn_storage"},"t_mapping(t_uint256,t_string_storage)":{"encoding":"mapping","key":"t_uint256","label":"mapping(uint256 => string)","numberOfBytes":"32","value":"t_string_storage"},"t_mapping(t_uint256,t_struct(Asset)3900_storage)":{"encoding":"mapping","key":"t_uint256","label":"mapping(uint256 => struct AssetTraceability.Asset)","numberOfBytes":"32","value":"t_struct(Asset)3900_storage"},"t_mapping(t_uint256,t_uint256)":{"encoding":"mapping","key":"t_uint256","label":"mapping(uint256 => uint256)","numberOfBytes":"32","value":"t_uint256"},"t_string_storage":{"encoding":"bytes","label":"string","numberOfBytes":"32"},"t_struct(Asset)3900_storage":{"encoding":"inplace","label":"struct AssetTraceability.Asset","members":[{"astId":3883,"contract":"contracts/AssetTraceabilityV2.sol:AssetTraceabilityV2","label":"unusable","offset":0,"slot":"0","type":"t_bool"},{"astId":3885,"contract":"contracts/AssetTraceabilityV2.sol:AssetTraceabilityV2","label":"amount","offset":0,"slot":"1","type":"t_uint256"},{"astId":3887,"contract":"contracts/AssetTraceabilityV2.sol:AssetTraceabilityV2","label":"_type","offset":0,"slot":"2","type":"t_uint256"},{"astId":3889,"contract":"contracts/AssetTraceabilityV2.sol:AssetTraceabilityV2","label":"groupId","offset":0,"slot":"3","type":"t_uint256"},{"astId":3892,"contract":"contracts/AssetTraceabilityV2.sol:AssetTraceabilityV2","label":"parents","offset":0,"slot":"4","type":"t_array(t_uint256)dyn_storage"},{"astId":3895,"contract":"contracts/AssetTraceabilityV2.sol:AssetTraceabilityV2","label":"children","offset":0,"slot":"5","type":"t_array(t_uint256)dyn_storage"},{"astId":3899,"contract":"contracts/AssetTraceabilityV2.sol:AssetTraceabilityV2","label":"changes","offset":0,"slot":"6","type":"t_array(t_struct(LogItem)3881_storage)dyn_storage"}],"numberOfBytes":"224"},"t_struct(Counter)3721_storage":{"encoding":"inplace","label":"struct Counters.Counter","members":[{"astId":3720,"contract":"contracts/AssetTraceabilityV2.sol:AssetTraceabilityV2","label":"_value","offset":0,"slot":"0","type":"t_uint256"}],"numberOfBytes":"32"},"t_struct(LogItem)3881_storage":{"encoding":"inplace","label":"struct AssetTraceability.LogItem","members":[{"astId":3875,"contract":"contracts/AssetTraceabilityV2.sol:AssetTraceabilityV2","label":"author","offset":0,"slot":"0","type":"t_address"},{"astId":3878,"contract":"contracts/AssetTraceabilityV2.sol:AssetTraceabilityV2","label":"reason","offset":20,"slot":"0","type":"t_enum(OperationType)3873"},{"astId":3880,"contract":"contracts/AssetTraceabilityV2.sol:AssetTraceabilityV2","label":"timestamp","offset":0,"slot":"1","type":"t_uint256"}],"numberOfBytes":"64"},"t_uint256":{"encoding":"inplace","label":"uint256","numberOfBytes":"32"},"t_uint8":{"encoding":"inplace","label":"uint8","numberOfBytes":"1"}}}}}}