{
  "_format": "hh-sol-artifact-1",
  "contractName": "AssetTraceability",
  "sourceName": "contracts/AssetTraceability.sol",
  "abi": [
    {
      "inputs": [
        {
          "internalType": "uint256",
          "name": "id",
          "type": "uint256"
        }
      ],
      "name": "InvalidCaller",
      "type": "error"
    },
    {
      "inputs": [
        {
          "internalType": "uint256",
          "name": "expectedAmount",
          "type": "uint256"
        },
        {
          "internalType": "uint256",
          "name": "gotAmount",
          "type": "uint256"
        }
      ],
      "name": "NotMatchingAmount",
      "type": "error"
    },
    {
      "inputs": [
        {
          "internalType": "uint256",
          "name": "length1",
          "type": "uint256"
        },
        {
          "internalType": "uint256",
          "name": "length2",
          "type": "uint256"
        }
      ],
      "name": "NotMatchingArrays",
      "type": "error"
    },
    {
      "inputs": [
        {
          "internalType": "uint256",
          "name": "id",
          "type": "uint256"
        }
      ],
      "name": "TokenAlreadyUsed",
      "type": "error"
    },
    {
      "anonymous": false,
      "inputs": [
        {
          "indexed": true,
          "internalType": "address",
          "name": "owner",
          "type": "address"
        },
        {
          "indexed": true,
          "internalType": "address",
          "name": "approved",
          "type": "address"
        },
        {
          "indexed": true,
          "internalType": "uint256",
          "name": "tokenId",
          "type": "uint256"
        }
      ],
      "name": "Approval",
      "type": "event"
    },
    {
      "anonymous": false,
      "inputs": [
        {
          "indexed": true,
          "internalType": "address",
          "name": "owner",
          "type": "address"
        },
        {
          "indexed": true,
          "internalType": "address",
          "name": "operator",
          "type": "address"
        },
        {
          "indexed": false,
          "internalType": "bool",
          "name": "approved",
          "type": "bool"
        }
      ],
      "name": "ApprovalForAll",
      "type": "event"
    },
    {
      "anonymous": false,
      "inputs": [
        {
          "indexed": false,
          "internalType": "uint256",
          "name": "_fromTokenId",
          "type": "uint256"
        },
        {
          "indexed": false,
          "internalType": "uint256",
          "name": "_toTokenId",
          "type": "uint256"
        }
      ],
      "name": "BatchMetadataUpdate",
      "type": "event"
    },
    {
      "anonymous": false,
      "inputs": [
        {
          "indexed": false,
          "internalType": "uint8",
          "name": "version",
          "type": "uint8"
        }
      ],
      "name": "Initialized",
      "type": "event"
    },
    {
      "anonymous": false,
      "inputs": [
        {
          "indexed": false,
          "internalType": "uint256",
          "name": "_tokenId",
          "type": "uint256"
        }
      ],
      "name": "MetadataUpdate",
      "type": "event"
    },
    {
      "anonymous": false,
      "inputs": [
        {
          "indexed": true,
          "internalType": "address",
          "name": "previousOwner",
          "type": "address"
        },
        {
          "indexed": true,
          "internalType": "address",
          "name": "newOwner",
          "type": "address"
        }
      ],
      "name": "OwnershipTransferred",
      "type": "event"
    },
    {
      "anonymous": false,
      "inputs": [
        {
          "indexed": true,
          "internalType": "address",
          "name": "from",
          "type": "address"
        },
        {
          "indexed": true,
          "internalType": "address",
          "name": "to",
          "type": "address"
        },
        {
          "indexed": true,
          "internalType": "uint256",
          "name": "tokenId",
          "type": "uint256"
        }
      ],
      "name": "Transfer",
      "type": "event"
    },
    {
      "inputs": [
        {
          "internalType": "uint256",
          "name": "id",
          "type": "uint256"
        },
        {
          "internalType": "uint256[]",
          "name": "toMerge",
          "type": "uint256[]"
        }
      ],
      "name": "add",
      "outputs": [],
      "stateMutability": "nonpayable",
      "type": "function"
    },
    {
      "inputs": [
        {
          "internalType": "address",
          "name": "to",
          "type": "address"
        },
        {
          "internalType": "uint256",
          "name": "tokenId",
          "type": "uint256"
        }
      ],
      "name": "approve",
      "outputs": [],
      "stateMutability": "nonpayable",
      "type": "function"
    },
    {
      "inputs": [
        {
          "internalType": "address",
          "name": "owner",
          "type": "address"
        }
      ],
      "name": "balanceOf",
      "outputs": [
        {
          "internalType": "uint256",
          "name": "",
          "type": "uint256"
        }
      ],
      "stateMutability": "view",
      "type": "function"
    },
    {
      "inputs": [
        {
          "internalType": "uint256",
          "name": "tokenId",
          "type": "uint256"
        }
      ],
      "name": "burn",
      "outputs": [],
      "stateMutability": "nonpayable",
      "type": "function"
    },
    {
      "inputs": [
        {
          "internalType": "uint256",
          "name": "id",
          "type": "uint256"
        },
        {
          "internalType": "string",
          "name": "_uri",
          "type": "string"
        }
      ],
      "name": "editMetadata",
      "outputs": [],
      "stateMutability": "nonpayable",
      "type": "function"
    },
    {
      "inputs": [
        {
          "internalType": "uint256",
          "name": "tokenId",
          "type": "uint256"
        }
      ],
      "name": "getApproved",
      "outputs": [
        {
          "internalType": "address",
          "name": "",
          "type": "address"
        }
      ],
      "stateMutability": "view",
      "type": "function"
    },
    {
      "inputs": [
        {
          "internalType": "uint256",
          "name": "tokenId",
          "type": "uint256"
        }
      ],
      "name": "getAsset",
      "outputs": [
        {
          "components": [
            {
              "internalType": "uint256",
              "name": "amount",
              "type": "uint256"
            },
            {
              "internalType": "uint256",
              "name": "_type",
              "type": "uint256"
            },
            {
              "internalType": "uint256",
              "name": "groupId",
              "type": "uint256"
            },
            {
              "internalType": "uint256",
              "name": "tokenId",
              "type": "uint256"
            },
            {
              "internalType": "address",
              "name": "owner",
              "type": "address"
            },
            {
              "internalType": "uint256[]",
              "name": "parents",
              "type": "uint256[]"
            },
            {
              "internalType": "uint256[]",
              "name": "children",
              "type": "uint256[]"
            },
            {
              "components": [
                {
                  "internalType": "address",
                  "name": "author",
                  "type": "address"
                },
                {
                  "internalType": "enum AssetTraceability.OperationType",
                  "name": "reason",
                  "type": "uint8"
                },
                {
                  "internalType": "uint256",
                  "name": "timestamp",
                  "type": "uint256"
                }
              ],
              "internalType": "struct AssetTraceability.LogItem[]",
              "name": "changes",
              "type": "tuple[]"
            },
            {
              "internalType": "string",
              "name": "uri",
              "type": "string"
            }
          ],
          "internalType": "struct AssetTraceability.AssetResult",
          "name": "",
          "type": "tuple"
        }
      ],
      "stateMutability": "view",
      "type": "function"
    },
    {
      "inputs": [],
      "name": "getBaseURI",
      "outputs": [
        {
          "internalType": "string",
          "name": "",
          "type": "string"
        }
      ],
      "stateMutability": "view",
      "type": "function"
    },
    {
      "inputs": [
        {
          "internalType": "uint256",
          "name": "_groupId",
          "type": "uint256"
        }
      ],
      "name": "getGroup",
      "outputs": [
        {
          "components": [
            {
              "internalType": "uint256",
              "name": "amount",
              "type": "uint256"
            },
            {
              "internalType": "uint256",
              "name": "_type",
              "type": "uint256"
            },
            {
              "internalType": "uint256",
              "name": "groupId",
              "type": "uint256"
            },
            {
              "internalType": "uint256",
              "name": "tokenId",
              "type": "uint256"
            },
            {
              "internalType": "address",
              "name": "owner",
              "type": "address"
            },
            {
              "internalType": "uint256[]",
              "name": "parents",
              "type": "uint256[]"
            },
            {
              "internalType": "uint256[]",
              "name": "children",
              "type": "uint256[]"
            },
            {
              "components": [
                {
                  "internalType": "address",
                  "name": "author",
                  "type": "address"
                },
                {
                  "internalType": "enum AssetTraceability.OperationType",
                  "name": "reason",
                  "type": "uint8"
                },
                {
                  "internalType": "uint256",
                  "name": "timestamp",
                  "type": "uint256"
                }
              ],
              "internalType": "struct AssetTraceability.LogItem[]",
              "name": "changes",
              "type": "tuple[]"
            },
            {
              "internalType": "string",
              "name": "uri",
              "type": "string"
            }
          ],
          "internalType": "struct AssetTraceability.AssetResult[]",
          "name": "",
          "type": "tuple[]"
        }
      ],
      "stateMutability": "view",
      "type": "function"
    },
    {
      "inputs": [],
      "name": "initialize",
      "outputs": [],
      "stateMutability": "nonpayable",
      "type": "function"
    },
    {
      "inputs": [
        {
          "internalType": "address",
          "name": "owner",
          "type": "address"
        },
        {
          "internalType": "address",
          "name": "operator",
          "type": "address"
        }
      ],
      "name": "isApprovedForAll",
      "outputs": [
        {
          "internalType": "bool",
          "name": "",
          "type": "bool"
        }
      ],
      "stateMutability": "view",
      "type": "function"
    },
    {
      "inputs": [],
      "name": "name",
      "outputs": [
        {
          "internalType": "string",
          "name": "",
          "type": "string"
        }
      ],
      "stateMutability": "view",
      "type": "function"
    },
    {
      "inputs": [],
      "name": "owner",
      "outputs": [
        {
          "internalType": "address",
          "name": "",
          "type": "address"
        }
      ],
      "stateMutability": "view",
      "type": "function"
    },
    {
      "inputs": [
        {
          "internalType": "uint256",
          "name": "tokenId",
          "type": "uint256"
        }
      ],
      "name": "ownerOf",
      "outputs": [
        {
          "internalType": "address",
          "name": "",
          "type": "address"
        }
      ],
      "stateMutability": "view",
      "type": "function"
    },
    {
      "inputs": [
        {
          "internalType": "address",
          "name": "_to",
          "type": "address"
        },
        {
          "internalType": "string",
          "name": "_uri",
          "type": "string"
        },
        {
          "internalType": "uint256",
          "name": "_amount",
          "type": "uint256"
        },
        {
          "internalType": "uint256",
          "name": "_type",
          "type": "uint256"
        },
        {
          "internalType": "uint256",
          "name": "_groupId",
          "type": "uint256"
        }
      ],
      "name": "register",
      "outputs": [],
      "stateMutability": "nonpayable",
      "type": "function"
    },
    {
      "inputs": [],
      "name": "renounceOwnership",
      "outputs": [],
      "stateMutability": "nonpayable",
      "type": "function"
    },
    {
      "inputs": [
        {
          "internalType": "address",
          "name": "from",
          "type": "address"
        },
        {
          "internalType": "address",
          "name": "to",
          "type": "address"
        },
        {
          "internalType": "uint256",
          "name": "tokenId",
          "type": "uint256"
        }
      ],
      "name": "safeTransferFrom",
      "outputs": [],
      "stateMutability": "nonpayable",
      "type": "function"
    },
    {
      "inputs": [
        {
          "internalType": "address",
          "name": "from",
          "type": "address"
        },
        {
          "internalType": "address",
          "name": "to",
          "type": "address"
        },
        {
          "internalType": "uint256",
          "name": "tokenId",
          "type": "uint256"
        },
        {
          "internalType": "bytes",
          "name": "data",
          "type": "bytes"
        }
      ],
      "name": "safeTransferFrom",
      "outputs": [],
      "stateMutability": "nonpayable",
      "type": "function"
    },
    {
      "inputs": [
        {
          "internalType": "address",
          "name": "operator",
          "type": "address"
        },
        {
          "internalType": "bool",
          "name": "approved",
          "type": "bool"
        }
      ],
      "name": "setApprovalForAll",
      "outputs": [],
      "stateMutability": "nonpayable",
      "type": "function"
    },
    {
      "inputs": [
        {
          "internalType": "string",
          "name": "_baseuri",
          "type": "string"
        }
      ],
      "name": "setBaseURI",
      "outputs": [],
      "stateMutability": "nonpayable",
      "type": "function"
    },
    {
      "inputs": [
        {
          "internalType": "uint256",
          "name": "id",
          "type": "uint256"
        },
        {
          "internalType": "uint256",
          "name": "_type",
          "type": "uint256"
        },
        {
          "internalType": "uint256",
          "name": "_groupId",
          "type": "uint256"
        },
        {
          "internalType": "uint256[]",
          "name": "amounts",
          "type": "uint256[]"
        },
        {
          "internalType": "string[]",
          "name": "uris",
          "type": "string[]"
        }
      ],
      "name": "splitDifferent",
      "outputs": [],
      "stateMutability": "nonpayable",
      "type": "function"
    },
    {
      "inputs": [
        {
          "internalType": "uint256",
          "name": "id",
          "type": "uint256"
        },
        {
          "internalType": "uint256",
          "name": "_type",
          "type": "uint256"
        },
        {
          "internalType": "uint256",
          "name": "_groupId",
          "type": "uint256"
        },
        {
          "internalType": "uint256",
          "name": "amount",
          "type": "uint256"
        },
        {
          "internalType": "string",
          "name": "uri",
          "type": "string"
        }
      ],
      "name": "splitSame",
      "outputs": [],
      "stateMutability": "nonpayable",
      "type": "function"
    },
    {
      "inputs": [
        {
          "internalType": "bytes4",
          "name": "interfaceId",
          "type": "bytes4"
        }
      ],
      "name": "supportsInterface",
      "outputs": [
        {
          "internalType": "bool",
          "name": "",
          "type": "bool"
        }
      ],
      "stateMutability": "view",
      "type": "function"
    },
    {
      "inputs": [],
      "name": "symbol",
      "outputs": [
        {
          "internalType": "string",
          "name": "",
          "type": "string"
        }
      ],
      "stateMutability": "view",
      "type": "function"
    },
    {
      "inputs": [
        {
          "internalType": "uint256",
          "name": "index",
          "type": "uint256"
        }
      ],
      "name": "tokenByIndex",
      "outputs": [
        {
          "internalType": "uint256",
          "name": "",
          "type": "uint256"
        }
      ],
      "stateMutability": "view",
      "type": "function"
    },
    {
      "inputs": [
        {
          "internalType": "address",
          "name": "owner",
          "type": "address"
        },
        {
          "internalType": "uint256",
          "name": "index",
          "type": "uint256"
        }
      ],
      "name": "tokenOfOwnerByIndex",
      "outputs": [
        {
          "internalType": "uint256",
          "name": "",
          "type": "uint256"
        }
      ],
      "stateMutability": "view",
      "type": "function"
    },
    {
      "inputs": [
        {
          "internalType": "uint256",
          "name": "tokenId",
          "type": "uint256"
        }
      ],
      "name": "tokenURI",
      "outputs": [
        {
          "internalType": "string",
          "name": "",
          "type": "string"
        }
      ],
      "stateMutability": "view",
      "type": "function"
    },
    {
      "inputs": [],
      "name": "totalSupply",
      "outputs": [
        {
          "internalType": "uint256",
          "name": "",
          "type": "uint256"
        }
      ],
      "stateMutability": "view",
      "type": "function"
    },
    {
      "inputs": [
        {
          "internalType": "address",
          "name": "from",
          "type": "address"
        },
        {
          "internalType": "address",
          "name": "to",
          "type": "address"
        },
        {
          "internalType": "uint256",
          "name": "tokenId",
          "type": "uint256"
        }
      ],
      "name": "transferFrom",
      "outputs": [],
      "stateMutability": "nonpayable",
      "type": "function"
    },
    {
      "inputs": [
        {
          "internalType": "address",
          "name": "newOwner",
          "type": "address"
        }
      ],
      "name": "transferOwnership",
      "outputs": [],
      "stateMutability": "nonpayable",
      "type": "function"
    },
    {
      "inputs": [
        {
          "internalType": "uint256",
          "name": "id",
          "type": "uint256"
        },
        {
          "internalType": "uint256",
          "name": "_amount",
          "type": "uint256"
        },
        {
          "internalType": "uint256",
          "name": "_type",
          "type": "uint256"
        },
        {
          "internalType": "uint256",
          "name": "_groupId",
          "type": "uint256"
        },
        {
          "internalType": "string",
          "name": "_uri",
          "type": "string"
        }
      ],
      "name": "transform",
      "outputs": [],
      "stateMutability": "nonpayable",
      "type": "function"
    },
    {
      "inputs": [
        {
          "internalType": "address",
          "name": "_to",
          "type": "address"
        },
        {
          "internalType": "uint256",
          "name": "_type",
          "type": "uint256"
        },
        {
          "internalType": "uint256",
          "name": "_groupId",
          "type": "uint256"
        },
        {
          "internalType": "uint256[]",
          "name": "merged",
          "type": "uint256[]"
        },
        {
          "internalType": "string",
          "name": "_uri",
          "type": "string"
        }
      ],
      "name": "union",
      "outputs": [],
      "stateMutability": "nonpayable",
      "type": "function"
    }
  ],
  "bytecode": "0x608060405234801561001057600080fd5b50613a2f806100206000396000f3fe608060405234801561001057600080fd5b506004361061020d576000357c010000000000000000000000000000000000000000000000000000000090048063715018a61161012c578063b88d4fde116100bf578063e428e0101161008e578063e428e01014610436578063e985e9c514610449578063eac8f5b814610485578063f2fde38b146104a557600080fd5b8063b88d4fde146103dd578063c152f728146103f0578063c87b56dd14610403578063ceb606541461041657600080fd5b80638da5cb5b116100fb5780638da5cb5b1461039d57806395d89b41146103af578063a22cb465146103b7578063a231bdf8146103ca57600080fd5b8063715018a61461036757806377f834711461036f5780638129fc1c1461038257806383219a8a1461038a57600080fd5b806342842e0e116101a45780636352211e116101735780636352211e1461032657806365260be41461033957806370a082311461034c578063714c53981461035f57600080fd5b806342842e0e146102da57806342966c68146102ed5780634f6ccce71461030057806355f804b31461031357600080fd5b806318160ddd116101e057806318160ddd1461028f57806323b872dd146102a15780632f745c59146102b45780633bd74985146102c757600080fd5b806301ffc9a71461021257806306fdde031461023a578063081812fc1461024f578063095ea7b31461027a575b600080fd5b610225610220366004612dfa565b6104b8565b60405190151581526020015b60405180910390f35b6102426104c9565b6040516102319190612e67565b61026261025d366004612e7a565b61055b565b604051600160a060020a039091168152602001610231565b61028d610288366004612eaf565b610582565b005b6099545b604051908152602001610231565b61028d6102af366004612ed9565b6106be565b6102936102c2366004612eaf565b6106e4565b61028d6102d5366004612fa2565b61078f565b61028d6102e8366004612ed9565b61092f565b61028d6102fb366004612e7a565b61095f565b61029361030e366004612e7a565b610976565b61028d6103213660046130e5565b610a1d565b610262610334366004612e7a565b610a32565b61028d61034736600461311a565b610a9a565b61029361035a366004613166565b610c23565b610242610cc0565b61028d610cd0565b61028d61037d366004613181565b610ce4565b61028d610ed6565b61028d6103983660046131fb565b6110a3565b61012d54600160a060020a0316610262565b6102426110ed565b61028d6103c536600461323a565b6110fc565b61028d6103d8366004613276565b611107565b61028d6103eb3660046132df565b61111e565b61028d6103fe36600461335b565b61113f565b610242610411366004612e7a565b611297565b610429610424366004612e7a565b6112a2565b6040516102319190613546565b61028d61044436600461335b565b6113ff565b6102256104573660046135a7565b600160a060020a039182166000908152606a6020908152604080832093909416825291909152205460ff1690565b610498610493366004612e7a565b6114bd565b60405161023191906135da565b61028d6104b3366004613166565b6114ce565b60006104c38261155e565b92915050565b6060606580546104d8906135ed565b80601f0160208091040260200160405190810160405280929190818152602001828054610504906135ed565b80156105515780601f1061052657610100808354040283529160200191610551565b820191906000526020600020905b81548152906001019060200180831161053457829003601f168201915b5050505050905090565b60006105668261159c565b50600090815260696020526040902054600160a060020a031690565b600061058d82610a32565b905080600160a060020a031683600160a060020a03160361061e5760405160e560020a62461bcd02815260206004820152602160248201527f4552433732313a20617070726f76616c20746f2063757272656e74206f776e6560448201527f720000000000000000000000000000000000000000000000000000000000000060648201526084015b60405180910390fd5b33600160a060020a038216148061063a575061063a8133610457565b6106af5760405160e560020a62461bcd02815260206004820152603d60248201527f4552433732313a20617070726f76652063616c6c6572206973206e6f7420746f60448201527f6b656e206f776e6572206f7220617070726f76656420666f7220616c6c0000006064820152608401610615565b6106b98383611603565b505050565b806106c88161167e565b6106d3826005611718565b6106de848484611804565b50505050565b60006106ef83610c23565b82106107665760405160e560020a62461bcd02815260206004820152602b60248201527f455243373231456e756d657261626c653a206f776e657220696e646578206f7560448201527f74206f6620626f756e64730000000000000000000000000000000000000000006064820152608401610615565b50600160a060020a03919091166000908152609760209081526040808320938352929052205490565b6000805b84811015610853576107bc8686838181106107b0576107b061362a565b9050602002013561167e565b600161016360008888858181106107d5576107d561362a565b90506020020135815260200190815260200160002060000160006101000a81548160ff021916908315150217905550610163600087878481811061081b5761081b61362a565b905060200201358152602001908152602001600020600101548261083f919061365c565b91508061084b8161366f565b915050610793565b50600061089d8985858080601f0160208091040260200160405190810160405280939291908181526020018383808284376000920191909152508792508d91508c90506003611837565b6000818152610163602052604090209091506108bd906004018787612cf9565b5060005b858110156109235761016360008888848181106108e0576108e061362a565b602090810292909201358352508181019290925260400160009081206005018054600181018255908252919020018290558061091b8161366f565b9150506108c1565b50505050505050505050565b806109398161167e565b610944826005611718565b6106de848484604051806020016040528060008152506118fb565b806109698161167e565b61097282611930565b5050565b600061098160995490565b82106109f85760405160e560020a62461bcd02815260206004820152602c60248201527f455243373231456e756d657261626c653a20676c6f62616c20696e646578206f60448201527f7574206f6620626f756e647300000000000000000000000000000000000000006064820152608401610615565b60998281548110610a0b57610a0b61362a565b90600052602060002001549050919050565b610a25611961565b61015f61097282826136ce565b600081815260676020526040812054600160a060020a0316806104c35760405160e560020a62461bcd02815260206004820152601860248201527f4552433732313a20696e76616c696420746f6b656e20494400000000000000006044820152606401610615565b82610aa48161167e565b60008481526101636020526040812060010154905b83811015610bf957610ad68585838181106107b0576107b061362a565b60016101636000878785818110610aef57610aef61362a565b90506020020135815260200190815260200160002060000160006101000a81548160ff0219169083151502179055506101636000868684818110610b3557610b3561362a565b9050602002013581526020019081526020016000206001015482610b59919061365c565b91506101636000868684818110610b7257610b7261362a565b6020908102929092013583525081810192909252604090810160009081206005018054600181018255908252838220018990558881526101639092529020600401858583818110610bc557610bc561362a565b8354600181018555600094855260209485902091909402929092013591909201555080610bf18161366f565b915050610ab9565b506000858152610163602052604090206001908101829055610c1c908690611718565b5050505050565b6000600160a060020a038216610ca45760405160e560020a62461bcd02815260206004820152602960248201527f4552433732313a2061646472657373207a65726f206973206e6f74206120766160448201527f6c6964206f776e657200000000000000000000000000000000000000000000006064820152608401610615565b50600160a060020a031660009081526068602052604090205490565b606061015f80546104d8906135ed565b610cd8611961565b610ce260006119bf565b565b86610cee8161167e565b838214610d31576040517f69e657b40000000000000000000000000000000000000000000000000000000081526004810185905260248101839052604401610615565b6000610d3c89610a32565b90506000805b86811015610e4557878782818110610d5c57610d5c61362a565b9050602002013582610d6e919061365c565b91506000610df384888885818110610d8857610d8861362a565b9050602002810190610d9a9190613794565b8080601f0160208091040260200160405190810160405280939291908181526020018383808284376000920191909152508e92508d9150879050818110610de357610de361362a565b905060200201358e8e6002611837565b60008d8152610163602090815260408083206005018054600181810183559185528385200185905593835282206004018054938401815582529020018c90555080610e3d8161366f565b915050610d42565b5060008a815261016360205260409020600101548114610eb05760008a81526101636020526040908190206001015490517ff572090d000000000000000000000000000000000000000000000000000000008152600481019190915260248101829052604401610615565b5050506000968752505061016360205250506040909220805460ff191660011790555050565b600054610100900460ff1615808015610ef65750600054600160ff909116105b80610f105750303b158015610f10575060005460ff166001145b610f855760405160e560020a62461bcd02815260206004820152602e60248201527f496e697469616c697a61626c653a20636f6e747261637420697320616c72656160448201527f647920696e697469616c697a65640000000000000000000000000000000000006064820152608401610615565b6000805460ff191660011790558015610fa8576000805461ff0019166101001790555b61101c6040518060400160405280601181526020017f417373657454726163656162696c6974790000000000000000000000000000008152506040518060400160405280600281526020017f4154000000000000000000000000000000000000000000000000000000000000815250611a1f565b611024611a53565b61102c611a53565b611034611a53565b61103c611a7d565b60408051602081019091526000815261015f9061105990826136ce565b5080156110a0576000805461ff0019169055604051600181527f7f26b83ff96e1f2b6a682f133852f6798a09c465da95921460cefb38474024989060200160405180910390a15b50565b826110ad8161167e565b6106de8484848080601f016020809104026020016040519081016040528093929190818152602001838380828437600092019190915250611aaf92505050565b6060606680546104d8906135ed565b610972338383611b8c565b61111685858585856000611837565b505050505050565b816111288161167e565b611133836005611718565b610c1c858585856118fb565b856111498161167e565b600061115488610a32565b600089815261016360205260409020600101549091505b80156112725760006111ba8387878080601f0160208091040260200160405190810160405280939291908181526020018383808284376000920191909152508c92508e91508d90506002611837565b60008b815261016360209081526040808320600501805460018181018355918552838520018590558484529083206004018054918201815583529120018b905590508682106112145761120d87836137db565b915061126c565b60008a8152610163602052604090206001015461123183826137db565b6040517ff572090d00000000000000000000000000000000000000000000000000000000815260048101929092526024820152604401610615565b5061116b565b5050506000958652505061016360205250506040909120805460ff1916600117905550565b60606104c382611c5d565b6000818152610162602090815260408083208054825181850281018501909352808352606094938301828280156112f857602002820191906000526020600020905b8154815260200190600101908083116112e4575b505050505090506000815111156113c7576000815167ffffffffffffffff81111561132557611325613036565b60405190808252806020026020018201604052801561135e57816020015b61134b612d44565b8152602001906001900390816113435790505b50905060005b82518110156113bf5761138f8382815181106113825761138261362a565b6020026020010151611d60565b8282815181106113a1576113a161362a565b602002602001018190525080806113b79061366f565b915050611364565b509392505050565b60408051600080825260208201909252906113bf565b6113e5612d44565b8152602001906001900390816113dd579050509392505050565b856114098161167e565b600087815261016360205260408120805460ff1916600117905561147261142f89610a32565b85858080601f0160208091040260200160405190810160405280939291908181526020018383808284376000920191909152508c92508b91508a90506004611837565b600081815261016360209081526040808320600401805460018181018355918552838520018d90559b8352822060050180549b8c018155825290209098019790975550505050505050565b6114c5612d44565b6104c382611d60565b6114d6611961565b600160a060020a0381166115555760405160e560020a62461bcd02815260206004820152602660248201527f4f776e61626c653a206e6577206f776e657220697320746865207a65726f206160448201527f64647265737300000000000000000000000000000000000000000000000000006064820152608401610615565b6110a0816119bf565b6000600160e060020a031982167f490649060000000000000000000000000000000000000000000000000000000014806104c357506104c38261206b565b600081815260676020526040902054600160a060020a03166110a05760405160e560020a62461bcd02815260206004820152601860248201527f4552433732313a20696e76616c696420746f6b656e20494400000000000000006044820152606401610615565b6000818152606960205260409020805473ffffffffffffffffffffffffffffffffffffffff1916600160a060020a038416908117909155819061164582610a32565b600160a060020a03167f8c5be1e5ebec7d5bd14f71427d1e84f3dd0314c0f7b2291e5b200ac8c7c3b92560405160405180910390a45050565b6116878161159c565b611692335b826120a9565b6116cb576040517f03ea3c1c00000000000000000000000000000000000000000000000000000000815260048101829052602401610615565b6000818152610163602052604090205460ff16156110a0576040517fccd934e100000000000000000000000000000000000000000000000000000000815260048101829052602401610615565b6000828152610163602052604090819020815160608101909252600601908033600160a060020a0316815260200183600581111561175857611758613400565b815242602091820152825460018101845560009384529281902082516002909402018054600160a060020a0390941673ffffffffffffffffffffffffffffffffffffffff19851681178255918301519293909291839174ffffffffffffffffffffffffffffffffffffffffff191617740100000000000000000000000000000000000000008360058111156117ef576117ef613400565b02179055506040820151816001015550505050565b61180d3361168c565b61182c5760405160e560020a62461bcd028152600401610615906137ee565b6106b9838383612127565b6000806118446101605490565b905061185561016080546001019055565b61185f88826122c7565b6118698188611aaf565b600081815261016360205260409020805460ff19168155600181018790556002810186905560030184905561189e8184611718565b84156118c757600085815261016160209081526040822080546001810182559083529120018190555b83156118f057600084815261016260209081526040822080546001810182559083529120018190555b979650505050505050565b61190533836120a9565b6119245760405160e560020a62461bcd028152600401610615906137ee565b6106de848484846122e1565b6119393361168c565b6119585760405160e560020a62461bcd028152600401610615906137ee565b6110a081612317565b61012d54600160a060020a03163314610ce25760405160e560020a62461bcd02815260206004820181905260248201527f4f776e61626c653a2063616c6c6572206973206e6f7420746865206f776e65726044820152606401610615565b61012d8054600160a060020a0383811673ffffffffffffffffffffffffffffffffffffffff19831681179093556040519116919082907f8be0079c531659141344cd1fd0a4f28419497f9722a3daafe3b4186f6b6457e090600090a35050565b600054610100900460ff16611a495760405160e560020a62461bcd0281526004016106159061384b565b6109728282612320565b600054610100900460ff16610ce25760405160e560020a62461bcd0281526004016106159061384b565b600054610100900460ff16611aa75760405160e560020a62461bcd0281526004016106159061384b565b610ce2612363565b600082815260676020526040902054600160a060020a0316611b3c5760405160e560020a62461bcd02815260206004820152602e60248201527f45524337323155524953746f726167653a2055524920736574206f66206e6f6e60448201527f6578697374656e7420746f6b656e0000000000000000000000000000000000006064820152608401610615565b600082815260c960205260409020611b5482826136ce565b506040518281527ff8e1a15aba9398e019f0b49df1a4fde98ee17ae345cb5f6b5e2c27f5033e8ce79060200160405180910390a15050565b81600160a060020a031683600160a060020a031603611bf05760405160e560020a62461bcd02815260206004820152601960248201527f4552433732313a20617070726f766520746f2063616c6c6572000000000000006044820152606401610615565b600160a060020a038381166000818152606a6020908152604080832094871680845294825291829020805460ff191686151590811790915591519182527f17307eab39ab6107e8899845ad3d59bd9653f200f220920489ca2b5937696c31910160405180910390a3505050565b6060611c688261159c565b600082815260c9602052604081208054611c81906135ed565b80601f0160208091040260200160405190810160405280929190818152602001828054611cad906135ed565b8015611cfa5780601f10611ccf57610100808354040283529160200191611cfa565b820191906000526020600020905b815481529060010190602001808311611cdd57829003601f168201915b505050505090506000611d0b610cc0565b90508051600003611d1d575092915050565b815115611d4f578082604051602001611d379291906138a8565b60405160208183030381529060405292505050919050565b611d5884612396565b949350505050565b611d68612d44565b600082815261016360209081526040808320815160e081018352815460ff161515815260018201548185015260028201548184015260038201546060820152600482018054845181870281018701909552808552919492936080860193909290830182828015611df757602002820191906000526020600020905b815481526020019060010190808311611de3575b5050505050815260200160058201805480602002602001604051908101604052809291908181526020018280548015611e4f57602002820191906000526020600020905b815481526020019060010190808311611e3b575b5050505050815260200160068201805480602002602001604051908101604052809291908181526020016000905b82821015611f125760008481526020908190206040805160608101909152600285029091018054600160a060020a0381168352919290919083019074010000000000000000000000000000000000000000900460ff166005811115611ee457611ee4613400565b6005811115611ef557611ef5613400565b815260200160018201548152505081526020019060010190611e7d565b50505091525050602081015190915015611f9d57604051806101200160405280826020015181526020018260400151815260200182606001518152602001848152602001611f5f85610a32565b600160a060020a03168152602001826080015181526020018260a0015181526020018260c001518152602001611f9485611c5d565b90529392505050565b604051806101200160405280600081526020016000815260200160008152602001600081526020016000600160a060020a03168152602001826080015181526020018260a001518152602001600067ffffffffffffffff81111561200357612003613036565b60405190808252806020026020018201604052801561204e57816020015b60408051606081018252600080825260208083018290529282015282526000199092019101816120215790505b508152604080516020818101909252600081529101529392505050565b6000600160e060020a031982167f780e9d630000000000000000000000000000000000000000000000000000000014806104c357506104c3826123fd565b6000806120b583610a32565b905080600160a060020a031684600160a060020a031614806120fc5750600160a060020a038082166000908152606a602090815260408083209388168352929052205460ff165b80611d58575083600160a060020a03166121158461055b565b600160a060020a031614949350505050565b82600160a060020a031661213a82610a32565b600160a060020a0316146121635760405160e560020a62461bcd028152600401610615906138d7565b600160a060020a0382166121e15760405160e560020a62461bcd028152602060048201526024808201527f4552433732313a207472616e7366657220746f20746865207a65726f2061646460448201527f72657373000000000000000000000000000000000000000000000000000000006064820152608401610615565b6121ee8383836001612498565b82600160a060020a031661220182610a32565b600160a060020a03161461222a5760405160e560020a62461bcd028152600401610615906138d7565b6000818152606960209081526040808320805473ffffffffffffffffffffffffffffffffffffffff19908116909155600160a060020a0387811680865260688552838620805460001901905590871680865283862080546001019055868652606790945282852080549092168417909155905184937fddf252ad1be2c89b69c2b068fc378daa952ba7f163c4a11628f55a4df523b3ef91a4505050565b6109728282604051806020016040528060008152506124a4565b6122ec848484612127565b6122f8848484846124da565b6106de5760405160e560020a62461bcd02815260040161061590613934565b6110a081612610565b600054610100900460ff1661234a5760405160e560020a62461bcd0281526004016106159061384b565b606561235683826136ce565b5060666106b982826136ce565b600054610100900460ff1661238d5760405160e560020a62461bcd0281526004016106159061384b565b610ce2336119bf565b60606123a18261159c565b60006123ab610cc0565b905060008151116123cb57604051806020016040528060008152506123f6565b806123d584612650565b6040516020016123e69291906138a8565b6040516020818303038152906040525b9392505050565b6000600160e060020a031982167f80ac58cd0000000000000000000000000000000000000000000000000000000014806124605750600160e060020a031982167f5b5e139f00000000000000000000000000000000000000000000000000000000145b806104c357507f01ffc9a700000000000000000000000000000000000000000000000000000000600160e060020a03198316146104c3565b6106de848484846126f0565b6124ae8383612828565b6124bb60008484846124da565b6106b95760405160e560020a62461bcd02815260040161061590613934565b6000600160a060020a0384163b15612605576040517f150b7a02000000000000000000000000000000000000000000000000000000008152600160a060020a0385169063150b7a0290612537903390899088908890600401613991565b6020604051808303816000875af1925050508015612572575060408051601f3d908101601f1916820190925261256f918101906139c3565b60015b6125d2573d8080156125a0576040519150601f19603f3d011682016040523d82523d6000602084013e6125a5565b606091505b5080516000036125ca5760405160e560020a62461bcd02815260040161061590613934565b805181602001fd5b600160e060020a0319167f150b7a0200000000000000000000000000000000000000000000000000000000149050611d58565b506001949350505050565b612619816129d7565b600081815260c9602052604090208054612632906135ed565b1590506110a057600081815260c9602052604081206110a091612d99565b6060600061265d83612a87565b600101905060008167ffffffffffffffff81111561267d5761267d613036565b6040519080825280601f01601f1916602001820160405280156126a7576020820181803683370190505b5090508181016020015b600019017f3031323334353637383961626364656600000000000000000000000000000000600a86061a8153600a85049450846126b157509392505050565b600181111561276a5760405160e560020a62461bcd02815260206004820152603560248201527f455243373231456e756d657261626c653a20636f6e736563757469766520747260448201527f616e7366657273206e6f7420737570706f7274656400000000000000000000006064820152608401610615565b81600160a060020a0385166127c6576127c181609980546000838152609a60205260408120829055600182018355919091527f72a152ddfb8e864297c917af52ea6c1c68aead0fee1a62673fcc7e0c94979d000155565b6127e9565b83600160a060020a031685600160a060020a0316146127e9576127e98582612b69565b600160a060020a0384166128055761280081612c06565b610c1c565b84600160a060020a031684600160a060020a031614610c1c57610c1c8482612cb5565b600160a060020a0382166128815760405160e560020a62461bcd02815260206004820181905260248201527f4552433732313a206d696e7420746f20746865207a65726f20616464726573736044820152606401610615565b600081815260676020526040902054600160a060020a0316156128e95760405160e560020a62461bcd02815260206004820152601c60248201527f4552433732313a20746f6b656e20616c7265616479206d696e746564000000006044820152606401610615565b6128f7600083836001612498565b600081815260676020526040902054600160a060020a03161561295f5760405160e560020a62461bcd02815260206004820152601c60248201527f4552433732313a20746f6b656e20616c7265616479206d696e746564000000006044820152606401610615565b600160a060020a0382166000818152606860209081526040808320805460010190558483526067909152808220805473ffffffffffffffffffffffffffffffffffffffff19168417905551839291907fddf252ad1be2c89b69c2b068fc378daa952ba7f163c4a11628f55a4df523b3ef908290a45050565b60006129e282610a32565b90506129f2816000846001612498565b6129fb82610a32565b6000838152606960209081526040808320805473ffffffffffffffffffffffffffffffffffffffff19908116909155600160a060020a0385168085526068845282852080546000190190558785526067909352818420805490911690555192935084927fddf252ad1be2c89b69c2b068fc378daa952ba7f163c4a11628f55a4df523b3ef908390a45050565b6000807a184f03e93ff9f4daa797ed6e38ed64bf6a1f0100000000000000008310612ad0577a184f03e93ff9f4daa797ed6e38ed64bf6a1f010000000000000000830492506040015b6d04ee2d6d415b85acef81000000008310612afc576d04ee2d6d415b85acef8100000000830492506020015b662386f26fc100008310612b1a57662386f26fc10000830492506010015b6305f5e1008310612b32576305f5e100830492506008015b6127108310612b4657612710830492506004015b60648310612b58576064830492506002015b600a83106104c35760010192915050565b60006001612b7684610c23565b612b8091906137db565b600083815260986020526040902054909150808214612bd357600160a060020a03841660009081526097602090815260408083208584528252808320548484528184208190558352609890915290208190555b506000918252609860209081526040808420849055600160a060020a039094168352609781528383209183525290812055565b609954600090612c18906001906137db565b6000838152609a602052604081205460998054939450909284908110612c4057612c4061362a565b906000526020600020015490508060998381548110612c6157612c6161362a565b6000918252602080832090910192909255828152609a90915260408082208490558582528120556099805480612c9957612c996139e0565b6001900381819060005260206000200160009055905550505050565b6000612cc083610c23565b600160a060020a039093166000908152609760209081526040808320868452825280832085905593825260989052919091209190915550565b828054828255906000526020600020908101928215612d34579160200282015b82811115612d34578235825591602001919060010190612d19565b50612d40929150612dcf565b5090565b604051806101200160405280600081526020016000815260200160008152602001600081526020016000600160a060020a03168152602001606081526020016060815260200160608152602001606081525090565b508054612da5906135ed565b6000825580601f10612db5575050565b601f0160209004906000526020600020908101906110a091905b5b80821115612d405760008155600101612dd0565b600160e060020a0319811681146110a057600080fd5b600060208284031215612e0c57600080fd5b81356123f681612de4565b60005b83811015612e32578181015183820152602001612e1a565b50506000910152565b60008151808452612e53816020860160208601612e17565b601f01601f19169290920160200192915050565b6020815260006123f66020830184612e3b565b600060208284031215612e8c57600080fd5b5035919050565b8035600160a060020a0381168114612eaa57600080fd5b919050565b60008060408385031215612ec257600080fd5b612ecb83612e93565b946020939093013593505050565b600080600060608486031215612eee57600080fd5b612ef784612e93565b9250612f0560208501612e93565b9150604084013590509250925092565b60008083601f840112612f2757600080fd5b50813567ffffffffffffffff811115612f3f57600080fd5b6020830191508360208083028501011115612f5957600080fd5b9250929050565b60008083601f840112612f7257600080fd5b50813567ffffffffffffffff811115612f8a57600080fd5b602083019150836020828501011115612f5957600080fd5b600080600080600080600060a0888a031215612fbd57600080fd5b612fc688612e93565b96506020880135955060408801359450606088013567ffffffffffffffff80821115612ff157600080fd5b612ffd8b838c01612f15565b909650945060808a013591508082111561301657600080fd5b506130238a828b01612f60565b989b979a50959850939692959293505050565b60e060020a634e487b7102600052604160045260246000fd5b600067ffffffffffffffff8084111561306a5761306a613036565b604051601f8501601f19908116603f0116810190828211818310171561309257613092613036565b816040528093508581528686860111156130ab57600080fd5b858560208301376000602087830101525050509392505050565b600082601f8301126130d657600080fd5b6123f68383356020850161304f565b6000602082840312156130f757600080fd5b813567ffffffffffffffff81111561310e57600080fd5b611d58848285016130c5565b60008060006040848603121561312f57600080fd5b83359250602084013567ffffffffffffffff81111561314d57600080fd5b61315986828701612f15565b9497909650939450505050565b60006020828403121561317857600080fd5b6123f682612e93565b600080600080600080600060a0888a03121561319c57600080fd5b873596506020880135955060408801359450606088013567ffffffffffffffff808211156131c957600080fd5b6131d58b838c01612f15565b909650945060808a01359150808211156131ee57600080fd5b506130238a828b01612f15565b60008060006040848603121561321057600080fd5b83359250602084013567ffffffffffffffff81111561322e57600080fd5b61315986828701612f60565b6000806040838503121561324d57600080fd5b61325683612e93565b91506020830135801515811461326b57600080fd5b809150509250929050565b600080600080600060a0868803121561328e57600080fd5b61329786612e93565b9450602086013567ffffffffffffffff8111156132b357600080fd5b6132bf888289016130c5565b959895975050505060408401359360608101359360809091013592509050565b600080600080608085870312156132f557600080fd5b6132fe85612e93565b935061330c60208601612e93565b925060408501359150606085013567ffffffffffffffff81111561332f57600080fd5b8501601f8101871361334057600080fd5b61334f8782356020840161304f565b91505092959194509250565b60008060008060008060a0878903121561337457600080fd5b86359550602087013594506040870135935060608701359250608087013567ffffffffffffffff8111156133a757600080fd5b6133b389828a01612f60565b979a9699509497509295939492505050565b600081518084526020808501945080840160005b838110156133f5578151875295820195908201906001016133d9565b509495945050505050565b60e060020a634e487b7102600052602160045260246000fd5b60008151808452602080850194508084016000805b84811015613488578251600160a060020a03815116895284810151600681106134685760e060020a634e487b710284526021600452602484fd5b89860152604090810151908901526060909701969183019160010161342e565b50959695505050505050565b60006101208251845260208301516020850152604083015160408501526060830151606085015260808301516134d56080860182600160a060020a03169052565b5060a08301518160a08601526134ed828601826133c5565b91505060c083015184820360c086015261350782826133c5565b91505060e083015184820360e08601526135218282613419565b915050610100808401518583038287015261353c8382612e3b565b9695505050505050565b600060208083018184528085518083526040860191506040848202870101925083870160005b8281101561359a57603f19888603018452613588858351613494565b9450928501929085019060010161356c565b5092979650505050505050565b600080604083850312156135ba57600080fd5b6135c383612e93565b91506135d160208401612e93565b90509250929050565b6020815260006123f66020830184613494565b60028104600182168061360157607f821691505b6020821081036136245760e060020a634e487b7102600052602260045260246000fd5b50919050565b60e060020a634e487b7102600052603260045260246000fd5b60e060020a634e487b7102600052601160045260246000fd5b808201808211156104c3576104c3613643565b60006001820161368157613681613643565b5060010190565b601f8211156106b9576000818152602081206020601f860104810160208610156136af5750805b6020601f860104820191505b81811015611116578281556001016136bb565b815167ffffffffffffffff8111156136e8576136e8613036565b6136fc816136f684546135ed565b84613688565b602080601f83116001811461373557600084156137195750858301515b60028086026008870290910a6000190419821617865550611116565b600085815260208120601f198616915b8281101561376457888601518255948401946001909101908401613745565b508582101561378457878501516008601f88160260020a60001904191681555b5050505050600202600101905550565b6000808335601e198436030181126137ab57600080fd5b83018035915067ffffffffffffffff8211156137c657600080fd5b602001915036819003821315612f5957600080fd5b818103818111156104c3576104c3613643565b6020808252602d908201527f4552433732313a2063616c6c6572206973206e6f7420746f6b656e206f776e6560408201527f72206f7220617070726f76656400000000000000000000000000000000000000606082015260800190565b6020808252602b908201527f496e697469616c697a61626c653a20636f6e7472616374206973206e6f74206960408201527f6e697469616c697a696e67000000000000000000000000000000000000000000606082015260800190565b600083516138ba818460208801612e17565b8351908301906138ce818360208801612e17565b01949350505050565b60208082526025908201527f4552433732313a207472616e736665722066726f6d20696e636f72726563742060408201527f6f776e6572000000000000000000000000000000000000000000000000000000606082015260800190565b60208082526032908201527f4552433732313a207472616e7366657220746f206e6f6e20455243373231526560408201527f63656976657220696d706c656d656e7465720000000000000000000000000000606082015260800190565b6000600160a060020a0380871683528086166020840152508360408301526080606083015261353c6080830184612e3b565b6000602082840312156139d557600080fd5b81516123f681612de4565b60e060020a634e487b7102600052603160045260246000fdfea264697066735822122022bed948269bfbbacbbd1e38c6a86cf229ad93a69c524436ca2e02b66dae0b6264736f6c63430008110033",
  "linkReferences": {},
  "deployedLinkReferences": {}
}